{
  "_format": "hh-sol-artifact-1",
  "contractName": "SimplePlayerCard",
  "sourceName": "contracts/SimplePlayerCard.sol",
  "abi": [
    {
      "inputs": [],
      "stateMutability": "nonpayable",
      "type": "constructor"
    },
    {
      "anonymous": false,
      "inputs": [
        {
          "indexed": true,
          "internalType": "address",
          "name": "owner",
          "type": "address"
        },
        {
          "indexed": true,
          "internalType": "address",
          "name": "approved",
          "type": "address"
        },
        {
          "indexed": true,
          "internalType": "uint256",
          "name": "tokenId",
          "type": "uint256"
        }
      ],
      "name": "Approval",
      "type": "event"
    },
    {
      "anonymous": false,
      "inputs": [
        {
          "indexed": true,
          "internalType": "address",
          "name": "owner",
          "type": "address"
        },
        {
          "indexed": true,
          "internalType": "address",
          "name": "operator",
          "type": "address"
        },
        {
          "indexed": false,
          "internalType": "bool",
          "name": "approved",
          "type": "bool"
        }
      ],
      "name": "ApprovalForAll",
      "type": "event"
    },
    {
      "anonymous": false,
      "inputs": [
        {
          "indexed": true,
          "internalType": "uint256",
          "name": "cardId",
          "type": "uint256"
        },
        {
          "indexed": false,
          "internalType": "string",
          "name": "name",
          "type": "string"
        },
        {
          "indexed": false,
          "internalType": "string",
          "name": "cardType",
          "type": "string"
        },
        {
          "indexed": false,
          "internalType": "uint256",
          "name": "value",
          "type": "uint256"
        },
        {
          "indexed": false,
          "internalType": "string",
          "name": "hash",
          "type": "string"
        },
        {
          "indexed": true,
          "internalType": "address",
          "name": "owner",
          "type": "address"
        }
      ],
      "name": "CardCreated",
      "type": "event"
    },
    {
      "anonymous": false,
      "inputs": [
        {
          "indexed": true,
          "internalType": "uint256",
          "name": "cardId",
          "type": "uint256"
        },
        {
          "indexed": false,
          "internalType": "bool",
          "name": "isLocked",
          "type": "bool"
        }
      ],
      "name": "CardLocked",
      "type": "event"
    },
    {
      "anonymous": false,
      "inputs": [
        {
          "indexed": true,
          "internalType": "address",
          "name": "buyer",
          "type": "address"
        },
        {
          "indexed": false,
          "internalType": "uint256",
          "name": "cardId",
          "type": "uint256"
        },
        {
          "indexed": false,
          "internalType": "uint256",
          "name": "oldPrice",
          "type": "uint256"
        },
        {
          "indexed": false,
          "internalType": "uint256",
          "name": "newPrice",
          "type": "uint256"
        }
      ],
      "name": "CardPurchased",
      "type": "event"
    },
    {
      "anonymous": false,
      "inputs": [
        {
          "indexed": true,
          "internalType": "address",
          "name": "previousOwner",
          "type": "address"
        },
        {
          "indexed": true,
          "internalType": "address",
          "name": "newOwner",
          "type": "address"
        }
      ],
      "name": "OwnershipTransferred",
      "type": "event"
    },
    {
      "anonymous": false,
      "inputs": [
        {
          "indexed": true,
          "internalType": "address",
          "name": "from",
          "type": "address"
        },
        {
          "indexed": true,
          "internalType": "address",
          "name": "to",
          "type": "address"
        },
        {
          "indexed": true,
          "internalType": "uint256",
          "name": "tokenId",
          "type": "uint256"
        }
      ],
      "name": "Transfer",
      "type": "event"
    },
    {
      "inputs": [],
      "name": "MAX_CARDS_PER_WALLET",
      "outputs": [
        {
          "internalType": "uint256",
          "name": "",
          "type": "uint256"
        }
      ],
      "stateMutability": "view",
      "type": "function"
    },
    {
      "inputs": [],
      "name": "MAX_LOCKED_CARDS",
      "outputs": [
        {
          "internalType": "uint256",
          "name": "",
          "type": "uint256"
        }
      ],
      "stateMutability": "view",
      "type": "function"
    },
    {
      "inputs": [
        {
          "internalType": "string",
          "name": "_name",
          "type": "string"
        },
        {
          "internalType": "string",
          "name": "_cardType",
          "type": "string"
        },
        {
          "internalType": "uint256",
          "name": "_value",
          "type": "uint256"
        },
        {
          "internalType": "string",
          "name": "_hash",
          "type": "string"
        }
      ],
      "name": "addCard",
      "outputs": [],
      "stateMutability": "nonpayable",
      "type": "function"
    },
    {
      "inputs": [
        {
          "internalType": "address",
          "name": "to",
          "type": "address"
        },
        {
          "internalType": "uint256",
          "name": "tokenId",
          "type": "uint256"
        }
      ],
      "name": "approve",
      "outputs": [],
      "stateMutability": "nonpayable",
      "type": "function"
    },
    {
      "inputs": [
        {
          "internalType": "address",
          "name": "owner",
          "type": "address"
        }
      ],
      "name": "balanceOf",
      "outputs": [
        {
          "internalType": "uint256",
          "name": "",
          "type": "uint256"
        }
      ],
      "stateMutability": "view",
      "type": "function"
    },
    {
      "inputs": [
        {
          "internalType": "uint256",
          "name": "cardId",
          "type": "uint256"
        }
      ],
      "name": "buyCard",
      "outputs": [],
      "stateMutability": "payable",
      "type": "function"
    },
    {
      "inputs": [],
      "name": "cardCount",
      "outputs": [
        {
          "internalType": "uint256",
          "name": "",
          "type": "uint256"
        }
      ],
      "stateMutability": "view",
      "type": "function"
    },
    {
      "inputs": [
        {
          "internalType": "uint256",
          "name": "",
          "type": "uint256"
        }
      ],
      "name": "cards",
      "outputs": [
        {
          "internalType": "string",
          "name": "name",
          "type": "string"
        },
        {
          "internalType": "string",
          "name": "cardType",
          "type": "string"
        },
        {
          "internalType": "uint256",
          "name": "value",
          "type": "uint256"
        },
        {
          "internalType": "string",
          "name": "hash",
          "type": "string"
        },
        {
          "internalType": "uint256",
          "name": "createdAt",
          "type": "uint256"
        },
        {
          "internalType": "bool",
          "name": "isLocked",
          "type": "bool"
        }
      ],
      "stateMutability": "view",
      "type": "function"
    },
    {
      "inputs": [],
      "name": "getAdmin",
      "outputs": [
        {
          "internalType": "address",
          "name": "",
          "type": "address"
        }
      ],
      "stateMutability": "view",
      "type": "function"
    },
    {
      "inputs": [
        {
          "internalType": "uint256",
          "name": "tokenId",
          "type": "uint256"
        }
      ],
      "name": "getApproved",
      "outputs": [
        {
          "internalType": "address",
          "name": "",
          "type": "address"
        }
      ],
      "stateMutability": "view",
      "type": "function"
    },
    {
      "inputs": [],
      "name": "getAvailableCards",
      "outputs": [
        {
          "internalType": "uint256[]",
          "name": "",
          "type": "uint256[]"
        }
      ],
      "stateMutability": "view",
      "type": "function"
    },
    {
      "inputs": [
        {
          "internalType": "string",
          "name": "cardType",
          "type": "string"
        }
      ],
      "name": "getPriceIncrease",
      "outputs": [
        {
          "internalType": "uint256",
          "name": "",
          "type": "uint256"
        }
      ],
      "stateMutability": "pure",
      "type": "function"
    },
    {
      "inputs": [
        {
          "internalType": "address",
          "name": "user",
          "type": "address"
        }
      ],
      "name": "getUserCards",
      "outputs": [
        {
          "internalType": "uint256[]",
          "name": "",
          "type": "uint256[]"
        }
      ],
      "stateMutability": "view",
      "type": "function"
    },
    {
      "inputs": [
        {
          "internalType": "address",
          "name": "owner",
          "type": "address"
        },
        {
          "internalType": "address",
          "name": "operator",
          "type": "address"
        }
      ],
      "name": "isApprovedForAll",
      "outputs": [
        {
          "internalType": "bool",
          "name": "",
          "type": "bool"
        }
      ],
      "stateMutability": "view",
      "type": "function"
    },
    {
      "inputs": [],
      "name": "name",
      "outputs": [
        {
          "internalType": "string",
          "name": "",
          "type": "string"
        }
      ],
      "stateMutability": "view",
      "type": "function"
    },
    {
      "inputs": [],
      "name": "owner",
      "outputs": [
        {
          "internalType": "address",
          "name": "",
          "type": "address"
        }
      ],
      "stateMutability": "view",
      "type": "function"
    },
    {
      "inputs": [
        {
          "internalType": "address",
          "name": "",
          "type": "address"
        },
        {
          "internalType": "uint256",
          "name": "",
          "type": "uint256"
        }
      ],
      "name": "ownerCards",
      "outputs": [
        {
          "internalType": "uint256",
          "name": "",
          "type": "uint256"
        }
      ],
      "stateMutability": "view",
      "type": "function"
    },
    {
      "inputs": [
        {
          "internalType": "uint256",
          "name": "tokenId",
          "type": "uint256"
        }
      ],
      "name": "ownerOf",
      "outputs": [
        {
          "internalType": "address",
          "name": "",
          "type": "address"
        }
      ],
      "stateMutability": "view",
      "type": "function"
    },
    {
      "inputs": [],
      "name": "renounceOwnership",
      "outputs": [],
      "stateMutability": "nonpayable",
      "type": "function"
    },
    {
      "inputs": [
        {
          "internalType": "address",
          "name": "from",
          "type": "address"
        },
        {
          "internalType": "address",
          "name": "to",
          "type": "address"
        },
        {
          "internalType": "uint256",
          "name": "tokenId",
          "type": "uint256"
        }
      ],
      "name": "safeTransferFrom",
      "outputs": [],
      "stateMutability": "nonpayable",
      "type": "function"
    },
    {
      "inputs": [
        {
          "internalType": "address",
          "name": "from",
          "type": "address"
        },
        {
          "internalType": "address",
          "name": "to",
          "type": "address"
        },
        {
          "internalType": "uint256",
          "name": "tokenId",
          "type": "uint256"
        },
        {
          "internalType": "bytes",
          "name": "data",
          "type": "bytes"
        }
      ],
      "name": "safeTransferFrom",
      "outputs": [],
      "stateMutability": "nonpayable",
      "type": "function"
    },
    {
      "inputs": [
        {
          "internalType": "address",
          "name": "operator",
          "type": "address"
        },
        {
          "internalType": "bool",
          "name": "approved",
          "type": "bool"
        }
      ],
      "name": "setApprovalForAll",
      "outputs": [],
      "stateMutability": "nonpayable",
      "type": "function"
    },
    {
      "inputs": [
        {
          "internalType": "bytes4",
          "name": "interfaceId",
          "type": "bytes4"
        }
      ],
      "name": "supportsInterface",
      "outputs": [
        {
          "internalType": "bool",
          "name": "",
          "type": "bool"
        }
      ],
      "stateMutability": "view",
      "type": "function"
    },
    {
      "inputs": [],
      "name": "symbol",
      "outputs": [
        {
          "internalType": "string",
          "name": "",
          "type": "string"
        }
      ],
      "stateMutability": "view",
      "type": "function"
    },
    {
      "inputs": [
        {
          "internalType": "uint256",
          "name": "cardId",
          "type": "uint256"
        }
      ],
      "name": "toggleCardLock",
      "outputs": [],
      "stateMutability": "nonpayable",
      "type": "function"
    },
    {
      "inputs": [
        {
          "internalType": "uint256",
          "name": "tokenId",
          "type": "uint256"
        }
      ],
      "name": "tokenURI",
      "outputs": [
        {
          "internalType": "string",
          "name": "",
          "type": "string"
        }
      ],
      "stateMutability": "view",
      "type": "function"
    },
    {
      "inputs": [
        {
          "internalType": "address",
          "name": "from",
          "type": "address"
        },
        {
          "internalType": "address",
          "name": "to",
          "type": "address"
        },
        {
          "internalType": "uint256",
          "name": "tokenId",
          "type": "uint256"
        }
      ],
      "name": "transferFrom",
      "outputs": [],
      "stateMutability": "nonpayable",
      "type": "function"
    },
    {
      "inputs": [
        {
          "internalType": "address",
          "name": "newOwner",
          "type": "address"
        }
      ],
      "name": "transferOwnership",
      "outputs": [],
      "stateMutability": "nonpayable",
      "type": "function"
    }
  ],
  "bytecode": "0x60806040523480156200001157600080fd5b506040518060400160405280601081526020017f53696d706c65506c6179657243617264000000000000000000000000000000008152506040518060400160405280600381526020017f535043000000000000000000000000000000000000000000000000000000000081525081600090816200008f919062000453565b508060019081620000a1919062000453565b505050620000c4620000b86200010b60201b60201c565b6200011360201b60201c565b33600a60006101000a81548173ffffffffffffffffffffffffffffffffffffffff021916908373ffffffffffffffffffffffffffffffffffffffff1602179055506200053a565b600033905090565b6000600660009054906101000a900473ffffffffffffffffffffffffffffffffffffffff16905081600660006101000a81548173ffffffffffffffffffffffffffffffffffffffff021916908373ffffffffffffffffffffffffffffffffffffffff1602179055508173ffffffffffffffffffffffffffffffffffffffff168173ffffffffffffffffffffffffffffffffffffffff167f8be0079c531659141344cd1fd0a4f28419497f9722a3daafe3b4186f6b6457e060405160405180910390a35050565b600081519050919050565b7f4e487b7100000000000000000000000000000000000000000000000000000000600052604160045260246000fd5b7f4e487b7100000000000000000000000000000000000000000000000000000000600052602260045260246000fd5b600060028204905060018216806200025b57607f821691505b60208210810362000271576200027062000213565b5b50919050565b60008190508160005260206000209050919050565b60006020601f8301049050919050565b600082821b905092915050565b600060088302620002db7fffffffffffffffffffffffffffffffffffffffffffffffffffffffffffffffff826200029c565b620002e786836200029c565b95508019841693508086168417925050509392505050565b6000819050919050565b6000819050919050565b6000620003346200032e6200032884620002ff565b62000309565b620002ff565b9050919050565b6000819050919050565b620003508362000313565b620003686200035f826200033b565b848454620002a9565b825550505050565b600090565b6200037f62000370565b6200038c81848462000345565b505050565b5b81811015620003b457620003a860008262000375565b60018101905062000392565b5050565b601f8211156200040357620003cd8162000277565b620003d8846200028c565b81016020851015620003e8578190505b62000400620003f7856200028c565b83018262000391565b50505b505050565b600082821c905092915050565b6000620004286000198460080262000408565b1980831691505092915050565b600062000443838362000415565b9150826002028217905092915050565b6200045e82620001d9565b67ffffffffffffffff8111156200047a5762000479620001e4565b5b62000486825462000242565b62000493828285620003b8565b600060209050601f831160018114620004cb5760008415620004b6578287015190505b620004c2858262000435565b86555062000532565b601f198416620004db8662000277565b60005b828110156200050557848901518255600182019150602085019450602081019050620004de565b8683101562000525578489015162000521601f89168262000415565b8355505b6001600288020188555050505b505050505050565b61460f806200054a6000396000f3fe6080604052600436106101b75760003560e01c806379e4a5b7116100ec578063ac080b651161008a578063c87b56dd11610064578063c87b56dd14610628578063e631177114610665578063e985e9c514610690578063f2fde38b146106cd576101b7565b8063ac080b65146105b8578063b88d4fde146105e3578063c70f5eaa1461060c576101b7565b80638dc10768116100c65780638dc10768146104e557806395d89b4114610527578063a22cb46514610552578063a8365ab01461057b576101b7565b806379e4a5b71461045257806388d9f40d1461047d5780638da5cb5b146104ba576101b7565b806342842e0e116101595780636352211e116101335780636352211e146103965780636e9960c3146103d357806370a08231146103fe578063715018a61461043b576101b7565b806342842e0e1461031b5780634fde30d9146103445780636193fada1461036d576101b7565b8063095ea7b311610195578063095ea7b3146102615780631b6cde101461028a57806323b872dd146102b55780632b7ef78f146102de576101b7565b806301ffc9a7146101bc57806306fdde03146101f9578063081812fc14610224575b600080fd5b3480156101c857600080fd5b506101e360048036038101906101de9190612bb6565b6106f6565b6040516101f09190612bfe565b60405180910390f35b34801561020557600080fd5b5061020e6107d8565b60405161021b9190612ca9565b60405180910390f35b34801561023057600080fd5b5061024b60048036038101906102469190612d01565b61086a565b6040516102589190612d6f565b60405180910390f35b34801561026d57600080fd5b5061028860048036038101906102839190612db6565b6108b0565b005b34801561029657600080fd5b5061029f6109c7565b6040516102ac9190612e05565b60405180910390f35b3480156102c157600080fd5b506102dc60048036038101906102d79190612e20565b6109d1565b005b3480156102ea57600080fd5b5061030560048036038101906103009190612fa8565b610a31565b6040516103129190612e05565b60405180910390f35b34801561032757600080fd5b50610342600480360381019061033d9190612e20565b610ba5565b005b34801561035057600080fd5b5061036b60048036038101906103669190612ff1565b610bc5565b005b34801561037957600080fd5b50610394600480360381019061038f9190612d01565b610dfc565b005b3480156103a257600080fd5b506103bd60048036038101906103b89190612d01565b611086565b6040516103ca9190612d6f565b60405180910390f35b3480156103df57600080fd5b506103e861110c565b6040516103f59190612d6f565b60405180910390f35b34801561040a57600080fd5b50610425600480360381019061042091906130ac565b611136565b6040516104329190612e05565b60405180910390f35b34801561044757600080fd5b506104506111ed565b005b34801561045e57600080fd5b50610467611201565b6040516104749190613197565b60405180910390f35b34801561048957600080fd5b506104a4600480360381019061049f91906130ac565b61137a565b6040516104b19190613197565b60405180910390f35b3480156104c657600080fd5b506104cf611411565b6040516104dc9190612d6f565b60405180910390f35b3480156104f157600080fd5b5061050c60048036038101906105079190612d01565b61143b565b60405161051e969594939291906131b9565b60405180910390f35b34801561053357600080fd5b5061053c61161c565b6040516105499190612ca9565b60405180910390f35b34801561055e57600080fd5b506105796004803603810190610574919061325b565b6116ae565b005b34801561058757600080fd5b506105a2600480360381019061059d9190612db6565b6116c4565b6040516105af9190612e05565b60405180910390f35b3480156105c457600080fd5b506105cd6116f5565b6040516105da9190612e05565b60405180910390f35b3480156105ef57600080fd5b5061060a6004803603810190610605919061333c565b6116fa565b005b61062660048036038101906106219190612d01565b61175c565b005b34801561063457600080fd5b5061064f600480360381019061064a9190612d01565b611b2d565b60405161065c9190612ca9565b60405180910390f35b34801561067157600080fd5b5061067a611b95565b6040516106879190612e05565b60405180910390f35b34801561069c57600080fd5b506106b760048036038101906106b291906133bf565b611b9a565b6040516106c49190612bfe565b60405180910390f35b3480156106d957600080fd5b506106f460048036038101906106ef91906130ac565b611c2e565b005b60007f80ac58cd000000000000000000000000000000000000000000000000000000007bffffffffffffffffffffffffffffffffffffffffffffffffffffffff1916827bffffffffffffffffffffffffffffffffffffffffffffffffffffffff191614806107c157507f5b5e139f000000000000000000000000000000000000000000000000000000007bffffffffffffffffffffffffffffffffffffffffffffffffffffffff1916827bffffffffffffffffffffffffffffffffffffffffffffffffffffffff1916145b806107d157506107d082611cb1565b5b9050919050565b6060600080546107e79061342e565b80601f01602080910402602001604051908101604052809291908181526020018280546108139061342e565b80156108605780601f1061083557610100808354040283529160200191610860565b820191906000526020600020905b81548152906001019060200180831161084357829003601f168201915b5050505050905090565b600061087582611d1b565b6004600083815260200190815260200160002060009054906101000a900473ffffffffffffffffffffffffffffffffffffffff169050919050565b60006108bb82611086565b90508073ffffffffffffffffffffffffffffffffffffffff168373ffffffffffffffffffffffffffffffffffffffff160361092b576040517f08c379a0000000000000000000000000000000000000000000000000000000008152600401610922906134d1565b60405180910390fd5b8073ffffffffffffffffffffffffffffffffffffffff1661094a611d66565b73ffffffffffffffffffffffffffffffffffffffff161480610979575061097881610973611d66565b611b9a565b5b6109b8576040517f08c379a00000000000000000000000000000000000000000000000000000000081526004016109af90613563565b60405180910390fd5b6109c28383611d6e565b505050565b6000600954905090565b6109e26109dc611d66565b82611e27565b610a21576040517f08c379a0000000000000000000000000000000000000000000000000000000008152600401610a18906135f5565b60405180910390fd5b610a2c838383611ebc565b505050565b6000604051602001610a429061366c565b6040516020818303038152906040528051906020012082604051602001610a6991906136b2565b6040516020818303038152906040528051906020012003610a8d5760059050610ba0565b604051602001610a9c90613715565b6040516020818303038152906040528051906020012082604051602001610ac391906136b2565b6040516020818303038152906040528051906020012003610ae75760049050610ba0565b604051602001610af690613776565b6040516020818303038152906040528051906020012082604051602001610b1d91906136b2565b6040516020818303038152906040528051906020012003610b415760039050610ba0565b604051602001610b50906137d7565b6040516020818303038152906040528051906020012082604051602001610b7791906136b2565b6040516020818303038152906040528051906020012003610b9b5760089050610ba0565b600090505b919050565b610bc0838383604051806020016040528060008152506116fa565b505050565b600a60009054906101000a900473ffffffffffffffffffffffffffffffffffffffff1673ffffffffffffffffffffffffffffffffffffffff163373ffffffffffffffffffffffffffffffffffffffff1614610c55576040517f08c379a0000000000000000000000000000000000000000000000000000000008152600401610c4c9061385e565b60405180910390fd5b6000600954905060096000815480929190610c6f906138ad565b91905055506040518060c0016040528086815260200185815260200184815260200183815260200142815260200160001515815250600760008381526020019081526020016000206000820151816000019081610ccc9190613aa1565b506020820151816001019081610ce29190613aa1565b50604082015181600201556060820151816003019081610d029190613aa1565b506080820151816004015560a08201518160050160006101000a81548160ff021916908315150217905550905050610d3a33826121b5565b600860003373ffffffffffffffffffffffffffffffffffffffff1673ffffffffffffffffffffffffffffffffffffffff1681526020019081526020016000208190806001815401808255809150506001900390600052602060002001600090919091909150553373ffffffffffffffffffffffffffffffffffffffff16817f587750356ceeba0cad0aac2a0ea8e4f71b114f7de606b5e9032544236cfcdc9787878787604051610ded9493929190613b73565b60405180910390a35050505050565b3373ffffffffffffffffffffffffffffffffffffffff16610e1c82611086565b73ffffffffffffffffffffffffffffffffffffffff1614610e72576040517f08c379a0000000000000000000000000000000000000000000000000000000008152600401610e6990613c3f565b60405180910390fd5b6000805b600860003373ffffffffffffffffffffffffffffffffffffffff1673ffffffffffffffffffffffffffffffffffffffff16815260200190815260200160002080549050811015610f665760076000600860003373ffffffffffffffffffffffffffffffffffffffff1673ffffffffffffffffffffffffffffffffffffffff1681526020019081526020016000208381548110610f1557610f14613c5f565b5b9060005260206000200154815260200190815260200160002060050160009054906101000a900460ff1615610f53578180610f4f906138ad565b9250505b8080610f5e906138ad565b915050610e76565b506005811080610f9657506007600083815260200190815260200160002060050160009054906101000a900460ff165b610fd5576040517f08c379a0000000000000000000000000000000000000000000000000000000008152600401610fcc90613d00565b60405180910390fd5b6007600083815260200190815260200160002060050160009054906101000a900460ff16156007600084815260200190815260200160002060050160006101000a81548160ff021916908315150217905550817f3ac2c7a291a9d1027ff52b34126ec23a80f267a31f4bd8e9946c9e700980aba26007600085815260200190815260200160002060050160009054906101000a900460ff1660405161107a9190612bfe565b60405180910390a25050565b600080611092836123d2565b9050600073ffffffffffffffffffffffffffffffffffffffff168173ffffffffffffffffffffffffffffffffffffffff1603611103576040517f08c379a00000000000000000000000000000000000000000000000000000000081526004016110fa90613d6c565b60405180910390fd5b80915050919050565b6000600a60009054906101000a900473ffffffffffffffffffffffffffffffffffffffff16905090565b60008073ffffffffffffffffffffffffffffffffffffffff168273ffffffffffffffffffffffffffffffffffffffff16036111a6576040517f08c379a000000000000000000000000000000000000000000000000000000000815260040161119d90613dfe565b60405180910390fd5b600360008373ffffffffffffffffffffffffffffffffffffffff1673ffffffffffffffffffffffffffffffffffffffff168152602001908152602001600020549050919050565b6111f561240f565b6111ff600061248d565b565b606060008060095467ffffffffffffffff81111561122257611221612e7d565b5b6040519080825280602002602001820160405280156112505781602001602082028036833780820191505090505b50905060005b6009548110156112ca576007600082815260200190815260200160002060050160009054906101000a900460ff166112b7578082848151811061129c5761129b613c5f565b5b60200260200101818152505082806112b3906138ad565b9350505b80806112c2906138ad565b915050611256565b5060008267ffffffffffffffff8111156112e7576112e6612e7d565b5b6040519080825280602002602001820160405280156113155781602001602082028036833780820191505090505b50905060005b838110156113705782818151811061133657611335613c5f565b5b602002602001015182828151811061135157611350613c5f565b5b6020026020010181815250508080611368906138ad565b91505061131b565b5080935050505090565b6060600860008373ffffffffffffffffffffffffffffffffffffffff1673ffffffffffffffffffffffffffffffffffffffff16815260200190815260200160002080548060200260200160405190810160405280929190818152602001828054801561140557602002820191906000526020600020905b8154815260200190600101908083116113f1575b50505050509050919050565b6000600660009054906101000a900473ffffffffffffffffffffffffffffffffffffffff16905090565b600760205280600052604060002060009150905080600001805461145e9061342e565b80601f016020809104026020016040519081016040528092919081815260200182805461148a9061342e565b80156114d75780601f106114ac576101008083540402835291602001916114d7565b820191906000526020600020905b8154815290600101906020018083116114ba57829003601f168201915b5050505050908060010180546114ec9061342e565b80601f01602080910402602001604051908101604052809291908181526020018280546115189061342e565b80156115655780601f1061153a57610100808354040283529160200191611565565b820191906000526020600020905b81548152906001019060200180831161154857829003601f168201915b5050505050908060020154908060030180546115809061342e565b80601f01602080910402602001604051908101604052809291908181526020018280546115ac9061342e565b80156115f95780601f106115ce576101008083540402835291602001916115f9565b820191906000526020600020905b8154815290600101906020018083116115dc57829003601f168201915b5050505050908060040154908060050160009054906101000a900460ff16905086565b60606001805461162b9061342e565b80601f01602080910402602001604051908101604052809291908181526020018280546116579061342e565b80156116a45780601f10611679576101008083540402835291602001916116a4565b820191906000526020600020905b81548152906001019060200180831161168757829003601f168201915b5050505050905090565b6116c06116b9611d66565b8383612553565b5050565b600860205281600052604060002081815481106116e057600080fd5b90600052602060002001600091509150505481565b600581565b61170b611705611d66565b83611e27565b61174a576040517f08c379a0000000000000000000000000000000000000000000000000000000008152600401611741906135f5565b60405180910390fd5b611756848484846126bf565b50505050565b33600a600860008373ffffffffffffffffffffffffffffffffffffffff1673ffffffffffffffffffffffffffffffffffffffff16815260200190815260200160002080549050106117e2576040517f08c379a00000000000000000000000000000000000000000000000000000000081526004016117d990613e90565b60405180910390fd5b60006117ed83611086565b90503373ffffffffffffffffffffffffffffffffffffffff168173ffffffffffffffffffffffffffffffffffffffff160361185d576040517f08c379a000000000000000000000000000000000000000000000000000000000815260040161185490613f22565b60405180910390fd5b6007600084815260200190815260200160002060050160009054906101000a900460ff16156118c1576040517f08c379a00000000000000000000000000000000000000000000000000000000081526004016118b890613fb4565b60405180910390fd5b600760008481526020019081526020016000206002015434101561191a576040517f08c379a000000000000000000000000000000000000000000000000000000000815260040161191190614020565b60405180910390fd5b60006007600085815260200190815260200160002060020154905060006119de60076000878152602001908152602001600020600101805461195b9061342e565b80601f01602080910402602001604051908101604052809291908181526020018280546119879061342e565b80156119d45780601f106119a9576101008083540402835291602001916119d4565b820191906000526020600020905b8154815290600101906020018083116119b757829003601f168201915b5050505050610a31565b90508273ffffffffffffffffffffffffffffffffffffffff166108fc839081150290604051600060405180830381858888f19350505050158015611a26573d6000803e3d6000fd5b50611a32833387611ebc565b600860003373ffffffffffffffffffffffffffffffffffffffff1673ffffffffffffffffffffffffffffffffffffffff1681526020019081526020016000208590806001815401808255809150506001900390600052602060002001600090919091909150558082611aa49190614040565b60076000878152602001908152602001600020600201819055503373ffffffffffffffffffffffffffffffffffffffff167f043c7138120d6082be37dbbf053360a3f7ef694833241b0458183bd5f61c31598684600760008a815260200190815260200160002060020154604051611b1e93929190614074565b60405180910390a25050505050565b6060611b3882611d1b565b6000611b4261271b565b90506000815111611b625760405180602001604052806000815250611b8d565b80611b6c84612732565b604051602001611b7d9291906140ab565b6040516020818303038152906040525b915050919050565b600a81565b6000600560008473ffffffffffffffffffffffffffffffffffffffff1673ffffffffffffffffffffffffffffffffffffffff16815260200190815260200160002060008373ffffffffffffffffffffffffffffffffffffffff1673ffffffffffffffffffffffffffffffffffffffff16815260200190815260200160002060009054906101000a900460ff16905092915050565b611c3661240f565b600073ffffffffffffffffffffffffffffffffffffffff168173ffffffffffffffffffffffffffffffffffffffff1603611ca5576040517f08c379a0000000000000000000000000000000000000000000000000000000008152600401611c9c90614141565b60405180910390fd5b611cae8161248d565b50565b60007f01ffc9a7000000000000000000000000000000000000000000000000000000007bffffffffffffffffffffffffffffffffffffffffffffffffffffffff1916827bffffffffffffffffffffffffffffffffffffffffffffffffffffffff1916149050919050565b611d2481612800565b611d63576040517f08c379a0000000000000000000000000000000000000000000000000000000008152600401611d5a90613d6c565b60405180910390fd5b50565b600033905090565b816004600083815260200190815260200160002060006101000a81548173ffffffffffffffffffffffffffffffffffffffff021916908373ffffffffffffffffffffffffffffffffffffffff160217905550808273ffffffffffffffffffffffffffffffffffffffff16611de183611086565b73ffffffffffffffffffffffffffffffffffffffff167f8c5be1e5ebec7d5bd14f71427d1e84f3dd0314c0f7b2291e5b200ac8c7c3b92560405160405180910390a45050565b600080611e3383611086565b90508073ffffffffffffffffffffffffffffffffffffffff168473ffffffffffffffffffffffffffffffffffffffff161480611e755750611e748185611b9a565b5b80611eb357508373ffffffffffffffffffffffffffffffffffffffff16611e9b8461086a565b73ffffffffffffffffffffffffffffffffffffffff16145b91505092915050565b8273ffffffffffffffffffffffffffffffffffffffff16611edc82611086565b73ffffffffffffffffffffffffffffffffffffffff1614611f32576040517f08c379a0000000000000000000000000000000000000000000000000000000008152600401611f29906141d3565b60405180910390fd5b600073ffffffffffffffffffffffffffffffffffffffff168273ffffffffffffffffffffffffffffffffffffffff1603611fa1576040517f08c379a0000000000000000000000000000000000000000000000000000000008152600401611f9890614265565b60405180910390fd5b611fae8383836001612841565b8273ffffffffffffffffffffffffffffffffffffffff16611fce82611086565b73ffffffffffffffffffffffffffffffffffffffff1614612024576040517f08c379a000000000000000000000000000000000000000000000000000000000815260040161201b906141d3565b60405180910390fd5b6004600082815260200190815260200160002060006101000a81549073ffffffffffffffffffffffffffffffffffffffff02191690556001600360008573ffffffffffffffffffffffffffffffffffffffff1673ffffffffffffffffffffffffffffffffffffffff168152602001908152602001600020600082825403925050819055506001600360008473ffffffffffffffffffffffffffffffffffffffff1673ffffffffffffffffffffffffffffffffffffffff16815260200190815260200160002060008282540192505081905550816002600083815260200190815260200160002060006101000a81548173ffffffffffffffffffffffffffffffffffffffff021916908373ffffffffffffffffffffffffffffffffffffffff160217905550808273ffffffffffffffffffffffffffffffffffffffff168473ffffffffffffffffffffffffffffffffffffffff167fddf252ad1be2c89b69c2b068fc378daa952ba7f163c4a11628f55a4df523b3ef60405160405180910390a46121b08383836001612847565b505050565b600073ffffffffffffffffffffffffffffffffffffffff168273ffffffffffffffffffffffffffffffffffffffff1603612224576040517f08c379a000000000000000000000000000000000000000000000000000000000815260040161221b906142d1565b60405180910390fd5b61222d81612800565b1561226d576040517f08c379a00000000000000000000000000000000000000000000000000000000081526004016122649061433d565b60405180910390fd5b61227b600083836001612841565b61228481612800565b156122c4576040517f08c379a00000000000000000000000000000000000000000000000000000000081526004016122bb9061433d565b60405180910390fd5b6001600360008473ffffffffffffffffffffffffffffffffffffffff1673ffffffffffffffffffffffffffffffffffffffff16815260200190815260200160002060008282540192505081905550816002600083815260200190815260200160002060006101000a81548173ffffffffffffffffffffffffffffffffffffffff021916908373ffffffffffffffffffffffffffffffffffffffff160217905550808273ffffffffffffffffffffffffffffffffffffffff16600073ffffffffffffffffffffffffffffffffffffffff167fddf252ad1be2c89b69c2b068fc378daa952ba7f163c4a11628f55a4df523b3ef60405160405180910390a46123ce600083836001612847565b5050565b60006002600083815260200190815260200160002060009054906101000a900473ffffffffffffffffffffffffffffffffffffffff169050919050565b612417611d66565b73ffffffffffffffffffffffffffffffffffffffff16612435611411565b73ffffffffffffffffffffffffffffffffffffffff161461248b576040517f08c379a0000000000000000000000000000000000000000000000000000000008152600401612482906143a9565b60405180910390fd5b565b6000600660009054906101000a900473ffffffffffffffffffffffffffffffffffffffff16905081600660006101000a81548173ffffffffffffffffffffffffffffffffffffffff021916908373ffffffffffffffffffffffffffffffffffffffff1602179055508173ffffffffffffffffffffffffffffffffffffffff168173ffffffffffffffffffffffffffffffffffffffff167f8be0079c531659141344cd1fd0a4f28419497f9722a3daafe3b4186f6b6457e060405160405180910390a35050565b8173ffffffffffffffffffffffffffffffffffffffff168373ffffffffffffffffffffffffffffffffffffffff16036125c1576040517f08c379a00000000000000000000000000000000000000000000000000000000081526004016125b890614415565b60405180910390fd5b80600560008573ffffffffffffffffffffffffffffffffffffffff1673ffffffffffffffffffffffffffffffffffffffff16815260200190815260200160002060008473ffffffffffffffffffffffffffffffffffffffff1673ffffffffffffffffffffffffffffffffffffffff16815260200190815260200160002060006101000a81548160ff0219169083151502179055508173ffffffffffffffffffffffffffffffffffffffff168373ffffffffffffffffffffffffffffffffffffffff167f17307eab39ab6107e8899845ad3d59bd9653f200f220920489ca2b5937696c31836040516126b29190612bfe565b60405180910390a3505050565b6126ca848484611ebc565b6126d68484848461284d565b612715576040517f08c379a000000000000000000000000000000000000000000000000000000000815260040161270c906144a7565b60405180910390fd5b50505050565b606060405180602001604052806000815250905090565b606060006001612741846129d4565b01905060008167ffffffffffffffff8111156127605761275f612e7d565b5b6040519080825280601f01601f1916602001820160405280156127925781602001600182028036833780820191505090505b509050600082602001820190505b6001156127f5578080600190039150507f3031323334353637383961626364656600000000000000000000000000000000600a86061a8153600a85816127e9576127e86144c7565b5b049450600085036127a0575b819350505050919050565b60008073ffffffffffffffffffffffffffffffffffffffff16612822836123d2565b73ffffffffffffffffffffffffffffffffffffffff1614159050919050565b50505050565b50505050565b600061286e8473ffffffffffffffffffffffffffffffffffffffff16612b27565b156129c7578373ffffffffffffffffffffffffffffffffffffffff1663150b7a02612897611d66565b8786866040518563ffffffff1660e01b81526004016128b9949392919061454b565b6020604051808303816000875af19250505080156128f557506040513d601f19601f820116820180604052508101906128f291906145ac565b60015b612977573d8060008114612925576040519150601f19603f3d011682016040523d82523d6000602084013e61292a565b606091505b50600081510361296f576040517f08c379a0000000000000000000000000000000000000000000000000000000008152600401612966906144a7565b60405180910390fd5b805181602001fd5b63150b7a0260e01b7bffffffffffffffffffffffffffffffffffffffffffffffffffffffff1916817bffffffffffffffffffffffffffffffffffffffffffffffffffffffff1916149150506129cc565b600190505b949350505050565b600080600090507a184f03e93ff9f4daa797ed6e38ed64bf6a1f0100000000000000008310612a32577a184f03e93ff9f4daa797ed6e38ed64bf6a1f0100000000000000008381612a2857612a276144c7565b5b0492506040810190505b6d04ee2d6d415b85acef81000000008310612a6f576d04ee2d6d415b85acef81000000008381612a6557612a646144c7565b5b0492506020810190505b662386f26fc100008310612a9e57662386f26fc100008381612a9457612a936144c7565b5b0492506010810190505b6305f5e1008310612ac7576305f5e1008381612abd57612abc6144c7565b5b0492506008810190505b6127108310612aec576127108381612ae257612ae16144c7565b5b0492506004810190505b60648310612b0f5760648381612b0557612b046144c7565b5b0492506002810190505b600a8310612b1e576001810190505b80915050919050565b6000808273ffffffffffffffffffffffffffffffffffffffff163b119050919050565b6000604051905090565b600080fd5b600080fd5b60007fffffffff0000000000000000000000000000000000000000000000000000000082169050919050565b612b9381612b5e565b8114612b9e57600080fd5b50565b600081359050612bb081612b8a565b92915050565b600060208284031215612bcc57612bcb612b54565b5b6000612bda84828501612ba1565b91505092915050565b60008115159050919050565b612bf881612be3565b82525050565b6000602082019050612c136000830184612bef565b92915050565b600081519050919050565b600082825260208201905092915050565b60005b83811015612c53578082015181840152602081019050612c38565b60008484015250505050565b6000601f19601f8301169050919050565b6000612c7b82612c19565b612c858185612c24565b9350612c95818560208601612c35565b612c9e81612c5f565b840191505092915050565b60006020820190508181036000830152612cc38184612c70565b905092915050565b6000819050919050565b612cde81612ccb565b8114612ce957600080fd5b50565b600081359050612cfb81612cd5565b92915050565b600060208284031215612d1757612d16612b54565b5b6000612d2584828501612cec565b91505092915050565b600073ffffffffffffffffffffffffffffffffffffffff82169050919050565b6000612d5982612d2e565b9050919050565b612d6981612d4e565b82525050565b6000602082019050612d846000830184612d60565b92915050565b612d9381612d4e565b8114612d9e57600080fd5b50565b600081359050612db081612d8a565b92915050565b60008060408385031215612dcd57612dcc612b54565b5b6000612ddb85828601612da1565b9250506020612dec85828601612cec565b9150509250929050565b612dff81612ccb565b82525050565b6000602082019050612e1a6000830184612df6565b92915050565b600080600060608486031215612e3957612e38612b54565b5b6000612e4786828701612da1565b9350506020612e5886828701612da1565b9250506040612e6986828701612cec565b9150509250925092565b600080fd5b600080fd5b7f4e487b7100000000000000000000000000000000000000000000000000000000600052604160045260246000fd5b612eb582612c5f565b810181811067ffffffffffffffff82111715612ed457612ed3612e7d565b5b80604052505050565b6000612ee7612b4a565b9050612ef38282612eac565b919050565b600067ffffffffffffffff821115612f1357612f12612e7d565b5b612f1c82612c5f565b9050602081019050919050565b82818337600083830152505050565b6000612f4b612f4684612ef8565b612edd565b905082815260208101848484011115612f6757612f66612e78565b5b612f72848285612f29565b509392505050565b600082601f830112612f8f57612f8e612e73565b5b8135612f9f848260208601612f38565b91505092915050565b600060208284031215612fbe57612fbd612b54565b5b600082013567ffffffffffffffff811115612fdc57612fdb612b59565b5b612fe884828501612f7a565b91505092915050565b6000806000806080858703121561300b5761300a612b54565b5b600085013567ffffffffffffffff81111561302957613028612b59565b5b61303587828801612f7a565b945050602085013567ffffffffffffffff81111561305657613055612b59565b5b61306287828801612f7a565b935050604061307387828801612cec565b925050606085013567ffffffffffffffff81111561309457613093612b59565b5b6130a087828801612f7a565b91505092959194509250565b6000602082840312156130c2576130c1612b54565b5b60006130d084828501612da1565b91505092915050565b600081519050919050565b600082825260208201905092915050565b6000819050602082019050919050565b61310e81612ccb565b82525050565b60006131208383613105565b60208301905092915050565b6000602082019050919050565b6000613144826130d9565b61314e81856130e4565b9350613159836130f5565b8060005b8381101561318a5781516131718882613114565b975061317c8361312c565b92505060018101905061315d565b5085935050505092915050565b600060208201905081810360008301526131b18184613139565b905092915050565b600060c08201905081810360008301526131d38189612c70565b905081810360208301526131e78188612c70565b90506131f66040830187612df6565b81810360608301526132088186612c70565b90506132176080830185612df6565b61322460a0830184612bef565b979650505050505050565b61323881612be3565b811461324357600080fd5b50565b6000813590506132558161322f565b92915050565b6000806040838503121561327257613271612b54565b5b600061328085828601612da1565b925050602061329185828601613246565b9150509250929050565b600067ffffffffffffffff8211156132b6576132b5612e7d565b5b6132bf82612c5f565b9050602081019050919050565b60006132df6132da8461329b565b612edd565b9050828152602081018484840111156132fb576132fa612e78565b5b613306848285612f29565b509392505050565b600082601f83011261332357613322612e73565b5b81356133338482602086016132cc565b91505092915050565b6000806000806080858703121561335657613355612b54565b5b600061336487828801612da1565b945050602061337587828801612da1565b935050604061338687828801612cec565b925050606085013567ffffffffffffffff8111156133a7576133a6612b59565b5b6133b38782880161330e565b91505092959194509250565b600080604083850312156133d6576133d5612b54565b5b60006133e485828601612da1565b92505060206133f585828601612da1565b9150509250929050565b7f4e487b7100000000000000000000000000000000000000000000000000000000600052602260045260246000fd5b6000600282049050600182168061344657607f821691505b602082108103613459576134586133ff565b5b50919050565b7f4552433732313a20617070726f76616c20746f2063757272656e74206f776e6560008201527f7200000000000000000000000000000000000000000000000000000000000000602082015250565b60006134bb602183612c24565b91506134c68261345f565b604082019050919050565b600060208201905081810360008301526134ea816134ae565b9050919050565b7f4552433732313a20617070726f76652063616c6c6572206973206e6f7420746f60008201527f6b656e206f776e6572206f7220617070726f76656420666f7220616c6c000000602082015250565b600061354d603d83612c24565b9150613558826134f1565b604082019050919050565b6000602082019050818103600083015261357c81613540565b9050919050565b7f4552433732313a2063616c6c6572206973206e6f7420746f6b656e206f776e6560008201527f72206f7220617070726f76656400000000000000000000000000000000000000602082015250565b60006135df602d83612c24565b91506135ea82613583565b604082019050919050565b6000602082019050818103600083015261360e816135d2565b9050919050565b600081905092915050565b7f617474617175616e740000000000000000000000000000000000000000000000600082015250565b6000613656600983613615565b915061366182613620565b600982019050919050565b600061367782613649565b9150819050919050565b600061368c82612c19565b6136968185613615565b93506136a6818560208601612c35565b80840191505092915050565b60006136be8284613681565b915081905092915050565b7f6d696c6965750000000000000000000000000000000000000000000000000000600082015250565b60006136ff600683613615565b915061370a826136c9565b600682019050919050565b6000613720826136f2565b9150819050919050565b7f646566656e736575720000000000000000000000000000000000000000000000600082015250565b6000613760600983613615565b915061376b8261372a565b600982019050919050565b600061378182613753565b9150819050919050565b7f6761726469656e00000000000000000000000000000000000000000000000000600082015250565b60006137c1600783613615565b91506137cc8261378b565b600782019050919050565b60006137e2826137b4565b9150819050919050565b7f5365756c206c2761646d696e697374726174657572207065757420616a6f757460008201527f6572206465732063617274657300000000000000000000000000000000000000602082015250565b6000613848602d83612c24565b9150613853826137ec565b604082019050919050565b600060208201905081810360008301526138778161383b565b9050919050565b7f4e487b7100000000000000000000000000000000000000000000000000000000600052601160045260246000fd5b60006138b882612ccb565b91507fffffffffffffffffffffffffffffffffffffffffffffffffffffffffffffffff82036138ea576138e961387e565b5b600182019050919050565b60008190508160005260206000209050919050565b60006020601f8301049050919050565b600082821b905092915050565b6000600883026139577fffffffffffffffffffffffffffffffffffffffffffffffffffffffffffffffff8261391a565b613961868361391a565b95508019841693508086168417925050509392505050565b6000819050919050565b600061399e61399961399484612ccb565b613979565b612ccb565b9050919050565b6000819050919050565b6139b883613983565b6139cc6139c4826139a5565b848454613927565b825550505050565b600090565b6139e16139d4565b6139ec8184846139af565b505050565b5b81811015613a1057613a056000826139d9565b6001810190506139f2565b5050565b601f821115613a5557613a26816138f5565b613a2f8461390a565b81016020851015613a3e578190505b613a52613a4a8561390a565b8301826139f1565b50505b505050565b600082821c905092915050565b6000613a7860001984600802613a5a565b1980831691505092915050565b6000613a918383613a67565b9150826002028217905092915050565b613aaa82612c19565b67ffffffffffffffff811115613ac357613ac2612e7d565b5b613acd825461342e565b613ad8828285613a14565b600060209050601f831160018114613b0b5760008415613af9578287015190505b613b038582613a85565b865550613b6b565b601f198416613b19866138f5565b60005b82811015613b4157848901518255600182019150602085019450602081019050613b1c565b86831015613b5e5784890151613b5a601f891682613a67565b8355505b6001600288020188555050505b505050505050565b60006080820190508181036000830152613b8d8187612c70565b90508181036020830152613ba18186612c70565b9050613bb06040830185612df6565b8181036060830152613bc28184612c70565b905095945050505050565b7f566f7573206e6520706f7576657a20766572726f75696c6c657220717565207660008201527f6f732070726f7072657320636172746573202100000000000000000000000000602082015250565b6000613c29603383612c24565b9150613c3482613bcd565b604082019050919050565b60006020820190508181036000830152613c5881613c1c565b9050919050565b7f4e487b7100000000000000000000000000000000000000000000000000000000600052603260045260246000fd5b7f566f7573206e6520706f7576657a20766572726f75696c6c657220717565203560008201527f20636172746573206175206d6178696d756d2021000000000000000000000000602082015250565b6000613cea603483612c24565b9150613cf582613c8e565b604082019050919050565b60006020820190508181036000830152613d1981613cdd565b9050919050565b7f4552433732313a20696e76616c696420746f6b656e2049440000000000000000600082015250565b6000613d56601883612c24565b9150613d6182613d20565b602082019050919050565b60006020820190508181036000830152613d8581613d49565b9050919050565b7f4552433732313a2061646472657373207a65726f206973206e6f74206120766160008201527f6c6964206f776e65720000000000000000000000000000000000000000000000602082015250565b6000613de8602983612c24565b9150613df382613d8c565b604082019050919050565b60006020820190508181036000830152613e1781613ddb565b9050919050565b7f566f7573206e6520706f7576657a2070617320706f73736564657220706c757360008201527f2064652031302063617274657320210000000000000000000000000000000000602082015250565b6000613e7a602f83612c24565b9150613e8582613e1e565b604082019050919050565b60006020820190508181036000830152613ea981613e6d565b9050919050565b7f566f7573206e6520706f7576657a20706173206163686574657220766f74726560008201527f2070726f70726520636172746520210000000000000000000000000000000000602082015250565b6000613f0c602f83612c24565b9150613f1782613eb0565b604082019050919050565b60006020820190508181036000830152613f3b81613eff565b9050919050565b7f43657474652063617274652065737420626c6f717565652070617220736f6e2060008201527f70726f7072696574616972652021000000000000000000000000000000000000602082015250565b6000613f9e602e83612c24565b9150613fa982613f42565b604082019050919050565b60006020820190508181036000830152613fcd81613f91565b9050919050565b7f466f6e647320696e737566666973616e74732021000000000000000000000000600082015250565b600061400a601483612c24565b915061401582613fd4565b602082019050919050565b6000602082019050818103600083015261403981613ffd565b9050919050565b600061404b82612ccb565b915061405683612ccb565b925082820190508082111561406e5761406d61387e565b5b92915050565b60006060820190506140896000830186612df6565b6140966020830185612df6565b6140a36040830184612df6565b949350505050565b60006140b78285613681565b91506140c38284613681565b91508190509392505050565b7f4f776e61626c653a206e6577206f776e657220697320746865207a65726f206160008201527f6464726573730000000000000000000000000000000000000000000000000000602082015250565b600061412b602683612c24565b9150614136826140cf565b604082019050919050565b6000602082019050818103600083015261415a8161411e565b9050919050565b7f4552433732313a207472616e736665722066726f6d20696e636f72726563742060008201527f6f776e6572000000000000000000000000000000000000000000000000000000602082015250565b60006141bd602583612c24565b91506141c882614161565b604082019050919050565b600060208201905081810360008301526141ec816141b0565b9050919050565b7f4552433732313a207472616e7366657220746f20746865207a65726f2061646460008201527f7265737300000000000000000000000000000000000000000000000000000000602082015250565b600061424f602483612c24565b915061425a826141f3565b604082019050919050565b6000602082019050818103600083015261427e81614242565b9050919050565b7f4552433732313a206d696e7420746f20746865207a65726f2061646472657373600082015250565b60006142bb602083612c24565b91506142c682614285565b602082019050919050565b600060208201905081810360008301526142ea816142ae565b9050919050565b7f4552433732313a20746f6b656e20616c7265616479206d696e74656400000000600082015250565b6000614327601c83612c24565b9150614332826142f1565b602082019050919050565b600060208201905081810360008301526143568161431a565b9050919050565b7f4f776e61626c653a2063616c6c6572206973206e6f7420746865206f776e6572600082015250565b6000614393602083612c24565b915061439e8261435d565b602082019050919050565b600060208201905081810360008301526143c281614386565b9050919050565b7f4552433732313a20617070726f766520746f2063616c6c657200000000000000600082015250565b60006143ff601983612c24565b915061440a826143c9565b602082019050919050565b6000602082019050818103600083015261442e816143f2565b9050919050565b7f4552433732313a207472616e7366657220746f206e6f6e20455243373231526560008201527f63656976657220696d706c656d656e7465720000000000000000000000000000602082015250565b6000614491603283612c24565b915061449c82614435565b604082019050919050565b600060208201905081810360008301526144c081614484565b9050919050565b7f4e487b7100000000000000000000000000000000000000000000000000000000600052601260045260246000fd5b600081519050919050565b600082825260208201905092915050565b600061451d826144f6565b6145278185614501565b9350614537818560208601612c35565b61454081612c5f565b840191505092915050565b60006080820190506145606000830187612d60565b61456d6020830186612d60565b61457a6040830185612df6565b818103606083015261458c8184614512565b905095945050505050565b6000815190506145a681612b8a565b92915050565b6000602082840312156145c2576145c1612b54565b5b60006145d084828501614597565b9150509291505056fea264697066735822122012484d63348afe77b0d0ef0dfe1e072c889338d70deb9389e1a7f3e8811d053564736f6c63430008130033",
  "linkReferences": {},
  "deployedLinkReferences": {}
}