{
  "_format": "hh-sol-artifact-1",
  "contractName": "PlayerNFT",
  "sourceName": "contracts/PlayerNFT.sol",
  "abi": [
    {
      "inputs": [],
      "stateMutability": "nonpayable",
      "type": "constructor"
    },
    {
      "anonymous": false,
      "inputs": [
        {
          "indexed": true,
          "internalType": "address",
          "name": "owner",
          "type": "address"
        },
        {
          "indexed": true,
          "internalType": "address",
          "name": "approved",
          "type": "address"
        },
        {
          "indexed": true,
          "internalType": "uint256",
          "name": "tokenId",
          "type": "uint256"
        }
      ],
      "name": "Approval",
      "type": "event"
    },
    {
      "anonymous": false,
      "inputs": [
        {
          "indexed": true,
          "internalType": "address",
          "name": "owner",
          "type": "address"
        },
        {
          "indexed": true,
          "internalType": "address",
          "name": "operator",
          "type": "address"
        },
        {
          "indexed": false,
          "internalType": "bool",
          "name": "approved",
          "type": "bool"
        }
      ],
      "name": "ApprovalForAll",
      "type": "event"
    },
    {
      "anonymous": false,
      "inputs": [
        {
          "indexed": true,
          "internalType": "address",
          "name": "previousOwner",
          "type": "address"
        },
        {
          "indexed": true,
          "internalType": "address",
          "name": "newOwner",
          "type": "address"
        }
      ],
      "name": "OwnershipTransferred",
      "type": "event"
    },
    {
      "anonymous": false,
      "inputs": [
        {
          "indexed": false,
          "internalType": "uint256",
          "name": "playerId",
          "type": "uint256"
        },
        {
          "indexed": false,
          "internalType": "address",
          "name": "team",
          "type": "address"
        },
        {
          "indexed": false,
          "internalType": "string",
          "name": "metadata",
          "type": "string"
        }
      ],
      "name": "PlayerMinted",
      "type": "event"
    },
    {
      "anonymous": false,
      "inputs": [
        {
          "indexed": false,
          "internalType": "uint256",
          "name": "playerId",
          "type": "uint256"
        },
        {
          "indexed": false,
          "internalType": "address",
          "name": "from",
          "type": "address"
        },
        {
          "indexed": false,
          "internalType": "address",
          "name": "to",
          "type": "address"
        }
      ],
      "name": "PlayerTransferred",
      "type": "event"
    },
    {
      "anonymous": false,
      "inputs": [
        {
          "indexed": true,
          "internalType": "address",
          "name": "from",
          "type": "address"
        },
        {
          "indexed": true,
          "internalType": "address",
          "name": "to",
          "type": "address"
        },
        {
          "indexed": true,
          "internalType": "uint256",
          "name": "tokenId",
          "type": "uint256"
        }
      ],
      "name": "Transfer",
      "type": "event"
    },
    {
      "inputs": [
        {
          "internalType": "address",
          "name": "to",
          "type": "address"
        },
        {
          "internalType": "uint256",
          "name": "tokenId",
          "type": "uint256"
        }
      ],
      "name": "approve",
      "outputs": [],
      "stateMutability": "nonpayable",
      "type": "function"
    },
    {
      "inputs": [
        {
          "internalType": "address",
          "name": "owner",
          "type": "address"
        }
      ],
      "name": "balanceOf",
      "outputs": [
        {
          "internalType": "uint256",
          "name": "",
          "type": "uint256"
        }
      ],
      "stateMutability": "view",
      "type": "function"
    },
    {
      "inputs": [
        {
          "internalType": "uint256",
          "name": "tokenId",
          "type": "uint256"
        }
      ],
      "name": "getApproved",
      "outputs": [
        {
          "internalType": "address",
          "name": "",
          "type": "address"
        }
      ],
      "stateMutability": "view",
      "type": "function"
    },
    {
      "inputs": [
        {
          "internalType": "address",
          "name": "owner",
          "type": "address"
        },
        {
          "internalType": "address",
          "name": "operator",
          "type": "address"
        }
      ],
      "name": "isApprovedForAll",
      "outputs": [
        {
          "internalType": "bool",
          "name": "",
          "type": "bool"
        }
      ],
      "stateMutability": "view",
      "type": "function"
    },
    {
      "inputs": [
        {
          "internalType": "uint256",
          "name": "",
          "type": "uint256"
        }
      ],
      "name": "lastTransfer",
      "outputs": [
        {
          "internalType": "uint256",
          "name": "",
          "type": "uint256"
        }
      ],
      "stateMutability": "view",
      "type": "function"
    },
    {
      "inputs": [
        {
          "internalType": "address",
          "name": "team",
          "type": "address"
        },
        {
          "internalType": "string",
          "name": "metadataURI",
          "type": "string"
        }
      ],
      "name": "mintPlayer",
      "outputs": [],
      "stateMutability": "nonpayable",
      "type": "function"
    },
    {
      "inputs": [],
      "name": "name",
      "outputs": [
        {
          "internalType": "string",
          "name": "",
          "type": "string"
        }
      ],
      "stateMutability": "view",
      "type": "function"
    },
    {
      "inputs": [],
      "name": "nextPlayerId",
      "outputs": [
        {
          "internalType": "uint256",
          "name": "",
          "type": "uint256"
        }
      ],
      "stateMutability": "view",
      "type": "function"
    },
    {
      "inputs": [],
      "name": "owner",
      "outputs": [
        {
          "internalType": "address",
          "name": "",
          "type": "address"
        }
      ],
      "stateMutability": "view",
      "type": "function"
    },
    {
      "inputs": [
        {
          "internalType": "uint256",
          "name": "tokenId",
          "type": "uint256"
        }
      ],
      "name": "ownerOf",
      "outputs": [
        {
          "internalType": "address",
          "name": "",
          "type": "address"
        }
      ],
      "stateMutability": "view",
      "type": "function"
    },
    {
      "inputs": [
        {
          "internalType": "uint256",
          "name": "",
          "type": "uint256"
        }
      ],
      "name": "playerToTeam",
      "outputs": [
        {
          "internalType": "address",
          "name": "",
          "type": "address"
        }
      ],
      "stateMutability": "view",
      "type": "function"
    },
    {
      "inputs": [],
      "name": "renounceOwnership",
      "outputs": [],
      "stateMutability": "nonpayable",
      "type": "function"
    },
    {
      "inputs": [
        {
          "internalType": "address",
          "name": "from",
          "type": "address"
        },
        {
          "internalType": "address",
          "name": "to",
          "type": "address"
        },
        {
          "internalType": "uint256",
          "name": "tokenId",
          "type": "uint256"
        }
      ],
      "name": "safeTransferFrom",
      "outputs": [],
      "stateMutability": "nonpayable",
      "type": "function"
    },
    {
      "inputs": [
        {
          "internalType": "address",
          "name": "from",
          "type": "address"
        },
        {
          "internalType": "address",
          "name": "to",
          "type": "address"
        },
        {
          "internalType": "uint256",
          "name": "tokenId",
          "type": "uint256"
        },
        {
          "internalType": "bytes",
          "name": "data",
          "type": "bytes"
        }
      ],
      "name": "safeTransferFrom",
      "outputs": [],
      "stateMutability": "nonpayable",
      "type": "function"
    },
    {
      "inputs": [
        {
          "internalType": "address",
          "name": "operator",
          "type": "address"
        },
        {
          "internalType": "bool",
          "name": "approved",
          "type": "bool"
        }
      ],
      "name": "setApprovalForAll",
      "outputs": [],
      "stateMutability": "nonpayable",
      "type": "function"
    },
    {
      "inputs": [
        {
          "internalType": "bytes4",
          "name": "interfaceId",
          "type": "bytes4"
        }
      ],
      "name": "supportsInterface",
      "outputs": [
        {
          "internalType": "bool",
          "name": "",
          "type": "bool"
        }
      ],
      "stateMutability": "view",
      "type": "function"
    },
    {
      "inputs": [],
      "name": "symbol",
      "outputs": [
        {
          "internalType": "string",
          "name": "",
          "type": "string"
        }
      ],
      "stateMutability": "view",
      "type": "function"
    },
    {
      "inputs": [
        {
          "internalType": "uint256",
          "name": "tokenId",
          "type": "uint256"
        }
      ],
      "name": "tokenURI",
      "outputs": [
        {
          "internalType": "string",
          "name": "",
          "type": "string"
        }
      ],
      "stateMutability": "view",
      "type": "function"
    },
    {
      "inputs": [],
      "name": "transferCooldown",
      "outputs": [
        {
          "internalType": "uint256",
          "name": "",
          "type": "uint256"
        }
      ],
      "stateMutability": "view",
      "type": "function"
    },
    {
      "inputs": [
        {
          "internalType": "address",
          "name": "from",
          "type": "address"
        },
        {
          "internalType": "address",
          "name": "to",
          "type": "address"
        },
        {
          "internalType": "uint256",
          "name": "tokenId",
          "type": "uint256"
        }
      ],
      "name": "transferFrom",
      "outputs": [],
      "stateMutability": "nonpayable",
      "type": "function"
    },
    {
      "inputs": [
        {
          "internalType": "address",
          "name": "newOwner",
          "type": "address"
        }
      ],
      "name": "transferOwnership",
      "outputs": [],
      "stateMutability": "nonpayable",
      "type": "function"
    },
    {
      "inputs": [
        {
          "internalType": "uint256",
          "name": "playerId",
          "type": "uint256"
        },
        {
          "internalType": "address",
          "name": "newTeam",
          "type": "address"
        }
      ],
      "name": "transferPlayer",
      "outputs": [],
      "stateMutability": "nonpayable",
      "type": "function"
    }
  ],
  "bytecode": "0x6080604052610258600b553480156200001757600080fd5b506040518060400160405280601181526020017f466f6f7462616c6c506c617965724e46540000000000000000000000000000008152506040518060400160405280600581526020017f46504e4654000000000000000000000000000000000000000000000000000000815250816000908162000095919062000418565b508060019081620000a7919062000418565b505050620000ca620000be620000d060201b60201c565b620000d860201b60201c565b620004ff565b600033905090565b6000600760009054906101000a900473ffffffffffffffffffffffffffffffffffffffff16905081600760006101000a81548173ffffffffffffffffffffffffffffffffffffffff021916908373ffffffffffffffffffffffffffffffffffffffff1602179055508173ffffffffffffffffffffffffffffffffffffffff168173ffffffffffffffffffffffffffffffffffffffff167f8be0079c531659141344cd1fd0a4f28419497f9722a3daafe3b4186f6b6457e060405160405180910390a35050565b600081519050919050565b7f4e487b7100000000000000000000000000000000000000000000000000000000600052604160045260246000fd5b7f4e487b7100000000000000000000000000000000000000000000000000000000600052602260045260246000fd5b600060028204905060018216806200022057607f821691505b602082108103620002365762000235620001d8565b5b50919050565b60008190508160005260206000209050919050565b60006020601f8301049050919050565b600082821b905092915050565b600060088302620002a07fffffffffffffffffffffffffffffffffffffffffffffffffffffffffffffffff8262000261565b620002ac868362000261565b95508019841693508086168417925050509392505050565b6000819050919050565b6000819050919050565b6000620002f9620002f3620002ed84620002c4565b620002ce565b620002c4565b9050919050565b6000819050919050565b6200031583620002d8565b6200032d620003248262000300565b8484546200026e565b825550505050565b600090565b6200034462000335565b620003518184846200030a565b505050565b5b8181101562000379576200036d6000826200033a565b60018101905062000357565b5050565b601f821115620003c85762000392816200023c565b6200039d8462000251565b81016020851015620003ad578190505b620003c5620003bc8562000251565b83018262000356565b50505b505050565b600082821c905092915050565b6000620003ed60001984600802620003cd565b1980831691505092915050565b6000620004088383620003da565b9150826002028217905092915050565b62000423826200019e565b67ffffffffffffffff8111156200043f576200043e620001a9565b5b6200044b825462000207565b620004588282856200037d565b600060209050601f8311600181146200049057600084156200047b578287015190505b620004878582620003fa565b865550620004f7565b601f198416620004a0866200023c565b60005b82811015620004ca57848901518255600182019150602085019450602081019050620004a3565b86831015620004ea5784890151620004e6601f891682620003da565b8355505b6001600288020188555050505b505050505050565b61346c806200050f6000396000f3fe608060405234801561001057600080fd5b50600436106101425760003560e01c806370a08231116100b8578063a22cb4651161007c578063a22cb46514610377578063b88d4fde14610393578063be5d8e86146103af578063c87b56dd146103cb578063e985e9c5146103fb578063f2fde38b1461042b57610142565b806370a08231146102d1578063715018a6146103015780638da5cb5b1461030b57806395d89b41146103295780639a37dd981461034757610142565b806319863f351161010a57806319863f35146101fd57806323b872dd1461021b5780634139493e1461023757806342842e0e146102675780636352211e1461028357806368f16293146102b357610142565b806301ffc9a71461014757806306fdde0314610177578063081812fc14610195578063095ea7b3146101c5578063185c3424146101e1575b600080fd5b610161600480360381019061015c9190611ff1565b610447565b60405161016e9190612039565b60405180910390f35b61017f610529565b60405161018c91906120e4565b60405180910390f35b6101af60048036038101906101aa919061213c565b6105bb565b6040516101bc91906121aa565b60405180910390f35b6101df60048036038101906101da91906121f1565b610601565b005b6101fb60048036038101906101f69190612366565b610718565b005b6102056107e5565b60405161021291906123d1565b60405180910390f35b610235600480360381019061023091906123ec565b6107eb565b005b610251600480360381019061024c919061213c565b61084b565b60405161025e91906123d1565b60405180910390f35b610281600480360381019061027c91906123ec565b610863565b005b61029d6004803603810190610298919061213c565b610883565b6040516102aa91906121aa565b60405180910390f35b6102bb610909565b6040516102c891906123d1565b60405180910390f35b6102eb60048036038101906102e6919061243f565b61090f565b6040516102f891906123d1565b60405180910390f35b6103096109c6565b005b6103136109da565b60405161032091906121aa565b60405180910390f35b610331610a04565b60405161033e91906120e4565b60405180910390f35b610361600480360381019061035c919061213c565b610a96565b60405161036e91906121aa565b60405180910390f35b610391600480360381019061038c9190612498565b610ac9565b005b6103ad60048036038101906103a89190612579565b610adf565b005b6103c960048036038101906103c491906125fc565b610b41565b005b6103e560048036038101906103e0919061213c565b610cce565b6040516103f291906120e4565b60405180910390f35b6104156004803603810190610410919061263c565b610de0565b6040516104229190612039565b60405180910390f35b6104456004803603810190610440919061243f565b610e74565b005b60007f80ac58cd000000000000000000000000000000000000000000000000000000007bffffffffffffffffffffffffffffffffffffffffffffffffffffffff1916827bffffffffffffffffffffffffffffffffffffffffffffffffffffffff1916148061051257507f5b5e139f000000000000000000000000000000000000000000000000000000007bffffffffffffffffffffffffffffffffffffffffffffffffffffffff1916827bffffffffffffffffffffffffffffffffffffffffffffffffffffffff1916145b80610522575061052182610ef7565b5b9050919050565b606060008054610538906126ab565b80601f0160208091040260200160405190810160405280929190818152602001828054610564906126ab565b80156105b15780601f10610586576101008083540402835291602001916105b1565b820191906000526020600020905b81548152906001019060200180831161059457829003601f168201915b5050505050905090565b60006105c682610f61565b6004600083815260200190815260200160002060009054906101000a900473ffffffffffffffffffffffffffffffffffffffff169050919050565b600061060c82610883565b90508073ffffffffffffffffffffffffffffffffffffffff168373ffffffffffffffffffffffffffffffffffffffff160361067c576040517f08c379a00000000000000000000000000000000000000000000000000000000081526004016106739061274e565b60405180910390fd5b8073ffffffffffffffffffffffffffffffffffffffff1661069b610fac565b73ffffffffffffffffffffffffffffffffffffffff1614806106ca57506106c9816106c4610fac565b610de0565b5b610709576040517f08c379a0000000000000000000000000000000000000000000000000000000008152600401610700906127e0565b60405180910390fd5b6107138383610fb4565b505050565b61072061106d565b6000600854905061073183826110eb565b61073b8183611308565b826009600083815260200190815260200160002060006101000a81548173ffffffffffffffffffffffffffffffffffffffff021916908373ffffffffffffffffffffffffffffffffffffffff160217905550600860008154809291906107a09061282f565b91905055507f7f5d2fad8ca2ff3e5acbebabd4f2d3486b157284f261db10e87326fb829234968184846040516107d893929190612877565b60405180910390a1505050565b60085481565b6107fc6107f6610fac565b82611375565b61083b576040517f08c379a000000000000000000000000000000000000000000000000000000000815260040161083290612927565b60405180910390fd5b61084683838361140a565b505050565b600a6020528060005260406000206000915090505481565b61087e83838360405180602001604052806000815250610adf565b505050565b60008061088f83611703565b9050600073ffffffffffffffffffffffffffffffffffffffff168173ffffffffffffffffffffffffffffffffffffffff1603610900576040517f08c379a00000000000000000000000000000000000000000000000000000000081526004016108f790612993565b60405180910390fd5b80915050919050565b600b5481565b60008073ffffffffffffffffffffffffffffffffffffffff168273ffffffffffffffffffffffffffffffffffffffff160361097f576040517f08c379a000000000000000000000000000000000000000000000000000000000815260040161097690612a25565b60405180910390fd5b600360008373ffffffffffffffffffffffffffffffffffffffff1673ffffffffffffffffffffffffffffffffffffffff168152602001908152602001600020549050919050565b6109ce61106d565b6109d86000611740565b565b6000600760009054906101000a900473ffffffffffffffffffffffffffffffffffffffff16905090565b606060018054610a13906126ab565b80601f0160208091040260200160405190810160405280929190818152602001828054610a3f906126ab565b8015610a8c5780601f10610a6157610100808354040283529160200191610a8c565b820191906000526020600020905b815481529060010190602001808311610a6f57829003601f168201915b5050505050905090565b60096020528060005260406000206000915054906101000a900473ffffffffffffffffffffffffffffffffffffffff1681565b610adb610ad4610fac565b8383611806565b5050565b610af0610aea610fac565b83611375565b610b2f576040517f08c379a0000000000000000000000000000000000000000000000000000000008152600401610b2690612927565b60405180910390fd5b610b3b84848484611972565b50505050565b3373ffffffffffffffffffffffffffffffffffffffff16610b6183610883565b73ffffffffffffffffffffffffffffffffffffffff1614610bb7576040517f08c379a0000000000000000000000000000000000000000000000000000000008152600401610bae90612a91565b60405180910390fd5b600b54600a600084815260200190815260200160002054610bd89190612ab1565b421015610c1a576040517f08c379a0000000000000000000000000000000000000000000000000000000008152600401610c1190612b31565b60405180910390fd5b610c2533828461140a565b806009600084815260200190815260200160002060006101000a81548173ffffffffffffffffffffffffffffffffffffffff021916908373ffffffffffffffffffffffffffffffffffffffff16021790555042600a6000848152602001908152602001600020819055507fe999903ad05c1434c851d0f7c54392f4b10063d872dc284c971859ffd16078e1823383604051610cc293929190612b51565b60405180910390a15050565b6060610cd982610f61565b6000600660008481526020019081526020016000208054610cf9906126ab565b80601f0160208091040260200160405190810160405280929190818152602001828054610d25906126ab565b8015610d725780601f10610d4757610100808354040283529160200191610d72565b820191906000526020600020905b815481529060010190602001808311610d5557829003601f168201915b505050505090506000610d836119ce565b90506000815103610d98578192505050610ddb565b600082511115610dcd578082604051602001610db5929190612bc4565b60405160208183030381529060405292505050610ddb565b610dd6846119e5565b925050505b919050565b6000600560008473ffffffffffffffffffffffffffffffffffffffff1673ffffffffffffffffffffffffffffffffffffffff16815260200190815260200160002060008373ffffffffffffffffffffffffffffffffffffffff1673ffffffffffffffffffffffffffffffffffffffff16815260200190815260200160002060009054906101000a900460ff16905092915050565b610e7c61106d565b600073ffffffffffffffffffffffffffffffffffffffff168173ffffffffffffffffffffffffffffffffffffffff1603610eeb576040517f08c379a0000000000000000000000000000000000000000000000000000000008152600401610ee290612c5a565b60405180910390fd5b610ef481611740565b50565b60007f01ffc9a7000000000000000000000000000000000000000000000000000000007bffffffffffffffffffffffffffffffffffffffffffffffffffffffff1916827bffffffffffffffffffffffffffffffffffffffffffffffffffffffff1916149050919050565b610f6a81611a4d565b610fa9576040517f08c379a0000000000000000000000000000000000000000000000000000000008152600401610fa090612993565b60405180910390fd5b50565b600033905090565b816004600083815260200190815260200160002060006101000a81548173ffffffffffffffffffffffffffffffffffffffff021916908373ffffffffffffffffffffffffffffffffffffffff160217905550808273ffffffffffffffffffffffffffffffffffffffff1661102783610883565b73ffffffffffffffffffffffffffffffffffffffff167f8c5be1e5ebec7d5bd14f71427d1e84f3dd0314c0f7b2291e5b200ac8c7c3b92560405160405180910390a45050565b611075610fac565b73ffffffffffffffffffffffffffffffffffffffff166110936109da565b73ffffffffffffffffffffffffffffffffffffffff16146110e9576040517f08c379a00000000000000000000000000000000000000000000000000000000081526004016110e090612cc6565b60405180910390fd5b565b600073ffffffffffffffffffffffffffffffffffffffff168273ffffffffffffffffffffffffffffffffffffffff160361115a576040517f08c379a000000000000000000000000000000000000000000000000000000000815260040161115190612d32565b60405180910390fd5b61116381611a4d565b156111a3576040517f08c379a000000000000000000000000000000000000000000000000000000000815260040161119a90612d9e565b60405180910390fd5b6111b1600083836001611a8e565b6111ba81611a4d565b156111fa576040517f08c379a00000000000000000000000000000000000000000000000000000000081526004016111f190612d9e565b60405180910390fd5b6001600360008473ffffffffffffffffffffffffffffffffffffffff1673ffffffffffffffffffffffffffffffffffffffff16815260200190815260200160002060008282540192505081905550816002600083815260200190815260200160002060006101000a81548173ffffffffffffffffffffffffffffffffffffffff021916908373ffffffffffffffffffffffffffffffffffffffff160217905550808273ffffffffffffffffffffffffffffffffffffffff16600073ffffffffffffffffffffffffffffffffffffffff167fddf252ad1be2c89b69c2b068fc378daa952ba7f163c4a11628f55a4df523b3ef60405160405180910390a4611304600083836001611bb4565b5050565b61131182611a4d565b611350576040517f08c379a000000000000000000000000000000000000000000000000000000000815260040161134790612e30565b60405180910390fd5b806006600084815260200190815260200160002090816113709190612ffc565b505050565b60008061138183610883565b90508073ffffffffffffffffffffffffffffffffffffffff168473ffffffffffffffffffffffffffffffffffffffff1614806113c357506113c28185610de0565b5b8061140157508373ffffffffffffffffffffffffffffffffffffffff166113e9846105bb565b73ffffffffffffffffffffffffffffffffffffffff16145b91505092915050565b8273ffffffffffffffffffffffffffffffffffffffff1661142a82610883565b73ffffffffffffffffffffffffffffffffffffffff1614611480576040517f08c379a000000000000000000000000000000000000000000000000000000000815260040161147790613140565b60405180910390fd5b600073ffffffffffffffffffffffffffffffffffffffff168273ffffffffffffffffffffffffffffffffffffffff16036114ef576040517f08c379a00000000000000000000000000000000000000000000000000000000081526004016114e6906131d2565b60405180910390fd5b6114fc8383836001611a8e565b8273ffffffffffffffffffffffffffffffffffffffff1661151c82610883565b73ffffffffffffffffffffffffffffffffffffffff1614611572576040517f08c379a000000000000000000000000000000000000000000000000000000000815260040161156990613140565b60405180910390fd5b6004600082815260200190815260200160002060006101000a81549073ffffffffffffffffffffffffffffffffffffffff02191690556001600360008573ffffffffffffffffffffffffffffffffffffffff1673ffffffffffffffffffffffffffffffffffffffff168152602001908152602001600020600082825403925050819055506001600360008473ffffffffffffffffffffffffffffffffffffffff1673ffffffffffffffffffffffffffffffffffffffff16815260200190815260200160002060008282540192505081905550816002600083815260200190815260200160002060006101000a81548173ffffffffffffffffffffffffffffffffffffffff021916908373ffffffffffffffffffffffffffffffffffffffff160217905550808273ffffffffffffffffffffffffffffffffffffffff168473ffffffffffffffffffffffffffffffffffffffff167fddf252ad1be2c89b69c2b068fc378daa952ba7f163c4a11628f55a4df523b3ef60405160405180910390a46116fe8383836001611bb4565b505050565b60006002600083815260200190815260200160002060009054906101000a900473ffffffffffffffffffffffffffffffffffffffff169050919050565b6000600760009054906101000a900473ffffffffffffffffffffffffffffffffffffffff16905081600760006101000a81548173ffffffffffffffffffffffffffffffffffffffff021916908373ffffffffffffffffffffffffffffffffffffffff1602179055508173ffffffffffffffffffffffffffffffffffffffff168173ffffffffffffffffffffffffffffffffffffffff167f8be0079c531659141344cd1fd0a4f28419497f9722a3daafe3b4186f6b6457e060405160405180910390a35050565b8173ffffffffffffffffffffffffffffffffffffffff168373ffffffffffffffffffffffffffffffffffffffff1603611874576040517f08c379a000000000000000000000000000000000000000000000000000000000815260040161186b9061323e565b60405180910390fd5b80600560008573ffffffffffffffffffffffffffffffffffffffff1673ffffffffffffffffffffffffffffffffffffffff16815260200190815260200160002060008473ffffffffffffffffffffffffffffffffffffffff1673ffffffffffffffffffffffffffffffffffffffff16815260200190815260200160002060006101000a81548160ff0219169083151502179055508173ffffffffffffffffffffffffffffffffffffffff168373ffffffffffffffffffffffffffffffffffffffff167f17307eab39ab6107e8899845ad3d59bd9653f200f220920489ca2b5937696c31836040516119659190612039565b60405180910390a3505050565b61197d84848461140a565b61198984848484611bba565b6119c8576040517f08c379a00000000000000000000000000000000000000000000000000000000081526004016119bf906132d0565b60405180910390fd5b50505050565b606060405180602001604052806000815250905090565b60606119f082610f61565b60006119fa6119ce565b90506000815111611a1a5760405180602001604052806000815250611a45565b80611a2484611d41565b604051602001611a35929190612bc4565b6040516020818303038152906040525b915050919050565b60008073ffffffffffffffffffffffffffffffffffffffff16611a6f83611703565b73ffffffffffffffffffffffffffffffffffffffff1614159050919050565b6001811115611bae57600073ffffffffffffffffffffffffffffffffffffffff168473ffffffffffffffffffffffffffffffffffffffff1614611b225780600360008673ffffffffffffffffffffffffffffffffffffffff1673ffffffffffffffffffffffffffffffffffffffff1681526020019081526020016000206000828254611b1a91906132f0565b925050819055505b600073ffffffffffffffffffffffffffffffffffffffff168373ffffffffffffffffffffffffffffffffffffffff1614611bad5780600360008573ffffffffffffffffffffffffffffffffffffffff1673ffffffffffffffffffffffffffffffffffffffff1681526020019081526020016000206000828254611ba59190612ab1565b925050819055505b5b50505050565b50505050565b6000611bdb8473ffffffffffffffffffffffffffffffffffffffff16611e0f565b15611d34578373ffffffffffffffffffffffffffffffffffffffff1663150b7a02611c04610fac565b8786866040518563ffffffff1660e01b8152600401611c269493929190613379565b6020604051808303816000875af1925050508015611c6257506040513d601f19601f82011682018060405250810190611c5f91906133da565b60015b611ce4573d8060008114611c92576040519150601f19603f3d011682016040523d82523d6000602084013e611c97565b606091505b506000815103611cdc576040517f08c379a0000000000000000000000000000000000000000000000000000000008152600401611cd3906132d0565b60405180910390fd5b805181602001fd5b63150b7a0260e01b7bffffffffffffffffffffffffffffffffffffffffffffffffffffffff1916817bffffffffffffffffffffffffffffffffffffffffffffffffffffffff191614915050611d39565b600190505b949350505050565b606060006001611d5084611e32565b01905060008167ffffffffffffffff811115611d6f57611d6e61223b565b5b6040519080825280601f01601f191660200182016040528015611da15781602001600182028036833780820191505090505b509050600082602001820190505b600115611e04578080600190039150507f3031323334353637383961626364656600000000000000000000000000000000600a86061a8153600a8581611df857611df7613407565b5b04945060008503611daf575b819350505050919050565b6000808273ffffffffffffffffffffffffffffffffffffffff163b119050919050565b600080600090507a184f03e93ff9f4daa797ed6e38ed64bf6a1f0100000000000000008310611e90577a184f03e93ff9f4daa797ed6e38ed64bf6a1f0100000000000000008381611e8657611e85613407565b5b0492506040810190505b6d04ee2d6d415b85acef81000000008310611ecd576d04ee2d6d415b85acef81000000008381611ec357611ec2613407565b5b0492506020810190505b662386f26fc100008310611efc57662386f26fc100008381611ef257611ef1613407565b5b0492506010810190505b6305f5e1008310611f25576305f5e1008381611f1b57611f1a613407565b5b0492506008810190505b6127108310611f4a576127108381611f4057611f3f613407565b5b0492506004810190505b60648310611f6d5760648381611f6357611f62613407565b5b0492506002810190505b600a8310611f7c576001810190505b80915050919050565b6000604051905090565b600080fd5b600080fd5b60007fffffffff0000000000000000000000000000000000000000000000000000000082169050919050565b611fce81611f99565b8114611fd957600080fd5b50565b600081359050611feb81611fc5565b92915050565b60006020828403121561200757612006611f8f565b5b600061201584828501611fdc565b91505092915050565b60008115159050919050565b6120338161201e565b82525050565b600060208201905061204e600083018461202a565b92915050565b600081519050919050565b600082825260208201905092915050565b60005b8381101561208e578082015181840152602081019050612073565b60008484015250505050565b6000601f19601f8301169050919050565b60006120b682612054565b6120c0818561205f565b93506120d0818560208601612070565b6120d98161209a565b840191505092915050565b600060208201905081810360008301526120fe81846120ab565b905092915050565b6000819050919050565b61211981612106565b811461212457600080fd5b50565b60008135905061213681612110565b92915050565b60006020828403121561215257612151611f8f565b5b600061216084828501612127565b91505092915050565b600073ffffffffffffffffffffffffffffffffffffffff82169050919050565b600061219482612169565b9050919050565b6121a481612189565b82525050565b60006020820190506121bf600083018461219b565b92915050565b6121ce81612189565b81146121d957600080fd5b50565b6000813590506121eb816121c5565b92915050565b6000806040838503121561220857612207611f8f565b5b6000612216858286016121dc565b925050602061222785828601612127565b9150509250929050565b600080fd5b600080fd5b7f4e487b7100000000000000000000000000000000000000000000000000000000600052604160045260246000fd5b6122738261209a565b810181811067ffffffffffffffff821117156122925761229161223b565b5b80604052505050565b60006122a5611f85565b90506122b1828261226a565b919050565b600067ffffffffffffffff8211156122d1576122d061223b565b5b6122da8261209a565b9050602081019050919050565b82818337600083830152505050565b6000612309612304846122b6565b61229b565b90508281526020810184848401111561232557612324612236565b5b6123308482856122e7565b509392505050565b600082601f83011261234d5761234c612231565b5b813561235d8482602086016122f6565b91505092915050565b6000806040838503121561237d5761237c611f8f565b5b600061238b858286016121dc565b925050602083013567ffffffffffffffff8111156123ac576123ab611f94565b5b6123b885828601612338565b9150509250929050565b6123cb81612106565b82525050565b60006020820190506123e660008301846123c2565b92915050565b60008060006060848603121561240557612404611f8f565b5b6000612413868287016121dc565b9350506020612424868287016121dc565b925050604061243586828701612127565b9150509250925092565b60006020828403121561245557612454611f8f565b5b6000612463848285016121dc565b91505092915050565b6124758161201e565b811461248057600080fd5b50565b6000813590506124928161246c565b92915050565b600080604083850312156124af576124ae611f8f565b5b60006124bd858286016121dc565b92505060206124ce85828601612483565b9150509250929050565b600067ffffffffffffffff8211156124f3576124f261223b565b5b6124fc8261209a565b9050602081019050919050565b600061251c612517846124d8565b61229b565b90508281526020810184848401111561253857612537612236565b5b6125438482856122e7565b509392505050565b600082601f8301126125605761255f612231565b5b8135612570848260208601612509565b91505092915050565b6000806000806080858703121561259357612592611f8f565b5b60006125a1878288016121dc565b94505060206125b2878288016121dc565b93505060406125c387828801612127565b925050606085013567ffffffffffffffff8111156125e4576125e3611f94565b5b6125f08782880161254b565b91505092959194509250565b6000806040838503121561261357612612611f8f565b5b600061262185828601612127565b9250506020612632858286016121dc565b9150509250929050565b6000806040838503121561265357612652611f8f565b5b6000612661858286016121dc565b9250506020612672858286016121dc565b9150509250929050565b7f4e487b7100000000000000000000000000000000000000000000000000000000600052602260045260246000fd5b600060028204905060018216806126c357607f821691505b6020821081036126d6576126d561267c565b5b50919050565b7f4552433732313a20617070726f76616c20746f2063757272656e74206f776e6560008201527f7200000000000000000000000000000000000000000000000000000000000000602082015250565b600061273860218361205f565b9150612743826126dc565b604082019050919050565b600060208201905081810360008301526127678161272b565b9050919050565b7f4552433732313a20617070726f76652063616c6c6572206973206e6f7420746f60008201527f6b656e206f776e6572206f7220617070726f76656420666f7220616c6c000000602082015250565b60006127ca603d8361205f565b91506127d58261276e565b604082019050919050565b600060208201905081810360008301526127f9816127bd565b9050919050565b7f4e487b7100000000000000000000000000000000000000000000000000000000600052601160045260246000fd5b600061283a82612106565b91507fffffffffffffffffffffffffffffffffffffffffffffffffffffffffffffffff820361286c5761286b612800565b5b600182019050919050565b600060608201905061288c60008301866123c2565b612899602083018561219b565b81810360408301526128ab81846120ab565b9050949350505050565b7f4552433732313a2063616c6c6572206973206e6f7420746f6b656e206f776e6560008201527f72206f7220617070726f76656400000000000000000000000000000000000000602082015250565b6000612911602d8361205f565b915061291c826128b5565b604082019050919050565b6000602082019050818103600083015261294081612904565b9050919050565b7f4552433732313a20696e76616c696420746f6b656e2049440000000000000000600082015250565b600061297d60188361205f565b915061298882612947565b602082019050919050565b600060208201905081810360008301526129ac81612970565b9050919050565b7f4552433732313a2061646472657373207a65726f206973206e6f74206120766160008201527f6c6964206f776e65720000000000000000000000000000000000000000000000602082015250565b6000612a0f60298361205f565b9150612a1a826129b3565b604082019050919050565b60006020820190508181036000830152612a3e81612a02565b9050919050565b7f596f7520617265206e6f7420746865206f776e65720000000000000000000000600082015250565b6000612a7b60158361205f565b9150612a8682612a45565b602082019050919050565b60006020820190508181036000830152612aaa81612a6e565b9050919050565b6000612abc82612106565b9150612ac783612106565b9250828201905080821115612adf57612ade612800565b5b92915050565b7f436f6f6c646f776e206163746976650000000000000000000000000000000000600082015250565b6000612b1b600f8361205f565b9150612b2682612ae5565b602082019050919050565b60006020820190508181036000830152612b4a81612b0e565b9050919050565b6000606082019050612b6660008301866123c2565b612b73602083018561219b565b612b80604083018461219b565b949350505050565b600081905092915050565b6000612b9e82612054565b612ba88185612b88565b9350612bb8818560208601612070565b80840191505092915050565b6000612bd08285612b93565b9150612bdc8284612b93565b91508190509392505050565b7f4f776e61626c653a206e6577206f776e657220697320746865207a65726f206160008201527f6464726573730000000000000000000000000000000000000000000000000000602082015250565b6000612c4460268361205f565b9150612c4f82612be8565b604082019050919050565b60006020820190508181036000830152612c7381612c37565b9050919050565b7f4f776e61626c653a2063616c6c6572206973206e6f7420746865206f776e6572600082015250565b6000612cb060208361205f565b9150612cbb82612c7a565b602082019050919050565b60006020820190508181036000830152612cdf81612ca3565b9050919050565b7f4552433732313a206d696e7420746f20746865207a65726f2061646472657373600082015250565b6000612d1c60208361205f565b9150612d2782612ce6565b602082019050919050565b60006020820190508181036000830152612d4b81612d0f565b9050919050565b7f4552433732313a20746f6b656e20616c7265616479206d696e74656400000000600082015250565b6000612d88601c8361205f565b9150612d9382612d52565b602082019050919050565b60006020820190508181036000830152612db781612d7b565b9050919050565b7f45524337323155524953746f726167653a2055524920736574206f66206e6f6e60008201527f6578697374656e7420746f6b656e000000000000000000000000000000000000602082015250565b6000612e1a602e8361205f565b9150612e2582612dbe565b604082019050919050565b60006020820190508181036000830152612e4981612e0d565b9050919050565b60008190508160005260206000209050919050565b60006020601f8301049050919050565b600082821b905092915050565b600060088302612eb27fffffffffffffffffffffffffffffffffffffffffffffffffffffffffffffffff82612e75565b612ebc8683612e75565b95508019841693508086168417925050509392505050565b6000819050919050565b6000612ef9612ef4612eef84612106565b612ed4565b612106565b9050919050565b6000819050919050565b612f1383612ede565b612f27612f1f82612f00565b848454612e82565b825550505050565b600090565b612f3c612f2f565b612f47818484612f0a565b505050565b5b81811015612f6b57612f60600082612f34565b600181019050612f4d565b5050565b601f821115612fb057612f8181612e50565b612f8a84612e65565b81016020851015612f99578190505b612fad612fa585612e65565b830182612f4c565b50505b505050565b600082821c905092915050565b6000612fd360001984600802612fb5565b1980831691505092915050565b6000612fec8383612fc2565b9150826002028217905092915050565b61300582612054565b67ffffffffffffffff81111561301e5761301d61223b565b5b61302882546126ab565b613033828285612f6f565b600060209050601f8311600181146130665760008415613054578287015190505b61305e8582612fe0565b8655506130c6565b601f19841661307486612e50565b60005b8281101561309c57848901518255600182019150602085019450602081019050613077565b868310156130b957848901516130b5601f891682612fc2565b8355505b6001600288020188555050505b505050505050565b7f4552433732313a207472616e736665722066726f6d20696e636f72726563742060008201527f6f776e6572000000000000000000000000000000000000000000000000000000602082015250565b600061312a60258361205f565b9150613135826130ce565b604082019050919050565b600060208201905081810360008301526131598161311d565b9050919050565b7f4552433732313a207472616e7366657220746f20746865207a65726f2061646460008201527f7265737300000000000000000000000000000000000000000000000000000000602082015250565b60006131bc60248361205f565b91506131c782613160565b604082019050919050565b600060208201905081810360008301526131eb816131af565b9050919050565b7f4552433732313a20617070726f766520746f2063616c6c657200000000000000600082015250565b600061322860198361205f565b9150613233826131f2565b602082019050919050565b600060208201905081810360008301526132578161321b565b9050919050565b7f4552433732313a207472616e7366657220746f206e6f6e20455243373231526560008201527f63656976657220696d706c656d656e7465720000000000000000000000000000602082015250565b60006132ba60328361205f565b91506132c58261325e565b604082019050919050565b600060208201905081810360008301526132e9816132ad565b9050919050565b60006132fb82612106565b915061330683612106565b925082820390508181111561331e5761331d612800565b5b92915050565b600081519050919050565b600082825260208201905092915050565b600061334b82613324565b613355818561332f565b9350613365818560208601612070565b61336e8161209a565b840191505092915050565b600060808201905061338e600083018761219b565b61339b602083018661219b565b6133a860408301856123c2565b81810360608301526133ba8184613340565b905095945050505050565b6000815190506133d481611fc5565b92915050565b6000602082840312156133f0576133ef611f8f565b5b60006133fe848285016133c5565b91505092915050565b7f4e487b7100000000000000000000000000000000000000000000000000000000600052601260045260246000fdfea26469706673582212206483fe36306744af874c3669913734f9ba3e8b88a40a42c09994f580d532d89c64736f6c63430008130033",
  "linkReferences": {},
  "deployedLinkReferences": {}
}