{
  "_format": "hh-sol-artifact-1",
  "contractName": "PlayerNFT",
  "sourceName": "contracts/PlayerNFT.sol",
  "abi": [
    {
      "inputs": [
        {
          "internalType": "address",
          "name": "_footballTeamContract",
          "type": "address"
        }
      ],
      "stateMutability": "nonpayable",
      "type": "constructor"
    },
    {
      "anonymous": false,
      "inputs": [
        {
          "indexed": true,
          "internalType": "address",
          "name": "owner",
          "type": "address"
        },
        {
          "indexed": true,
          "internalType": "address",
          "name": "approved",
          "type": "address"
        },
        {
          "indexed": true,
          "internalType": "uint256",
          "name": "tokenId",
          "type": "uint256"
        }
      ],
      "name": "Approval",
      "type": "event"
    },
    {
      "anonymous": false,
      "inputs": [
        {
          "indexed": true,
          "internalType": "address",
          "name": "owner",
          "type": "address"
        },
        {
          "indexed": true,
          "internalType": "address",
          "name": "operator",
          "type": "address"
        },
        {
          "indexed": false,
          "internalType": "bool",
          "name": "approved",
          "type": "bool"
        }
      ],
      "name": "ApprovalForAll",
      "type": "event"
    },
    {
      "anonymous": false,
      "inputs": [
        {
          "indexed": true,
          "internalType": "address",
          "name": "previousOwner",
          "type": "address"
        },
        {
          "indexed": true,
          "internalType": "address",
          "name": "newOwner",
          "type": "address"
        }
      ],
      "name": "OwnershipTransferred",
      "type": "event"
    },
    {
      "anonymous": false,
      "inputs": [
        {
          "indexed": false,
          "internalType": "uint256",
          "name": "playerId",
          "type": "uint256"
        },
        {
          "indexed": false,
          "internalType": "address",
          "name": "team",
          "type": "address"
        },
        {
          "indexed": false,
          "internalType": "string",
          "name": "metadata",
          "type": "string"
        }
      ],
      "name": "PlayerMinted",
      "type": "event"
    },
    {
      "anonymous": false,
      "inputs": [
        {
          "indexed": false,
          "internalType": "uint256",
          "name": "playerId",
          "type": "uint256"
        },
        {
          "indexed": false,
          "internalType": "address",
          "name": "from",
          "type": "address"
        },
        {
          "indexed": false,
          "internalType": "address",
          "name": "to",
          "type": "address"
        }
      ],
      "name": "PlayerTransferred",
      "type": "event"
    },
    {
      "anonymous": false,
      "inputs": [
        {
          "indexed": true,
          "internalType": "address",
          "name": "from",
          "type": "address"
        },
        {
          "indexed": true,
          "internalType": "address",
          "name": "to",
          "type": "address"
        },
        {
          "indexed": true,
          "internalType": "uint256",
          "name": "tokenId",
          "type": "uint256"
        }
      ],
      "name": "Transfer",
      "type": "event"
    },
    {
      "inputs": [
        {
          "internalType": "address",
          "name": "to",
          "type": "address"
        },
        {
          "internalType": "uint256",
          "name": "tokenId",
          "type": "uint256"
        }
      ],
      "name": "approve",
      "outputs": [],
      "stateMutability": "nonpayable",
      "type": "function"
    },
    {
      "inputs": [
        {
          "internalType": "address",
          "name": "owner",
          "type": "address"
        }
      ],
      "name": "balanceOf",
      "outputs": [
        {
          "internalType": "uint256",
          "name": "",
          "type": "uint256"
        }
      ],
      "stateMutability": "view",
      "type": "function"
    },
    {
      "inputs": [],
      "name": "footballTeamContract",
      "outputs": [
        {
          "internalType": "contract FootballTeam",
          "name": "",
          "type": "address"
        }
      ],
      "stateMutability": "view",
      "type": "function"
    },
    {
      "inputs": [
        {
          "internalType": "uint256",
          "name": "tokenId",
          "type": "uint256"
        }
      ],
      "name": "getApproved",
      "outputs": [
        {
          "internalType": "address",
          "name": "",
          "type": "address"
        }
      ],
      "stateMutability": "view",
      "type": "function"
    },
    {
      "inputs": [
        {
          "internalType": "address",
          "name": "owner",
          "type": "address"
        },
        {
          "internalType": "address",
          "name": "operator",
          "type": "address"
        }
      ],
      "name": "isApprovedForAll",
      "outputs": [
        {
          "internalType": "bool",
          "name": "",
          "type": "bool"
        }
      ],
      "stateMutability": "view",
      "type": "function"
    },
    {
      "inputs": [
        {
          "internalType": "uint256",
          "name": "",
          "type": "uint256"
        }
      ],
      "name": "lastTransfer",
      "outputs": [
        {
          "internalType": "uint256",
          "name": "",
          "type": "uint256"
        }
      ],
      "stateMutability": "view",
      "type": "function"
    },
    {
      "inputs": [
        {
          "internalType": "address",
          "name": "team",
          "type": "address"
        },
        {
          "internalType": "string",
          "name": "metadataURI",
          "type": "string"
        }
      ],
      "name": "mintPlayer",
      "outputs": [],
      "stateMutability": "nonpayable",
      "type": "function"
    },
    {
      "inputs": [],
      "name": "name",
      "outputs": [
        {
          "internalType": "string",
          "name": "",
          "type": "string"
        }
      ],
      "stateMutability": "view",
      "type": "function"
    },
    {
      "inputs": [],
      "name": "nextPlayerId",
      "outputs": [
        {
          "internalType": "uint256",
          "name": "",
          "type": "uint256"
        }
      ],
      "stateMutability": "view",
      "type": "function"
    },
    {
      "inputs": [],
      "name": "owner",
      "outputs": [
        {
          "internalType": "address",
          "name": "",
          "type": "address"
        }
      ],
      "stateMutability": "view",
      "type": "function"
    },
    {
      "inputs": [
        {
          "internalType": "uint256",
          "name": "tokenId",
          "type": "uint256"
        }
      ],
      "name": "ownerOf",
      "outputs": [
        {
          "internalType": "address",
          "name": "",
          "type": "address"
        }
      ],
      "stateMutability": "view",
      "type": "function"
    },
    {
      "inputs": [
        {
          "internalType": "uint256",
          "name": "",
          "type": "uint256"
        }
      ],
      "name": "playerToTeam",
      "outputs": [
        {
          "internalType": "address",
          "name": "",
          "type": "address"
        }
      ],
      "stateMutability": "view",
      "type": "function"
    },
    {
      "inputs": [],
      "name": "renounceOwnership",
      "outputs": [],
      "stateMutability": "nonpayable",
      "type": "function"
    },
    {
      "inputs": [
        {
          "internalType": "address",
          "name": "from",
          "type": "address"
        },
        {
          "internalType": "address",
          "name": "to",
          "type": "address"
        },
        {
          "internalType": "uint256",
          "name": "tokenId",
          "type": "uint256"
        }
      ],
      "name": "safeTransferFrom",
      "outputs": [],
      "stateMutability": "nonpayable",
      "type": "function"
    },
    {
      "inputs": [
        {
          "internalType": "address",
          "name": "from",
          "type": "address"
        },
        {
          "internalType": "address",
          "name": "to",
          "type": "address"
        },
        {
          "internalType": "uint256",
          "name": "tokenId",
          "type": "uint256"
        },
        {
          "internalType": "bytes",
          "name": "data",
          "type": "bytes"
        }
      ],
      "name": "safeTransferFrom",
      "outputs": [],
      "stateMutability": "nonpayable",
      "type": "function"
    },
    {
      "inputs": [
        {
          "internalType": "address",
          "name": "operator",
          "type": "address"
        },
        {
          "internalType": "bool",
          "name": "approved",
          "type": "bool"
        }
      ],
      "name": "setApprovalForAll",
      "outputs": [],
      "stateMutability": "nonpayable",
      "type": "function"
    },
    {
      "inputs": [
        {
          "internalType": "bytes4",
          "name": "interfaceId",
          "type": "bytes4"
        }
      ],
      "name": "supportsInterface",
      "outputs": [
        {
          "internalType": "bool",
          "name": "",
          "type": "bool"
        }
      ],
      "stateMutability": "view",
      "type": "function"
    },
    {
      "inputs": [],
      "name": "symbol",
      "outputs": [
        {
          "internalType": "string",
          "name": "",
          "type": "string"
        }
      ],
      "stateMutability": "view",
      "type": "function"
    },
    {
      "inputs": [
        {
          "internalType": "uint256",
          "name": "tokenId",
          "type": "uint256"
        }
      ],
      "name": "tokenURI",
      "outputs": [
        {
          "internalType": "string",
          "name": "",
          "type": "string"
        }
      ],
      "stateMutability": "view",
      "type": "function"
    },
    {
      "inputs": [],
      "name": "transferCooldown",
      "outputs": [
        {
          "internalType": "uint256",
          "name": "",
          "type": "uint256"
        }
      ],
      "stateMutability": "view",
      "type": "function"
    },
    {
      "inputs": [
        {
          "internalType": "address",
          "name": "from",
          "type": "address"
        },
        {
          "internalType": "address",
          "name": "to",
          "type": "address"
        },
        {
          "internalType": "uint256",
          "name": "tokenId",
          "type": "uint256"
        }
      ],
      "name": "transferFrom",
      "outputs": [],
      "stateMutability": "nonpayable",
      "type": "function"
    },
    {
      "inputs": [
        {
          "internalType": "address",
          "name": "newOwner",
          "type": "address"
        }
      ],
      "name": "transferOwnership",
      "outputs": [],
      "stateMutability": "nonpayable",
      "type": "function"
    },
    {
      "inputs": [
        {
          "internalType": "uint256",
          "name": "playerId",
          "type": "uint256"
        },
        {
          "internalType": "address",
          "name": "newTeam",
          "type": "address"
        }
      ],
      "name": "transferPlayer",
      "outputs": [],
      "stateMutability": "nonpayable",
      "type": "function"
    }
  ],
  "bytecode": "0x6080604052610258600b553480156200001757600080fd5b50604051620040df380380620040df83398181016040528101906200003d91906200026f565b6040518060400160405280601181526020017f466f6f7462616c6c506c617965724e46540000000000000000000000000000008152506040518060400160405280600581526020017f46504e46540000000000000000000000000000000000000000000000000000008152508160009081620000ba91906200051b565b508060019081620000cc91906200051b565b505050620000ef620000e36200013760201b60201c565b6200013f60201b60201c565b80600c60006101000a81548173ffffffffffffffffffffffffffffffffffffffff021916908373ffffffffffffffffffffffffffffffffffffffff1602179055505062000602565b600033905090565b6000600760009054906101000a900473ffffffffffffffffffffffffffffffffffffffff16905081600760006101000a81548173ffffffffffffffffffffffffffffffffffffffff021916908373ffffffffffffffffffffffffffffffffffffffff1602179055508173ffffffffffffffffffffffffffffffffffffffff168173ffffffffffffffffffffffffffffffffffffffff167f8be0079c531659141344cd1fd0a4f28419497f9722a3daafe3b4186f6b6457e060405160405180910390a35050565b600080fd5b600073ffffffffffffffffffffffffffffffffffffffff82169050919050565b600062000237826200020a565b9050919050565b62000249816200022a565b81146200025557600080fd5b50565b60008151905062000269816200023e565b92915050565b60006020828403121562000288576200028762000205565b5b6000620002988482850162000258565b91505092915050565b600081519050919050565b7f4e487b7100000000000000000000000000000000000000000000000000000000600052604160045260246000fd5b7f4e487b7100000000000000000000000000000000000000000000000000000000600052602260045260246000fd5b600060028204905060018216806200032357607f821691505b602082108103620003395762000338620002db565b5b50919050565b60008190508160005260206000209050919050565b60006020601f8301049050919050565b600082821b905092915050565b600060088302620003a37fffffffffffffffffffffffffffffffffffffffffffffffffffffffffffffffff8262000364565b620003af868362000364565b95508019841693508086168417925050509392505050565b6000819050919050565b6000819050919050565b6000620003fc620003f6620003f084620003c7565b620003d1565b620003c7565b9050919050565b6000819050919050565b6200041883620003db565b62000430620004278262000403565b84845462000371565b825550505050565b600090565b6200044762000438565b620004548184846200040d565b505050565b5b818110156200047c57620004706000826200043d565b6001810190506200045a565b5050565b601f821115620004cb5762000495816200033f565b620004a08462000354565b81016020851015620004b0578190505b620004c8620004bf8562000354565b83018262000459565b50505b505050565b600082821c905092915050565b6000620004f060001984600802620004d0565b1980831691505092915050565b60006200050b8383620004dd565b9150826002028217905092915050565b6200052682620002a1565b67ffffffffffffffff811115620005425762000541620002ac565b5b6200054e82546200030a565b6200055b82828562000480565b600060209050601f8311600181146200059357600084156200057e578287015190505b6200058a8582620004fd565b865550620005fa565b601f198416620005a3866200033f565b60005b82811015620005cd57848901518255600182019150602085019450602081019050620005a6565b86831015620005ed5784890151620005e9601f891682620004dd565b8355505b6001600288020188555050505b505050505050565b613acd80620006126000396000f3fe608060405234801561001057600080fd5b506004361061014d5760003560e01c806368f16293116100c3578063a22cb4651161007c578063a22cb465146103a0578063b88d4fde146103bc578063be5d8e86146103d8578063c87b56dd146103f4578063e985e9c514610424578063f2fde38b146104545761014d565b806368f16293146102dc57806370a08231146102fa578063715018a61461032a5780638da5cb5b1461033457806395d89b41146103525780639a37dd98146103705761014d565b8063185c342411610115578063185c34241461020a57806319863f351461022657806323b872dd146102445780634139493e1461026057806342842e0e146102905780636352211e146102ac5761014d565b806301ffc9a71461015257806306c7d4f71461018257806306fdde03146101a0578063081812fc146101be578063095ea7b3146101ee575b600080fd5b61016c6004803603810190610167919061236c565b610470565b60405161017991906123b4565b60405180910390f35b61018a610552565b604051610197919061244e565b60405180910390f35b6101a8610578565b6040516101b591906124f9565b60405180910390f35b6101d860048036038101906101d39190612551565b61060a565b6040516101e5919061259f565b60405180910390f35b610208600480360381019061020391906125e6565b610650565b005b610224600480360381019061021f919061275b565b610767565b005b61022e610a49565b60405161023b91906127c6565b60405180910390f35b61025e600480360381019061025991906127e1565b610a4f565b005b61027a60048036038101906102759190612551565b610aaf565b60405161028791906127c6565b60405180910390f35b6102aa60048036038101906102a591906127e1565b610ac7565b005b6102c660048036038101906102c19190612551565b610ae7565b6040516102d3919061259f565b60405180910390f35b6102e4610b6d565b6040516102f191906127c6565b60405180910390f35b610314600480360381019061030f9190612834565b610b73565b60405161032191906127c6565b60405180910390f35b610332610c2a565b005b61033c610c3e565b604051610349919061259f565b60405180910390f35b61035a610c68565b60405161036791906124f9565b60405180910390f35b61038a60048036038101906103859190612551565b610cfa565b604051610397919061259f565b60405180910390f35b6103ba60048036038101906103b5919061288d565b610d2d565b005b6103d660048036038101906103d1919061296e565b610d43565b005b6103f260048036038101906103ed91906129f1565b610da5565b005b61040e60048036038101906104099190612551565b611049565b60405161041b91906124f9565b60405180910390f35b61043e60048036038101906104399190612a31565b61115b565b60405161044b91906123b4565b60405180910390f35b61046e60048036038101906104699190612834565b6111ef565b005b60007f80ac58cd000000000000000000000000000000000000000000000000000000007bffffffffffffffffffffffffffffffffffffffffffffffffffffffff1916827bffffffffffffffffffffffffffffffffffffffffffffffffffffffff1916148061053b57507f5b5e139f000000000000000000000000000000000000000000000000000000007bffffffffffffffffffffffffffffffffffffffffffffffffffffffff1916827bffffffffffffffffffffffffffffffffffffffffffffffffffffffff1916145b8061054b575061054a82611272565b5b9050919050565b600c60009054906101000a900473ffffffffffffffffffffffffffffffffffffffff1681565b60606000805461058790612aa0565b80601f01602080910402602001604051908101604052809291908181526020018280546105b390612aa0565b80156106005780601f106105d557610100808354040283529160200191610600565b820191906000526020600020905b8154815290600101906020018083116105e357829003601f168201915b5050505050905090565b6000610615826112dc565b6004600083815260200190815260200160002060009054906101000a900473ffffffffffffffffffffffffffffffffffffffff169050919050565b600061065b82610ae7565b90508073ffffffffffffffffffffffffffffffffffffffff168373ffffffffffffffffffffffffffffffffffffffff16036106cb576040517f08c379a00000000000000000000000000000000000000000000000000000000081526004016106c290612b43565b60405180910390fd5b8073ffffffffffffffffffffffffffffffffffffffff166106ea611327565b73ffffffffffffffffffffffffffffffffffffffff161480610719575061071881610713611327565b61115b565b5b610758576040517f08c379a000000000000000000000000000000000000000000000000000000000815260040161074f90612bd5565b60405180910390fd5b610762838361132f565b505050565b61076f6113e8565b600073ffffffffffffffffffffffffffffffffffffffff168273ffffffffffffffffffffffffffffffffffffffff16036107de576040517f08c379a00000000000000000000000000000000000000000000000000000000081526004016107d590612c41565b60405180910390fd5b6000600c60009054906101000a900473ffffffffffffffffffffffffffffffffffffffff1673ffffffffffffffffffffffffffffffffffffffff1663d80a25b9846040518263ffffffff1660e01b815260040161083b919061259f565b600060405180830381865afa158015610858573d6000803e3d6000fd5b505050506040513d6000823e3d601f19601f820116820180604052508101906108819190612cfb565b50915050600073ffffffffffffffffffffffffffffffffffffffff168173ffffffffffffffffffffffffffffffffffffffff16036108f4576040517f08c379a00000000000000000000000000000000000000000000000000000000081526004016108eb90612db6565b60405180910390fd5b600060085490506109058482611466565b61090f8184611683565b836009600083815260200190815260200160002060006101000a81548173ffffffffffffffffffffffffffffffffffffffff021916908373ffffffffffffffffffffffffffffffffffffffff1602179055506008600081548092919061097490612e05565b9190505550600c60009054906101000a900473ffffffffffffffffffffffffffffffffffffffff1673ffffffffffffffffffffffffffffffffffffffff16636439c3e585836040518363ffffffff1660e01b81526004016109d6929190612e4d565b600060405180830381600087803b1580156109f057600080fd5b505af1158015610a04573d6000803e3d6000fd5b505050507f7f5d2fad8ca2ff3e5acbebabd4f2d3486b157284f261db10e87326fb82923496818585604051610a3b93929190612e76565b60405180910390a150505050565b60085481565b610a60610a5a611327565b826116f0565b610a9f576040517f08c379a0000000000000000000000000000000000000000000000000000000008152600401610a9690612f26565b60405180910390fd5b610aaa838383611785565b505050565b600a6020528060005260406000206000915090505481565b610ae283838360405180602001604052806000815250610d43565b505050565b600080610af383611a7e565b9050600073ffffffffffffffffffffffffffffffffffffffff168173ffffffffffffffffffffffffffffffffffffffff1603610b64576040517f08c379a0000000000000000000000000000000000000000000000000000000008152600401610b5b90612f92565b60405180910390fd5b80915050919050565b600b5481565b60008073ffffffffffffffffffffffffffffffffffffffff168273ffffffffffffffffffffffffffffffffffffffff1603610be3576040517f08c379a0000000000000000000000000000000000000000000000000000000008152600401610bda90613024565b60405180910390fd5b600360008373ffffffffffffffffffffffffffffffffffffffff1673ffffffffffffffffffffffffffffffffffffffff168152602001908152602001600020549050919050565b610c326113e8565b610c3c6000611abb565b565b6000600760009054906101000a900473ffffffffffffffffffffffffffffffffffffffff16905090565b606060018054610c7790612aa0565b80601f0160208091040260200160405190810160405280929190818152602001828054610ca390612aa0565b8015610cf05780601f10610cc557610100808354040283529160200191610cf0565b820191906000526020600020905b815481529060010190602001808311610cd357829003601f168201915b5050505050905090565b60096020528060005260406000206000915054906101000a900473ffffffffffffffffffffffffffffffffffffffff1681565b610d3f610d38611327565b8383611b81565b5050565b610d54610d4e611327565b836116f0565b610d93576040517f08c379a0000000000000000000000000000000000000000000000000000000008152600401610d8a90612f26565b60405180910390fd5b610d9f84848484611ced565b50505050565b3373ffffffffffffffffffffffffffffffffffffffff16610dc583610ae7565b73ffffffffffffffffffffffffffffffffffffffff1614610e1b576040517f08c379a0000000000000000000000000000000000000000000000000000000008152600401610e1290613090565b60405180910390fd5b600b54600a600084815260200190815260200160002054610e3c91906130b0565b421015610e7e576040517f08c379a0000000000000000000000000000000000000000000000000000000008152600401610e7590613130565b60405180910390fd5b6000600c60009054906101000a900473ffffffffffffffffffffffffffffffffffffffff1673ffffffffffffffffffffffffffffffffffffffff1663d80a25b9836040518263ffffffff1660e01b8152600401610edb919061259f565b600060405180830381865afa158015610ef8573d6000803e3d6000fd5b505050506040513d6000823e3d601f19601f82011682018060405250810190610f219190612cfb565b50915050600073ffffffffffffffffffffffffffffffffffffffff168173ffffffffffffffffffffffffffffffffffffffff1603610f94576040517f08c379a0000000000000000000000000000000000000000000000000000000008152600401610f8b9061319c565b60405180910390fd5b610f9f338385611785565b816009600085815260200190815260200160002060006101000a81548173ffffffffffffffffffffffffffffffffffffffff021916908373ffffffffffffffffffffffffffffffffffffffff16021790555042600a6000858152602001908152602001600020819055507fe999903ad05c1434c851d0f7c54392f4b10063d872dc284c971859ffd16078e183338460405161103c939291906131bc565b60405180910390a1505050565b6060611054826112dc565b600060066000848152602001908152602001600020805461107490612aa0565b80601f01602080910402602001604051908101604052809291908181526020018280546110a090612aa0565b80156110ed5780601f106110c2576101008083540402835291602001916110ed565b820191906000526020600020905b8154815290600101906020018083116110d057829003601f168201915b5050505050905060006110fe611d49565b90506000815103611113578192505050611156565b60008251111561114857808260405160200161113092919061322f565b60405160208183030381529060405292505050611156565b61115184611d60565b925050505b919050565b6000600560008473ffffffffffffffffffffffffffffffffffffffff1673ffffffffffffffffffffffffffffffffffffffff16815260200190815260200160002060008373ffffffffffffffffffffffffffffffffffffffff1673ffffffffffffffffffffffffffffffffffffffff16815260200190815260200160002060009054906101000a900460ff16905092915050565b6111f76113e8565b600073ffffffffffffffffffffffffffffffffffffffff168173ffffffffffffffffffffffffffffffffffffffff1603611266576040517f08c379a000000000000000000000000000000000000000000000000000000000815260040161125d906132c5565b60405180910390fd5b61126f81611abb565b50565b60007f01ffc9a7000000000000000000000000000000000000000000000000000000007bffffffffffffffffffffffffffffffffffffffffffffffffffffffff1916827bffffffffffffffffffffffffffffffffffffffffffffffffffffffff1916149050919050565b6112e581611dc8565b611324576040517f08c379a000000000000000000000000000000000000000000000000000000000815260040161131b90612f92565b60405180910390fd5b50565b600033905090565b816004600083815260200190815260200160002060006101000a81548173ffffffffffffffffffffffffffffffffffffffff021916908373ffffffffffffffffffffffffffffffffffffffff160217905550808273ffffffffffffffffffffffffffffffffffffffff166113a283610ae7565b73ffffffffffffffffffffffffffffffffffffffff167f8c5be1e5ebec7d5bd14f71427d1e84f3dd0314c0f7b2291e5b200ac8c7c3b92560405160405180910390a45050565b6113f0611327565b73ffffffffffffffffffffffffffffffffffffffff1661140e610c3e565b73ffffffffffffffffffffffffffffffffffffffff1614611464576040517f08c379a000000000000000000000000000000000000000000000000000000000815260040161145b90613331565b60405180910390fd5b565b600073ffffffffffffffffffffffffffffffffffffffff168273ffffffffffffffffffffffffffffffffffffffff16036114d5576040517f08c379a00000000000000000000000000000000000000000000000000000000081526004016114cc9061339d565b60405180910390fd5b6114de81611dc8565b1561151e576040517f08c379a000000000000000000000000000000000000000000000000000000000815260040161151590613409565b60405180910390fd5b61152c600083836001611e09565b61153581611dc8565b15611575576040517f08c379a000000000000000000000000000000000000000000000000000000000815260040161156c90613409565b60405180910390fd5b6001600360008473ffffffffffffffffffffffffffffffffffffffff1673ffffffffffffffffffffffffffffffffffffffff16815260200190815260200160002060008282540192505081905550816002600083815260200190815260200160002060006101000a81548173ffffffffffffffffffffffffffffffffffffffff021916908373ffffffffffffffffffffffffffffffffffffffff160217905550808273ffffffffffffffffffffffffffffffffffffffff16600073ffffffffffffffffffffffffffffffffffffffff167fddf252ad1be2c89b69c2b068fc378daa952ba7f163c4a11628f55a4df523b3ef60405160405180910390a461167f600083836001611f2f565b5050565b61168c82611dc8565b6116cb576040517f08c379a00000000000000000000000000000000000000000000000000000000081526004016116c29061349b565b60405180910390fd5b806006600084815260200190815260200160002090816116eb919061365d565b505050565b6000806116fc83610ae7565b90508073ffffffffffffffffffffffffffffffffffffffff168473ffffffffffffffffffffffffffffffffffffffff16148061173e575061173d818561115b565b5b8061177c57508373ffffffffffffffffffffffffffffffffffffffff166117648461060a565b73ffffffffffffffffffffffffffffffffffffffff16145b91505092915050565b8273ffffffffffffffffffffffffffffffffffffffff166117a582610ae7565b73ffffffffffffffffffffffffffffffffffffffff16146117fb576040517f08c379a00000000000000000000000000000000000000000000000000000000081526004016117f2906137a1565b60405180910390fd5b600073ffffffffffffffffffffffffffffffffffffffff168273ffffffffffffffffffffffffffffffffffffffff160361186a576040517f08c379a000000000000000000000000000000000000000000000000000000000815260040161186190613833565b60405180910390fd5b6118778383836001611e09565b8273ffffffffffffffffffffffffffffffffffffffff1661189782610ae7565b73ffffffffffffffffffffffffffffffffffffffff16146118ed576040517f08c379a00000000000000000000000000000000000000000000000000000000081526004016118e4906137a1565b60405180910390fd5b6004600082815260200190815260200160002060006101000a81549073ffffffffffffffffffffffffffffffffffffffff02191690556001600360008573ffffffffffffffffffffffffffffffffffffffff1673ffffffffffffffffffffffffffffffffffffffff168152602001908152602001600020600082825403925050819055506001600360008473ffffffffffffffffffffffffffffffffffffffff1673ffffffffffffffffffffffffffffffffffffffff16815260200190815260200160002060008282540192505081905550816002600083815260200190815260200160002060006101000a81548173ffffffffffffffffffffffffffffffffffffffff021916908373ffffffffffffffffffffffffffffffffffffffff160217905550808273ffffffffffffffffffffffffffffffffffffffff168473ffffffffffffffffffffffffffffffffffffffff167fddf252ad1be2c89b69c2b068fc378daa952ba7f163c4a11628f55a4df523b3ef60405160405180910390a4611a798383836001611f2f565b505050565b60006002600083815260200190815260200160002060009054906101000a900473ffffffffffffffffffffffffffffffffffffffff169050919050565b6000600760009054906101000a900473ffffffffffffffffffffffffffffffffffffffff16905081600760006101000a81548173ffffffffffffffffffffffffffffffffffffffff021916908373ffffffffffffffffffffffffffffffffffffffff1602179055508173ffffffffffffffffffffffffffffffffffffffff168173ffffffffffffffffffffffffffffffffffffffff167f8be0079c531659141344cd1fd0a4f28419497f9722a3daafe3b4186f6b6457e060405160405180910390a35050565b8173ffffffffffffffffffffffffffffffffffffffff168373ffffffffffffffffffffffffffffffffffffffff1603611bef576040517f08c379a0000000000000000000000000000000000000000000000000000000008152600401611be69061389f565b60405180910390fd5b80600560008573ffffffffffffffffffffffffffffffffffffffff1673ffffffffffffffffffffffffffffffffffffffff16815260200190815260200160002060008473ffffffffffffffffffffffffffffffffffffffff1673ffffffffffffffffffffffffffffffffffffffff16815260200190815260200160002060006101000a81548160ff0219169083151502179055508173ffffffffffffffffffffffffffffffffffffffff168373ffffffffffffffffffffffffffffffffffffffff167f17307eab39ab6107e8899845ad3d59bd9653f200f220920489ca2b5937696c3183604051611ce091906123b4565b60405180910390a3505050565b611cf8848484611785565b611d0484848484611f35565b611d43576040517f08c379a0000000000000000000000000000000000000000000000000000000008152600401611d3a90613931565b60405180910390fd5b50505050565b606060405180602001604052806000815250905090565b6060611d6b826112dc565b6000611d75611d49565b90506000815111611d955760405180602001604052806000815250611dc0565b80611d9f846120bc565b604051602001611db092919061322f565b6040516020818303038152906040525b915050919050565b60008073ffffffffffffffffffffffffffffffffffffffff16611dea83611a7e565b73ffffffffffffffffffffffffffffffffffffffff1614159050919050565b6001811115611f2957600073ffffffffffffffffffffffffffffffffffffffff168473ffffffffffffffffffffffffffffffffffffffff1614611e9d5780600360008673ffffffffffffffffffffffffffffffffffffffff1673ffffffffffffffffffffffffffffffffffffffff1681526020019081526020016000206000828254611e959190613951565b925050819055505b600073ffffffffffffffffffffffffffffffffffffffff168373ffffffffffffffffffffffffffffffffffffffff1614611f285780600360008573ffffffffffffffffffffffffffffffffffffffff1673ffffffffffffffffffffffffffffffffffffffff1681526020019081526020016000206000828254611f2091906130b0565b925050819055505b5b50505050565b50505050565b6000611f568473ffffffffffffffffffffffffffffffffffffffff1661218a565b156120af578373ffffffffffffffffffffffffffffffffffffffff1663150b7a02611f7f611327565b8786866040518563ffffffff1660e01b8152600401611fa194939291906139da565b6020604051808303816000875af1925050508015611fdd57506040513d601f19601f82011682018060405250810190611fda9190613a3b565b60015b61205f573d806000811461200d576040519150601f19603f3d011682016040523d82523d6000602084013e612012565b606091505b506000815103612057576040517f08c379a000000000000000000000000000000000000000000000000000000000815260040161204e90613931565b60405180910390fd5b805181602001fd5b63150b7a0260e01b7bffffffffffffffffffffffffffffffffffffffffffffffffffffffff1916817bffffffffffffffffffffffffffffffffffffffffffffffffffffffff1916149150506120b4565b600190505b949350505050565b6060600060016120cb846121ad565b01905060008167ffffffffffffffff8111156120ea576120e9612630565b5b6040519080825280601f01601f19166020018201604052801561211c5781602001600182028036833780820191505090505b509050600082602001820190505b60011561217f578080600190039150507f3031323334353637383961626364656600000000000000000000000000000000600a86061a8153600a858161217357612172613a68565b5b0494506000850361212a575b819350505050919050565b6000808273ffffffffffffffffffffffffffffffffffffffff163b119050919050565b600080600090507a184f03e93ff9f4daa797ed6e38ed64bf6a1f010000000000000000831061220b577a184f03e93ff9f4daa797ed6e38ed64bf6a1f010000000000000000838161220157612200613a68565b5b0492506040810190505b6d04ee2d6d415b85acef81000000008310612248576d04ee2d6d415b85acef8100000000838161223e5761223d613a68565b5b0492506020810190505b662386f26fc10000831061227757662386f26fc10000838161226d5761226c613a68565b5b0492506010810190505b6305f5e10083106122a0576305f5e100838161229657612295613a68565b5b0492506008810190505b61271083106122c55761271083816122bb576122ba613a68565b5b0492506004810190505b606483106122e857606483816122de576122dd613a68565b5b0492506002810190505b600a83106122f7576001810190505b80915050919050565b6000604051905090565b600080fd5b600080fd5b60007fffffffff0000000000000000000000000000000000000000000000000000000082169050919050565b61234981612314565b811461235457600080fd5b50565b60008135905061236681612340565b92915050565b6000602082840312156123825761238161230a565b5b600061239084828501612357565b91505092915050565b60008115159050919050565b6123ae81612399565b82525050565b60006020820190506123c960008301846123a5565b92915050565b600073ffffffffffffffffffffffffffffffffffffffff82169050919050565b6000819050919050565b600061241461240f61240a846123cf565b6123ef565b6123cf565b9050919050565b6000612426826123f9565b9050919050565b60006124388261241b565b9050919050565b6124488161242d565b82525050565b6000602082019050612463600083018461243f565b92915050565b600081519050919050565b600082825260208201905092915050565b60005b838110156124a3578082015181840152602081019050612488565b60008484015250505050565b6000601f19601f8301169050919050565b60006124cb82612469565b6124d58185612474565b93506124e5818560208601612485565b6124ee816124af565b840191505092915050565b6000602082019050818103600083015261251381846124c0565b905092915050565b6000819050919050565b61252e8161251b565b811461253957600080fd5b50565b60008135905061254b81612525565b92915050565b6000602082840312156125675761256661230a565b5b60006125758482850161253c565b91505092915050565b6000612589826123cf565b9050919050565b6125998161257e565b82525050565b60006020820190506125b46000830184612590565b92915050565b6125c38161257e565b81146125ce57600080fd5b50565b6000813590506125e0816125ba565b92915050565b600080604083850312156125fd576125fc61230a565b5b600061260b858286016125d1565b925050602061261c8582860161253c565b9150509250929050565b600080fd5b600080fd5b7f4e487b7100000000000000000000000000000000000000000000000000000000600052604160045260246000fd5b612668826124af565b810181811067ffffffffffffffff8211171561268757612686612630565b5b80604052505050565b600061269a612300565b90506126a6828261265f565b919050565b600067ffffffffffffffff8211156126c6576126c5612630565b5b6126cf826124af565b9050602081019050919050565b82818337600083830152505050565b60006126fe6126f9846126ab565b612690565b90508281526020810184848401111561271a5761271961262b565b5b6127258482856126dc565b509392505050565b600082601f83011261274257612741612626565b5b81356127528482602086016126eb565b91505092915050565b600080604083850312156127725761277161230a565b5b6000612780858286016125d1565b925050602083013567ffffffffffffffff8111156127a1576127a061230f565b5b6127ad8582860161272d565b9150509250929050565b6127c08161251b565b82525050565b60006020820190506127db60008301846127b7565b92915050565b6000806000606084860312156127fa576127f961230a565b5b6000612808868287016125d1565b9350506020612819868287016125d1565b925050604061282a8682870161253c565b9150509250925092565b60006020828403121561284a5761284961230a565b5b6000612858848285016125d1565b91505092915050565b61286a81612399565b811461287557600080fd5b50565b60008135905061288781612861565b92915050565b600080604083850312156128a4576128a361230a565b5b60006128b2858286016125d1565b92505060206128c385828601612878565b9150509250929050565b600067ffffffffffffffff8211156128e8576128e7612630565b5b6128f1826124af565b9050602081019050919050565b600061291161290c846128cd565b612690565b90508281526020810184848401111561292d5761292c61262b565b5b6129388482856126dc565b509392505050565b600082601f83011261295557612954612626565b5b81356129658482602086016128fe565b91505092915050565b600080600080608085870312156129885761298761230a565b5b6000612996878288016125d1565b94505060206129a7878288016125d1565b93505060406129b88782880161253c565b925050606085013567ffffffffffffffff8111156129d9576129d861230f565b5b6129e587828801612940565b91505092959194509250565b60008060408385031215612a0857612a0761230a565b5b6000612a168582860161253c565b9250506020612a27858286016125d1565b9150509250929050565b60008060408385031215612a4857612a4761230a565b5b6000612a56858286016125d1565b9250506020612a67858286016125d1565b9150509250929050565b7f4e487b7100000000000000000000000000000000000000000000000000000000600052602260045260246000fd5b60006002820490506001821680612ab857607f821691505b602082108103612acb57612aca612a71565b5b50919050565b7f4552433732313a20617070726f76616c20746f2063757272656e74206f776e6560008201527f7200000000000000000000000000000000000000000000000000000000000000602082015250565b6000612b2d602183612474565b9150612b3882612ad1565b604082019050919050565b60006020820190508181036000830152612b5c81612b20565b9050919050565b7f4552433732313a20617070726f76652063616c6c6572206973206e6f7420746f60008201527f6b656e206f776e6572206f7220617070726f76656420666f7220616c6c000000602082015250565b6000612bbf603d83612474565b9150612bca82612b63565b604082019050919050565b60006020820190508181036000830152612bee81612bb2565b9050919050565b7f496e76616c6964207465616d2061646472657373000000000000000000000000600082015250565b6000612c2b601483612474565b9150612c3682612bf5565b602082019050919050565b60006020820190508181036000830152612c5a81612c1e565b9050919050565b6000612c74612c6f846126ab565b612690565b905082815260208101848484011115612c9057612c8f61262b565b5b612c9b848285612485565b509392505050565b600082601f830112612cb857612cb7612626565b5b8151612cc8848260208601612c61565b91505092915050565b600081519050612ce0816125ba565b92915050565b600081519050612cf581612525565b92915050565b600080600060608486031215612d1457612d1361230a565b5b600084015167ffffffffffffffff811115612d3257612d3161230f565b5b612d3e86828701612ca3565b9350506020612d4f86828701612cd1565b9250506040612d6086828701612ce6565b9150509250925092565b7f5465616d20646f6573206e6f7420657869737400000000000000000000000000600082015250565b6000612da0601383612474565b9150612dab82612d6a565b602082019050919050565b60006020820190508181036000830152612dcf81612d93565b9050919050565b7f4e487b7100000000000000000000000000000000000000000000000000000000600052601160045260246000fd5b6000612e108261251b565b91507fffffffffffffffffffffffffffffffffffffffffffffffffffffffffffffffff8203612e4257612e41612dd6565b5b600182019050919050565b6000604082019050612e626000830185612590565b612e6f60208301846127b7565b9392505050565b6000606082019050612e8b60008301866127b7565b612e986020830185612590565b8181036040830152612eaa81846124c0565b9050949350505050565b7f4552433732313a2063616c6c6572206973206e6f7420746f6b656e206f776e6560008201527f72206f7220617070726f76656400000000000000000000000000000000000000602082015250565b6000612f10602d83612474565b9150612f1b82612eb4565b604082019050919050565b60006020820190508181036000830152612f3f81612f03565b9050919050565b7f4552433732313a20696e76616c696420746f6b656e2049440000000000000000600082015250565b6000612f7c601883612474565b9150612f8782612f46565b602082019050919050565b60006020820190508181036000830152612fab81612f6f565b9050919050565b7f4552433732313a2061646472657373207a65726f206973206e6f74206120766160008201527f6c6964206f776e65720000000000000000000000000000000000000000000000602082015250565b600061300e602983612474565b915061301982612fb2565b604082019050919050565b6000602082019050818103600083015261303d81613001565b9050919050565b7f596f7520617265206e6f7420746865206f776e65720000000000000000000000600082015250565b600061307a601583612474565b915061308582613044565b602082019050919050565b600060208201905081810360008301526130a98161306d565b9050919050565b60006130bb8261251b565b91506130c68361251b565b92508282019050808211156130de576130dd612dd6565b5b92915050565b7f436f6f6c646f776e206163746976650000000000000000000000000000000000600082015250565b600061311a600f83612474565b9150613125826130e4565b602082019050919050565b600060208201905081810360008301526131498161310d565b9050919050565b7f4e6577207465616d20646f6573206e6f74206578697374000000000000000000600082015250565b6000613186601783612474565b915061319182613150565b602082019050919050565b600060208201905081810360008301526131b581613179565b9050919050565b60006060820190506131d160008301866127b7565b6131de6020830185612590565b6131eb6040830184612590565b949350505050565b600081905092915050565b600061320982612469565b61321381856131f3565b9350613223818560208601612485565b80840191505092915050565b600061323b82856131fe565b915061324782846131fe565b91508190509392505050565b7f4f776e61626c653a206e6577206f776e657220697320746865207a65726f206160008201527f6464726573730000000000000000000000000000000000000000000000000000602082015250565b60006132af602683612474565b91506132ba82613253565b604082019050919050565b600060208201905081810360008301526132de816132a2565b9050919050565b7f4f776e61626c653a2063616c6c6572206973206e6f7420746865206f776e6572600082015250565b600061331b602083612474565b9150613326826132e5565b602082019050919050565b6000602082019050818103600083015261334a8161330e565b9050919050565b7f4552433732313a206d696e7420746f20746865207a65726f2061646472657373600082015250565b6000613387602083612474565b915061339282613351565b602082019050919050565b600060208201905081810360008301526133b68161337a565b9050919050565b7f4552433732313a20746f6b656e20616c7265616479206d696e74656400000000600082015250565b60006133f3601c83612474565b91506133fe826133bd565b602082019050919050565b60006020820190508181036000830152613422816133e6565b9050919050565b7f45524337323155524953746f726167653a2055524920736574206f66206e6f6e60008201527f6578697374656e7420746f6b656e000000000000000000000000000000000000602082015250565b6000613485602e83612474565b915061349082613429565b604082019050919050565b600060208201905081810360008301526134b481613478565b9050919050565b60008190508160005260206000209050919050565b60006020601f8301049050919050565b600082821b905092915050565b60006008830261351d7fffffffffffffffffffffffffffffffffffffffffffffffffffffffffffffffff826134e0565b61352786836134e0565b95508019841693508086168417925050509392505050565b600061355a6135556135508461251b565b6123ef565b61251b565b9050919050565b6000819050919050565b6135748361353f565b61358861358082613561565b8484546134ed565b825550505050565b600090565b61359d613590565b6135a881848461356b565b505050565b5b818110156135cc576135c1600082613595565b6001810190506135ae565b5050565b601f821115613611576135e2816134bb565b6135eb846134d0565b810160208510156135fa578190505b61360e613606856134d0565b8301826135ad565b50505b505050565b600082821c905092915050565b600061363460001984600802613616565b1980831691505092915050565b600061364d8383613623565b9150826002028217905092915050565b61366682612469565b67ffffffffffffffff81111561367f5761367e612630565b5b6136898254612aa0565b6136948282856135d0565b600060209050601f8311600181146136c757600084156136b5578287015190505b6136bf8582613641565b865550613727565b601f1984166136d5866134bb565b60005b828110156136fd578489015182556001820191506020850194506020810190506136d8565b8683101561371a5784890151613716601f891682613623565b8355505b6001600288020188555050505b505050505050565b7f4552433732313a207472616e736665722066726f6d20696e636f72726563742060008201527f6f776e6572000000000000000000000000000000000000000000000000000000602082015250565b600061378b602583612474565b91506137968261372f565b604082019050919050565b600060208201905081810360008301526137ba8161377e565b9050919050565b7f4552433732313a207472616e7366657220746f20746865207a65726f2061646460008201527f7265737300000000000000000000000000000000000000000000000000000000602082015250565b600061381d602483612474565b9150613828826137c1565b604082019050919050565b6000602082019050818103600083015261384c81613810565b9050919050565b7f4552433732313a20617070726f766520746f2063616c6c657200000000000000600082015250565b6000613889601983612474565b915061389482613853565b602082019050919050565b600060208201905081810360008301526138b88161387c565b9050919050565b7f4552433732313a207472616e7366657220746f206e6f6e20455243373231526560008201527f63656976657220696d706c656d656e7465720000000000000000000000000000602082015250565b600061391b603283612474565b9150613926826138bf565b604082019050919050565b6000602082019050818103600083015261394a8161390e565b9050919050565b600061395c8261251b565b91506139678361251b565b925082820390508181111561397f5761397e612dd6565b5b92915050565b600081519050919050565b600082825260208201905092915050565b60006139ac82613985565b6139b68185613990565b93506139c6818560208601612485565b6139cf816124af565b840191505092915050565b60006080820190506139ef6000830187612590565b6139fc6020830186612590565b613a0960408301856127b7565b8181036060830152613a1b81846139a1565b905095945050505050565b600081519050613a3581612340565b92915050565b600060208284031215613a5157613a5061230a565b5b6000613a5f84828501613a26565b91505092915050565b7f4e487b7100000000000000000000000000000000000000000000000000000000600052601260045260246000fdfea264697066735822122036dbe079e93d04269c87f756c5b6fa0f125784ceb5b438fd540d7e0fed7554f464736f6c63430008130033",
  "linkReferences": {},
  "deployedLinkReferences": {}
}