{
  "_format": "hh-sol-artifact-1",
  "contractName": "SimplePlayerCard",
  "sourceName": "contracts/SimplePlayerCard.sol",
  "abi": [
    {
      "inputs": [],
      "stateMutability": "nonpayable",
      "type": "constructor"
    },
    {
      "anonymous": false,
      "inputs": [
        {
          "indexed": true,
          "internalType": "address",
          "name": "owner",
          "type": "address"
        },
        {
          "indexed": true,
          "internalType": "address",
          "name": "approved",
          "type": "address"
        },
        {
          "indexed": true,
          "internalType": "uint256",
          "name": "tokenId",
          "type": "uint256"
        }
      ],
      "name": "Approval",
      "type": "event"
    },
    {
      "anonymous": false,
      "inputs": [
        {
          "indexed": true,
          "internalType": "address",
          "name": "owner",
          "type": "address"
        },
        {
          "indexed": true,
          "internalType": "address",
          "name": "operator",
          "type": "address"
        },
        {
          "indexed": false,
          "internalType": "bool",
          "name": "approved",
          "type": "bool"
        }
      ],
      "name": "ApprovalForAll",
      "type": "event"
    },
    {
      "anonymous": false,
      "inputs": [
        {
          "indexed": true,
          "internalType": "address",
          "name": "previousOwner",
          "type": "address"
        },
        {
          "indexed": true,
          "internalType": "address",
          "name": "newOwner",
          "type": "address"
        }
      ],
      "name": "OwnershipTransferred",
      "type": "event"
    },
    {
      "anonymous": false,
      "inputs": [
        {
          "indexed": true,
          "internalType": "address",
          "name": "from",
          "type": "address"
        },
        {
          "indexed": true,
          "internalType": "address",
          "name": "to",
          "type": "address"
        },
        {
          "indexed": true,
          "internalType": "uint256",
          "name": "tokenId",
          "type": "uint256"
        }
      ],
      "name": "Transfer",
      "type": "event"
    },
    {
      "inputs": [
        {
          "internalType": "string",
          "name": "_name",
          "type": "string"
        },
        {
          "internalType": "string",
          "name": "_cardType",
          "type": "string"
        },
        {
          "internalType": "string",
          "name": "_value",
          "type": "string"
        },
        {
          "internalType": "string",
          "name": "_hash",
          "type": "string"
        }
      ],
      "name": "addCard",
      "outputs": [],
      "stateMutability": "nonpayable",
      "type": "function"
    },
    {
      "inputs": [
        {
          "internalType": "address",
          "name": "to",
          "type": "address"
        },
        {
          "internalType": "uint256",
          "name": "tokenId",
          "type": "uint256"
        }
      ],
      "name": "approve",
      "outputs": [],
      "stateMutability": "nonpayable",
      "type": "function"
    },
    {
      "inputs": [
        {
          "internalType": "address",
          "name": "owner",
          "type": "address"
        }
      ],
      "name": "balanceOf",
      "outputs": [
        {
          "internalType": "uint256",
          "name": "",
          "type": "uint256"
        }
      ],
      "stateMutability": "view",
      "type": "function"
    },
    {
      "inputs": [],
      "name": "cardCount",
      "outputs": [
        {
          "internalType": "uint256",
          "name": "",
          "type": "uint256"
        }
      ],
      "stateMutability": "view",
      "type": "function"
    },
    {
      "inputs": [
        {
          "internalType": "uint256",
          "name": "",
          "type": "uint256"
        }
      ],
      "name": "cards",
      "outputs": [
        {
          "internalType": "string",
          "name": "name",
          "type": "string"
        },
        {
          "internalType": "string",
          "name": "cardType",
          "type": "string"
        },
        {
          "internalType": "string",
          "name": "value",
          "type": "string"
        },
        {
          "internalType": "string",
          "name": "hash",
          "type": "string"
        },
        {
          "internalType": "uint256",
          "name": "createdAt",
          "type": "uint256"
        }
      ],
      "stateMutability": "view",
      "type": "function"
    },
    {
      "inputs": [],
      "name": "getAdmin",
      "outputs": [
        {
          "internalType": "address",
          "name": "",
          "type": "address"
        }
      ],
      "stateMutability": "view",
      "type": "function"
    },
    {
      "inputs": [
        {
          "internalType": "uint256",
          "name": "tokenId",
          "type": "uint256"
        }
      ],
      "name": "getApproved",
      "outputs": [
        {
          "internalType": "address",
          "name": "",
          "type": "address"
        }
      ],
      "stateMutability": "view",
      "type": "function"
    },
    {
      "inputs": [
        {
          "internalType": "uint256",
          "name": "cardId",
          "type": "uint256"
        }
      ],
      "name": "getCard",
      "outputs": [
        {
          "internalType": "string",
          "name": "",
          "type": "string"
        },
        {
          "internalType": "string",
          "name": "",
          "type": "string"
        },
        {
          "internalType": "string",
          "name": "",
          "type": "string"
        },
        {
          "internalType": "string",
          "name": "",
          "type": "string"
        },
        {
          "internalType": "uint256",
          "name": "",
          "type": "uint256"
        }
      ],
      "stateMutability": "view",
      "type": "function"
    },
    {
      "inputs": [
        {
          "internalType": "address",
          "name": "owner",
          "type": "address"
        },
        {
          "internalType": "address",
          "name": "operator",
          "type": "address"
        }
      ],
      "name": "isApprovedForAll",
      "outputs": [
        {
          "internalType": "bool",
          "name": "",
          "type": "bool"
        }
      ],
      "stateMutability": "view",
      "type": "function"
    },
    {
      "inputs": [],
      "name": "name",
      "outputs": [
        {
          "internalType": "string",
          "name": "",
          "type": "string"
        }
      ],
      "stateMutability": "view",
      "type": "function"
    },
    {
      "inputs": [],
      "name": "owner",
      "outputs": [
        {
          "internalType": "address",
          "name": "",
          "type": "address"
        }
      ],
      "stateMutability": "view",
      "type": "function"
    },
    {
      "inputs": [
        {
          "internalType": "uint256",
          "name": "tokenId",
          "type": "uint256"
        }
      ],
      "name": "ownerOf",
      "outputs": [
        {
          "internalType": "address",
          "name": "",
          "type": "address"
        }
      ],
      "stateMutability": "view",
      "type": "function"
    },
    {
      "inputs": [],
      "name": "renounceOwnership",
      "outputs": [],
      "stateMutability": "nonpayable",
      "type": "function"
    },
    {
      "inputs": [
        {
          "internalType": "address",
          "name": "from",
          "type": "address"
        },
        {
          "internalType": "address",
          "name": "to",
          "type": "address"
        },
        {
          "internalType": "uint256",
          "name": "tokenId",
          "type": "uint256"
        }
      ],
      "name": "safeTransferFrom",
      "outputs": [],
      "stateMutability": "nonpayable",
      "type": "function"
    },
    {
      "inputs": [
        {
          "internalType": "address",
          "name": "from",
          "type": "address"
        },
        {
          "internalType": "address",
          "name": "to",
          "type": "address"
        },
        {
          "internalType": "uint256",
          "name": "tokenId",
          "type": "uint256"
        },
        {
          "internalType": "bytes",
          "name": "data",
          "type": "bytes"
        }
      ],
      "name": "safeTransferFrom",
      "outputs": [],
      "stateMutability": "nonpayable",
      "type": "function"
    },
    {
      "inputs": [
        {
          "internalType": "address",
          "name": "operator",
          "type": "address"
        },
        {
          "internalType": "bool",
          "name": "approved",
          "type": "bool"
        }
      ],
      "name": "setApprovalForAll",
      "outputs": [],
      "stateMutability": "nonpayable",
      "type": "function"
    },
    {
      "inputs": [
        {
          "internalType": "bytes4",
          "name": "interfaceId",
          "type": "bytes4"
        }
      ],
      "name": "supportsInterface",
      "outputs": [
        {
          "internalType": "bool",
          "name": "",
          "type": "bool"
        }
      ],
      "stateMutability": "view",
      "type": "function"
    },
    {
      "inputs": [],
      "name": "symbol",
      "outputs": [
        {
          "internalType": "string",
          "name": "",
          "type": "string"
        }
      ],
      "stateMutability": "view",
      "type": "function"
    },
    {
      "inputs": [
        {
          "internalType": "uint256",
          "name": "tokenId",
          "type": "uint256"
        }
      ],
      "name": "tokenURI",
      "outputs": [
        {
          "internalType": "string",
          "name": "",
          "type": "string"
        }
      ],
      "stateMutability": "view",
      "type": "function"
    },
    {
      "inputs": [
        {
          "internalType": "address",
          "name": "from",
          "type": "address"
        },
        {
          "internalType": "address",
          "name": "to",
          "type": "address"
        },
        {
          "internalType": "uint256",
          "name": "tokenId",
          "type": "uint256"
        }
      ],
      "name": "transferFrom",
      "outputs": [],
      "stateMutability": "nonpayable",
      "type": "function"
    },
    {
      "inputs": [
        {
          "internalType": "address",
          "name": "newOwner",
          "type": "address"
        }
      ],
      "name": "transferOwnership",
      "outputs": [],
      "stateMutability": "nonpayable",
      "type": "function"
    }
  ],
  "bytecode": "0x60806040523480156200001157600080fd5b506040518060400160405280601081526020017f53696d706c65506c6179657243617264000000000000000000000000000000008152506040518060400160405280600381526020017f535043000000000000000000000000000000000000000000000000000000000081525081600090816200008f919062000453565b508060019081620000a1919062000453565b505050620000c4620000b86200010b60201b60201c565b6200011360201b60201c565b33600960006101000a81548173ffffffffffffffffffffffffffffffffffffffff021916908373ffffffffffffffffffffffffffffffffffffffff1602179055506200053a565b600033905090565b6000600660009054906101000a900473ffffffffffffffffffffffffffffffffffffffff16905081600660006101000a81548173ffffffffffffffffffffffffffffffffffffffff021916908373ffffffffffffffffffffffffffffffffffffffff1602179055508173ffffffffffffffffffffffffffffffffffffffff168173ffffffffffffffffffffffffffffffffffffffff167f8be0079c531659141344cd1fd0a4f28419497f9722a3daafe3b4186f6b6457e060405160405180910390a35050565b600081519050919050565b7f4e487b7100000000000000000000000000000000000000000000000000000000600052604160045260246000fd5b7f4e487b7100000000000000000000000000000000000000000000000000000000600052602260045260246000fd5b600060028204905060018216806200025b57607f821691505b60208210810362000271576200027062000213565b5b50919050565b60008190508160005260206000209050919050565b60006020601f8301049050919050565b600082821b905092915050565b600060088302620002db7fffffffffffffffffffffffffffffffffffffffffffffffffffffffffffffffff826200029c565b620002e786836200029c565b95508019841693508086168417925050509392505050565b6000819050919050565b6000819050919050565b6000620003346200032e6200032884620002ff565b62000309565b620002ff565b9050919050565b6000819050919050565b620003508362000313565b620003686200035f826200033b565b848454620002a9565b825550505050565b600090565b6200037f62000370565b6200038c81848462000345565b505050565b5b81811015620003b457620003a860008262000375565b60018101905062000392565b5050565b601f8211156200040357620003cd8162000277565b620003d8846200028c565b81016020851015620003e8578190505b62000400620003f7856200028c565b83018262000391565b50505b505050565b600082821c905092915050565b6000620004286000198460080262000408565b1980831691505092915050565b600062000443838362000415565b9150826002028217905092915050565b6200045e82620001d9565b67ffffffffffffffff8111156200047a5762000479620001e4565b5b62000486825462000242565b62000493828285620003b8565b600060209050601f831160018114620004cb5760008415620004b6578287015190505b620004c2858262000435565b86555062000532565b601f198416620004db8662000277565b60005b828110156200050557848901518255600182019150602085019450602081019050620004de565b8683101562000525578489015162000521601f89168262000415565b8355505b6001600288020188555050505b505050505050565b61353c806200054a6000396000f3fe608060405234801561001057600080fd5b50600436106101375760003560e01c8063715018a6116100b857806395d89b411161007c57806395d89b4114610356578063a22cb46514610374578063b88d4fde14610390578063c87b56dd146103ac578063e985e9c5146103dc578063f2fde38b1461040c57610137565b8063715018a6146102aa57806376df0a80146102b45780638da5cb5b146102d05780638dc10768146102ee5780639188d3121461032257610137565b806323b872dd116100ff57806323b872dd146101f457806342842e0e146102105780636352211e1461022c5780636e9960c31461025c57806370a082311461027a57610137565b806301ffc9a71461013c57806306fdde031461016c578063081812fc1461018a578063095ea7b3146101ba5780631b6cde10146101d6575b600080fd5b61015660048036038101906101519190612160565b610428565b60405161016391906121a8565b60405180910390f35b61017461050a565b6040516101819190612253565b60405180910390f35b6101a4600480360381019061019f91906122ab565b61059c565b6040516101b19190612319565b60405180910390f35b6101d460048036038101906101cf9190612360565b6105e2565b005b6101de6106f9565b6040516101eb91906123af565b60405180910390f35b61020e600480360381019061020991906123ca565b6106ff565b005b61022a600480360381019061022591906123ca565b61075f565b005b610246600480360381019061024191906122ab565b61077f565b6040516102539190612319565b60405180910390f35b610264610805565b6040516102719190612319565b60405180910390f35b610294600480360381019061028f919061241d565b61082f565b6040516102a191906123af565b60405180910390f35b6102b26108e6565b005b6102ce60048036038101906102c9919061257f565b6108fa565b005b6102d8610a59565b6040516102e59190612319565b60405180910390f35b610308600480360381019061030391906122ab565b610a83565b604051610319959493929190612656565b60405180910390f35b61033c600480360381019061033791906122ab565b610cd9565b60405161034d959493929190612656565b60405180910390f35b61035e610fd2565b60405161036b9190612253565b60405180910390f35b61038e600480360381019061038991906126f1565b611064565b005b6103aa60048036038101906103a591906127d2565b61107a565b005b6103c660048036038101906103c191906122ab565b6110dc565b6040516103d39190612253565b60405180910390f35b6103f660048036038101906103f19190612855565b611144565b60405161040391906121a8565b60405180910390f35b6104266004803603810190610421919061241d565b6111d8565b005b60007f80ac58cd000000000000000000000000000000000000000000000000000000007bffffffffffffffffffffffffffffffffffffffffffffffffffffffff1916827bffffffffffffffffffffffffffffffffffffffffffffffffffffffff191614806104f357507f5b5e139f000000000000000000000000000000000000000000000000000000007bffffffffffffffffffffffffffffffffffffffffffffffffffffffff1916827bffffffffffffffffffffffffffffffffffffffffffffffffffffffff1916145b8061050357506105028261125b565b5b9050919050565b606060008054610519906128c4565b80601f0160208091040260200160405190810160405280929190818152602001828054610545906128c4565b80156105925780601f1061056757610100808354040283529160200191610592565b820191906000526020600020905b81548152906001019060200180831161057557829003601f168201915b5050505050905090565b60006105a7826112c5565b6004600083815260200190815260200160002060009054906101000a900473ffffffffffffffffffffffffffffffffffffffff169050919050565b60006105ed8261077f565b90508073ffffffffffffffffffffffffffffffffffffffff168373ffffffffffffffffffffffffffffffffffffffff160361065d576040517f08c379a000000000000000000000000000000000000000000000000000000000815260040161065490612967565b60405180910390fd5b8073ffffffffffffffffffffffffffffffffffffffff1661067c611310565b73ffffffffffffffffffffffffffffffffffffffff1614806106ab57506106aa816106a5611310565b611144565b5b6106ea576040517f08c379a00000000000000000000000000000000000000000000000000000000081526004016106e1906129f9565b60405180910390fd5b6106f48383611318565b505050565b60085481565b61071061070a611310565b826113d1565b61074f576040517f08c379a000000000000000000000000000000000000000000000000000000000815260040161074690612a8b565b60405180910390fd5b61075a838383611466565b505050565b61077a8383836040518060200160405280600081525061107a565b505050565b60008061078b8361175f565b9050600073ffffffffffffffffffffffffffffffffffffffff168173ffffffffffffffffffffffffffffffffffffffff16036107fc576040517f08c379a00000000000000000000000000000000000000000000000000000000081526004016107f390612af7565b60405180910390fd5b80915050919050565b6000600960009054906101000a900473ffffffffffffffffffffffffffffffffffffffff16905090565b60008073ffffffffffffffffffffffffffffffffffffffff168273ffffffffffffffffffffffffffffffffffffffff160361089f576040517f08c379a000000000000000000000000000000000000000000000000000000000815260040161089690612b89565b60405180910390fd5b600360008373ffffffffffffffffffffffffffffffffffffffff1673ffffffffffffffffffffffffffffffffffffffff168152602001908152602001600020549050919050565b6108ee61179c565b6108f8600061181a565b565b600960009054906101000a900473ffffffffffffffffffffffffffffffffffffffff1673ffffffffffffffffffffffffffffffffffffffff163373ffffffffffffffffffffffffffffffffffffffff161461098a576040517f08c379a000000000000000000000000000000000000000000000000000000000815260040161098190612c1b565b60405180910390fd5b6008600081548092919061099d90612c6a565b9190505550600060085490506040518060a00160405280868152602001858152602001848152602001838152602001428152506007600083815260200190815260200160002060008201518160000190816109f89190612e5e565b506020820151816001019081610a0e9190612e5e565b506040820151816002019081610a249190612e5e565b506060820151816003019081610a3a9190612e5e565b5060808201518160040155905050610a5233826118e0565b5050505050565b6000600660009054906101000a900473ffffffffffffffffffffffffffffffffffffffff16905090565b6007602052806000526040600020600091509050806000018054610aa6906128c4565b80601f0160208091040260200160405190810160405280929190818152602001828054610ad2906128c4565b8015610b1f5780601f10610af457610100808354040283529160200191610b1f565b820191906000526020600020905b815481529060010190602001808311610b0257829003601f168201915b505050505090806001018054610b34906128c4565b80601f0160208091040260200160405190810160405280929190818152602001828054610b60906128c4565b8015610bad5780601f10610b8257610100808354040283529160200191610bad565b820191906000526020600020905b815481529060010190602001808311610b9057829003601f168201915b505050505090806002018054610bc2906128c4565b80601f0160208091040260200160405190810160405280929190818152602001828054610bee906128c4565b8015610c3b5780601f10610c1057610100808354040283529160200191610c3b565b820191906000526020600020905b815481529060010190602001808311610c1e57829003601f168201915b505050505090806003018054610c50906128c4565b80601f0160208091040260200160405190810160405280929190818152602001828054610c7c906128c4565b8015610cc95780601f10610c9e57610100808354040283529160200191610cc9565b820191906000526020600020905b815481529060010190602001808311610cac57829003601f168201915b5050505050908060040154905085565b60608060608060008086118015610cf257506008548611155b610d31576040517f08c379a0000000000000000000000000000000000000000000000000000000008152600401610d2890612f7c565b60405180910390fd5b6000600760008881526020019081526020016000206040518060a0016040529081600082018054610d61906128c4565b80601f0160208091040260200160405190810160405280929190818152602001828054610d8d906128c4565b8015610dda5780601f10610daf57610100808354040283529160200191610dda565b820191906000526020600020905b815481529060010190602001808311610dbd57829003601f168201915b50505050508152602001600182018054610df3906128c4565b80601f0160208091040260200160405190810160405280929190818152602001828054610e1f906128c4565b8015610e6c5780601f10610e4157610100808354040283529160200191610e6c565b820191906000526020600020905b815481529060010190602001808311610e4f57829003601f168201915b50505050508152602001600282018054610e85906128c4565b80601f0160208091040260200160405190810160405280929190818152602001828054610eb1906128c4565b8015610efe5780601f10610ed357610100808354040283529160200191610efe565b820191906000526020600020905b815481529060010190602001808311610ee157829003601f168201915b50505050508152602001600382018054610f17906128c4565b80601f0160208091040260200160405190810160405280929190818152602001828054610f43906128c4565b8015610f905780601f10610f6557610100808354040283529160200191610f90565b820191906000526020600020905b815481529060010190602001808311610f7357829003601f168201915b50505050508152602001600482015481525050905080600001518160200151826040015183606001518460800151955095509550955095505091939590929450565b606060018054610fe1906128c4565b80601f016020809104026020016040519081016040528092919081815260200182805461100d906128c4565b801561105a5780601f1061102f5761010080835404028352916020019161105a565b820191906000526020600020905b81548152906001019060200180831161103d57829003601f168201915b5050505050905090565b61107661106f611310565b8383611afd565b5050565b61108b611085611310565b836113d1565b6110ca576040517f08c379a00000000000000000000000000000000000000000000000000000000081526004016110c190612a8b565b60405180910390fd5b6110d684848484611c69565b50505050565b60606110e7826112c5565b60006110f1611cc5565b90506000815111611111576040518060200160405280600081525061113c565b8061111b84611cdc565b60405160200161112c929190612fd8565b6040516020818303038152906040525b915050919050565b6000600560008473ffffffffffffffffffffffffffffffffffffffff1673ffffffffffffffffffffffffffffffffffffffff16815260200190815260200160002060008373ffffffffffffffffffffffffffffffffffffffff1673ffffffffffffffffffffffffffffffffffffffff16815260200190815260200160002060009054906101000a900460ff16905092915050565b6111e061179c565b600073ffffffffffffffffffffffffffffffffffffffff168173ffffffffffffffffffffffffffffffffffffffff160361124f576040517f08c379a00000000000000000000000000000000000000000000000000000000081526004016112469061306e565b60405180910390fd5b6112588161181a565b50565b60007f01ffc9a7000000000000000000000000000000000000000000000000000000007bffffffffffffffffffffffffffffffffffffffffffffffffffffffff1916827bffffffffffffffffffffffffffffffffffffffffffffffffffffffff1916149050919050565b6112ce81611daa565b61130d576040517f08c379a000000000000000000000000000000000000000000000000000000000815260040161130490612af7565b60405180910390fd5b50565b600033905090565b816004600083815260200190815260200160002060006101000a81548173ffffffffffffffffffffffffffffffffffffffff021916908373ffffffffffffffffffffffffffffffffffffffff160217905550808273ffffffffffffffffffffffffffffffffffffffff1661138b8361077f565b73ffffffffffffffffffffffffffffffffffffffff167f8c5be1e5ebec7d5bd14f71427d1e84f3dd0314c0f7b2291e5b200ac8c7c3b92560405160405180910390a45050565b6000806113dd8361077f565b90508073ffffffffffffffffffffffffffffffffffffffff168473ffffffffffffffffffffffffffffffffffffffff16148061141f575061141e8185611144565b5b8061145d57508373ffffffffffffffffffffffffffffffffffffffff166114458461059c565b73ffffffffffffffffffffffffffffffffffffffff16145b91505092915050565b8273ffffffffffffffffffffffffffffffffffffffff166114868261077f565b73ffffffffffffffffffffffffffffffffffffffff16146114dc576040517f08c379a00000000000000000000000000000000000000000000000000000000081526004016114d390613100565b60405180910390fd5b600073ffffffffffffffffffffffffffffffffffffffff168273ffffffffffffffffffffffffffffffffffffffff160361154b576040517f08c379a000000000000000000000000000000000000000000000000000000000815260040161154290613192565b60405180910390fd5b6115588383836001611deb565b8273ffffffffffffffffffffffffffffffffffffffff166115788261077f565b73ffffffffffffffffffffffffffffffffffffffff16146115ce576040517f08c379a00000000000000000000000000000000000000000000000000000000081526004016115c590613100565b60405180910390fd5b6004600082815260200190815260200160002060006101000a81549073ffffffffffffffffffffffffffffffffffffffff02191690556001600360008573ffffffffffffffffffffffffffffffffffffffff1673ffffffffffffffffffffffffffffffffffffffff168152602001908152602001600020600082825403925050819055506001600360008473ffffffffffffffffffffffffffffffffffffffff1673ffffffffffffffffffffffffffffffffffffffff16815260200190815260200160002060008282540192505081905550816002600083815260200190815260200160002060006101000a81548173ffffffffffffffffffffffffffffffffffffffff021916908373ffffffffffffffffffffffffffffffffffffffff160217905550808273ffffffffffffffffffffffffffffffffffffffff168473ffffffffffffffffffffffffffffffffffffffff167fddf252ad1be2c89b69c2b068fc378daa952ba7f163c4a11628f55a4df523b3ef60405160405180910390a461175a8383836001611df1565b505050565b60006002600083815260200190815260200160002060009054906101000a900473ffffffffffffffffffffffffffffffffffffffff169050919050565b6117a4611310565b73ffffffffffffffffffffffffffffffffffffffff166117c2610a59565b73ffffffffffffffffffffffffffffffffffffffff1614611818576040517f08c379a000000000000000000000000000000000000000000000000000000000815260040161180f906131fe565b60405180910390fd5b565b6000600660009054906101000a900473ffffffffffffffffffffffffffffffffffffffff16905081600660006101000a81548173ffffffffffffffffffffffffffffffffffffffff021916908373ffffffffffffffffffffffffffffffffffffffff1602179055508173ffffffffffffffffffffffffffffffffffffffff168173ffffffffffffffffffffffffffffffffffffffff167f8be0079c531659141344cd1fd0a4f28419497f9722a3daafe3b4186f6b6457e060405160405180910390a35050565b600073ffffffffffffffffffffffffffffffffffffffff168273ffffffffffffffffffffffffffffffffffffffff160361194f576040517f08c379a00000000000000000000000000000000000000000000000000000000081526004016119469061326a565b60405180910390fd5b61195881611daa565b15611998576040517f08c379a000000000000000000000000000000000000000000000000000000000815260040161198f906132d6565b60405180910390fd5b6119a6600083836001611deb565b6119af81611daa565b156119ef576040517f08c379a00000000000000000000000000000000000000000000000000000000081526004016119e6906132d6565b60405180910390fd5b6001600360008473ffffffffffffffffffffffffffffffffffffffff1673ffffffffffffffffffffffffffffffffffffffff16815260200190815260200160002060008282540192505081905550816002600083815260200190815260200160002060006101000a81548173ffffffffffffffffffffffffffffffffffffffff021916908373ffffffffffffffffffffffffffffffffffffffff160217905550808273ffffffffffffffffffffffffffffffffffffffff16600073ffffffffffffffffffffffffffffffffffffffff167fddf252ad1be2c89b69c2b068fc378daa952ba7f163c4a11628f55a4df523b3ef60405160405180910390a4611af9600083836001611df1565b5050565b8173ffffffffffffffffffffffffffffffffffffffff168373ffffffffffffffffffffffffffffffffffffffff1603611b6b576040517f08c379a0000000000000000000000000000000000000000000000000000000008152600401611b6290613342565b60405180910390fd5b80600560008573ffffffffffffffffffffffffffffffffffffffff1673ffffffffffffffffffffffffffffffffffffffff16815260200190815260200160002060008473ffffffffffffffffffffffffffffffffffffffff1673ffffffffffffffffffffffffffffffffffffffff16815260200190815260200160002060006101000a81548160ff0219169083151502179055508173ffffffffffffffffffffffffffffffffffffffff168373ffffffffffffffffffffffffffffffffffffffff167f17307eab39ab6107e8899845ad3d59bd9653f200f220920489ca2b5937696c3183604051611c5c91906121a8565b60405180910390a3505050565b611c74848484611466565b611c8084848484611df7565b611cbf576040517f08c379a0000000000000000000000000000000000000000000000000000000008152600401611cb6906133d4565b60405180910390fd5b50505050565b606060405180602001604052806000815250905090565b606060006001611ceb84611f7e565b01905060008167ffffffffffffffff811115611d0a57611d09612454565b5b6040519080825280601f01601f191660200182016040528015611d3c5781602001600182028036833780820191505090505b509050600082602001820190505b600115611d9f578080600190039150507f3031323334353637383961626364656600000000000000000000000000000000600a86061a8153600a8581611d9357611d926133f4565b5b04945060008503611d4a575b819350505050919050565b60008073ffffffffffffffffffffffffffffffffffffffff16611dcc8361175f565b73ffffffffffffffffffffffffffffffffffffffff1614159050919050565b50505050565b50505050565b6000611e188473ffffffffffffffffffffffffffffffffffffffff166120d1565b15611f71578373ffffffffffffffffffffffffffffffffffffffff1663150b7a02611e41611310565b8786866040518563ffffffff1660e01b8152600401611e639493929190613478565b6020604051808303816000875af1925050508015611e9f57506040513d601f19601f82011682018060405250810190611e9c91906134d9565b60015b611f21573d8060008114611ecf576040519150601f19603f3d011682016040523d82523d6000602084013e611ed4565b606091505b506000815103611f19576040517f08c379a0000000000000000000000000000000000000000000000000000000008152600401611f10906133d4565b60405180910390fd5b805181602001fd5b63150b7a0260e01b7bffffffffffffffffffffffffffffffffffffffffffffffffffffffff1916817bffffffffffffffffffffffffffffffffffffffffffffffffffffffff191614915050611f76565b600190505b949350505050565b600080600090507a184f03e93ff9f4daa797ed6e38ed64bf6a1f0100000000000000008310611fdc577a184f03e93ff9f4daa797ed6e38ed64bf6a1f0100000000000000008381611fd257611fd16133f4565b5b0492506040810190505b6d04ee2d6d415b85acef81000000008310612019576d04ee2d6d415b85acef8100000000838161200f5761200e6133f4565b5b0492506020810190505b662386f26fc10000831061204857662386f26fc10000838161203e5761203d6133f4565b5b0492506010810190505b6305f5e1008310612071576305f5e1008381612067576120666133f4565b5b0492506008810190505b612710831061209657612710838161208c5761208b6133f4565b5b0492506004810190505b606483106120b957606483816120af576120ae6133f4565b5b0492506002810190505b600a83106120c8576001810190505b80915050919050565b6000808273ffffffffffffffffffffffffffffffffffffffff163b119050919050565b6000604051905090565b600080fd5b600080fd5b60007fffffffff0000000000000000000000000000000000000000000000000000000082169050919050565b61213d81612108565b811461214857600080fd5b50565b60008135905061215a81612134565b92915050565b600060208284031215612176576121756120fe565b5b60006121848482850161214b565b91505092915050565b60008115159050919050565b6121a28161218d565b82525050565b60006020820190506121bd6000830184612199565b92915050565b600081519050919050565b600082825260208201905092915050565b60005b838110156121fd5780820151818401526020810190506121e2565b60008484015250505050565b6000601f19601f8301169050919050565b6000612225826121c3565b61222f81856121ce565b935061223f8185602086016121df565b61224881612209565b840191505092915050565b6000602082019050818103600083015261226d818461221a565b905092915050565b6000819050919050565b61228881612275565b811461229357600080fd5b50565b6000813590506122a58161227f565b92915050565b6000602082840312156122c1576122c06120fe565b5b60006122cf84828501612296565b91505092915050565b600073ffffffffffffffffffffffffffffffffffffffff82169050919050565b6000612303826122d8565b9050919050565b612313816122f8565b82525050565b600060208201905061232e600083018461230a565b92915050565b61233d816122f8565b811461234857600080fd5b50565b60008135905061235a81612334565b92915050565b60008060408385031215612377576123766120fe565b5b60006123858582860161234b565b925050602061239685828601612296565b9150509250929050565b6123a981612275565b82525050565b60006020820190506123c460008301846123a0565b92915050565b6000806000606084860312156123e3576123e26120fe565b5b60006123f18682870161234b565b93505060206124028682870161234b565b925050604061241386828701612296565b9150509250925092565b600060208284031215612433576124326120fe565b5b60006124418482850161234b565b91505092915050565b600080fd5b600080fd5b7f4e487b7100000000000000000000000000000000000000000000000000000000600052604160045260246000fd5b61248c82612209565b810181811067ffffffffffffffff821117156124ab576124aa612454565b5b80604052505050565b60006124be6120f4565b90506124ca8282612483565b919050565b600067ffffffffffffffff8211156124ea576124e9612454565b5b6124f382612209565b9050602081019050919050565b82818337600083830152505050565b600061252261251d846124cf565b6124b4565b90508281526020810184848401111561253e5761253d61244f565b5b612549848285612500565b509392505050565b600082601f8301126125665761256561244a565b5b813561257684826020860161250f565b91505092915050565b60008060008060808587031215612599576125986120fe565b5b600085013567ffffffffffffffff8111156125b7576125b6612103565b5b6125c387828801612551565b945050602085013567ffffffffffffffff8111156125e4576125e3612103565b5b6125f087828801612551565b935050604085013567ffffffffffffffff81111561261157612610612103565b5b61261d87828801612551565b925050606085013567ffffffffffffffff81111561263e5761263d612103565b5b61264a87828801612551565b91505092959194509250565b600060a0820190508181036000830152612670818861221a565b90508181036020830152612684818761221a565b90508181036040830152612698818661221a565b905081810360608301526126ac818561221a565b90506126bb60808301846123a0565b9695505050505050565b6126ce8161218d565b81146126d957600080fd5b50565b6000813590506126eb816126c5565b92915050565b60008060408385031215612708576127076120fe565b5b60006127168582860161234b565b9250506020612727858286016126dc565b9150509250929050565b600067ffffffffffffffff82111561274c5761274b612454565b5b61275582612209565b9050602081019050919050565b600061277561277084612731565b6124b4565b9050828152602081018484840111156127915761279061244f565b5b61279c848285612500565b509392505050565b600082601f8301126127b9576127b861244a565b5b81356127c9848260208601612762565b91505092915050565b600080600080608085870312156127ec576127eb6120fe565b5b60006127fa8782880161234b565b945050602061280b8782880161234b565b935050604061281c87828801612296565b925050606085013567ffffffffffffffff81111561283d5761283c612103565b5b612849878288016127a4565b91505092959194509250565b6000806040838503121561286c5761286b6120fe565b5b600061287a8582860161234b565b925050602061288b8582860161234b565b9150509250929050565b7f4e487b7100000000000000000000000000000000000000000000000000000000600052602260045260246000fd5b600060028204905060018216806128dc57607f821691505b6020821081036128ef576128ee612895565b5b50919050565b7f4552433732313a20617070726f76616c20746f2063757272656e74206f776e6560008201527f7200000000000000000000000000000000000000000000000000000000000000602082015250565b60006129516021836121ce565b915061295c826128f5565b604082019050919050565b6000602082019050818103600083015261298081612944565b9050919050565b7f4552433732313a20617070726f76652063616c6c6572206973206e6f7420746f60008201527f6b656e206f776e6572206f7220617070726f76656420666f7220616c6c000000602082015250565b60006129e3603d836121ce565b91506129ee82612987565b604082019050919050565b60006020820190508181036000830152612a12816129d6565b9050919050565b7f4552433732313a2063616c6c6572206973206e6f7420746f6b656e206f776e6560008201527f72206f7220617070726f76656400000000000000000000000000000000000000602082015250565b6000612a75602d836121ce565b9150612a8082612a19565b604082019050919050565b60006020820190508181036000830152612aa481612a68565b9050919050565b7f4552433732313a20696e76616c696420746f6b656e2049440000000000000000600082015250565b6000612ae16018836121ce565b9150612aec82612aab565b602082019050919050565b60006020820190508181036000830152612b1081612ad4565b9050919050565b7f4552433732313a2061646472657373207a65726f206973206e6f74206120766160008201527f6c6964206f776e65720000000000000000000000000000000000000000000000602082015250565b6000612b736029836121ce565b9150612b7e82612b17565b604082019050919050565b60006020820190508181036000830152612ba281612b66565b9050919050565b7f5365756c206c2761646d696e697374726174657572207065757420616a6f757460008201527f6572206465732063617274657300000000000000000000000000000000000000602082015250565b6000612c05602d836121ce565b9150612c1082612ba9565b604082019050919050565b60006020820190508181036000830152612c3481612bf8565b9050919050565b7f4e487b7100000000000000000000000000000000000000000000000000000000600052601160045260246000fd5b6000612c7582612275565b91507fffffffffffffffffffffffffffffffffffffffffffffffffffffffffffffffff8203612ca757612ca6612c3b565b5b600182019050919050565b60008190508160005260206000209050919050565b60006020601f8301049050919050565b600082821b905092915050565b600060088302612d147fffffffffffffffffffffffffffffffffffffffffffffffffffffffffffffffff82612cd7565b612d1e8683612cd7565b95508019841693508086168417925050509392505050565b6000819050919050565b6000612d5b612d56612d5184612275565b612d36565b612275565b9050919050565b6000819050919050565b612d7583612d40565b612d89612d8182612d62565b848454612ce4565b825550505050565b600090565b612d9e612d91565b612da9818484612d6c565b505050565b5b81811015612dcd57612dc2600082612d96565b600181019050612daf565b5050565b601f821115612e1257612de381612cb2565b612dec84612cc7565b81016020851015612dfb578190505b612e0f612e0785612cc7565b830182612dae565b50505b505050565b600082821c905092915050565b6000612e3560001984600802612e17565b1980831691505092915050565b6000612e4e8383612e24565b9150826002028217905092915050565b612e67826121c3565b67ffffffffffffffff811115612e8057612e7f612454565b5b612e8a82546128c4565b612e95828285612dd1565b600060209050601f831160018114612ec85760008415612eb6578287015190505b612ec08582612e42565b865550612f28565b601f198416612ed686612cb2565b60005b82811015612efe57848901518255600182019150602085019450602081019050612ed9565b86831015612f1b5784890151612f17601f891682612e24565b8355505b6001600288020188555050505b505050505050565b7f4361727465206e6f6e206578697374616e746500000000000000000000000000600082015250565b6000612f666013836121ce565b9150612f7182612f30565b602082019050919050565b60006020820190508181036000830152612f9581612f59565b9050919050565b600081905092915050565b6000612fb2826121c3565b612fbc8185612f9c565b9350612fcc8185602086016121df565b80840191505092915050565b6000612fe48285612fa7565b9150612ff08284612fa7565b91508190509392505050565b7f4f776e61626c653a206e6577206f776e657220697320746865207a65726f206160008201527f6464726573730000000000000000000000000000000000000000000000000000602082015250565b60006130586026836121ce565b915061306382612ffc565b604082019050919050565b600060208201905081810360008301526130878161304b565b9050919050565b7f4552433732313a207472616e736665722066726f6d20696e636f72726563742060008201527f6f776e6572000000000000000000000000000000000000000000000000000000602082015250565b60006130ea6025836121ce565b91506130f58261308e565b604082019050919050565b60006020820190508181036000830152613119816130dd565b9050919050565b7f4552433732313a207472616e7366657220746f20746865207a65726f2061646460008201527f7265737300000000000000000000000000000000000000000000000000000000602082015250565b600061317c6024836121ce565b915061318782613120565b604082019050919050565b600060208201905081810360008301526131ab8161316f565b9050919050565b7f4f776e61626c653a2063616c6c6572206973206e6f7420746865206f776e6572600082015250565b60006131e86020836121ce565b91506131f3826131b2565b602082019050919050565b60006020820190508181036000830152613217816131db565b9050919050565b7f4552433732313a206d696e7420746f20746865207a65726f2061646472657373600082015250565b60006132546020836121ce565b915061325f8261321e565b602082019050919050565b6000602082019050818103600083015261328381613247565b9050919050565b7f4552433732313a20746f6b656e20616c7265616479206d696e74656400000000600082015250565b60006132c0601c836121ce565b91506132cb8261328a565b602082019050919050565b600060208201905081810360008301526132ef816132b3565b9050919050565b7f4552433732313a20617070726f766520746f2063616c6c657200000000000000600082015250565b600061332c6019836121ce565b9150613337826132f6565b602082019050919050565b6000602082019050818103600083015261335b8161331f565b9050919050565b7f4552433732313a207472616e7366657220746f206e6f6e20455243373231526560008201527f63656976657220696d706c656d656e7465720000000000000000000000000000602082015250565b60006133be6032836121ce565b91506133c982613362565b604082019050919050565b600060208201905081810360008301526133ed816133b1565b9050919050565b7f4e487b7100000000000000000000000000000000000000000000000000000000600052601260045260246000fd5b600081519050919050565b600082825260208201905092915050565b600061344a82613423565b613454818561342e565b93506134648185602086016121df565b61346d81612209565b840191505092915050565b600060808201905061348d600083018761230a565b61349a602083018661230a565b6134a760408301856123a0565b81810360608301526134b9818461343f565b905095945050505050565b6000815190506134d381612134565b92915050565b6000602082840312156134ef576134ee6120fe565b5b60006134fd848285016134c4565b9150509291505056fea2646970667358221220371da2f637513dc354c0d55edbeb3a5b3f72a3a3bd763180f0183074d7b757f264736f6c63430008130033",
  "linkReferences": {},
  "deployedLinkReferences": {}
}