{
  "_format": "hh-sol-artifact-1",
  "contractName": "FootballTeam",
  "sourceName": "contracts/FootballTeam.sol",
  "abi": [
    {
      "inputs": [],
      "stateMutability": "nonpayable",
      "type": "constructor"
    },
    {
      "anonymous": false,
      "inputs": [
        {
          "indexed": true,
          "internalType": "address",
          "name": "previousOwner",
          "type": "address"
        },
        {
          "indexed": true,
          "internalType": "address",
          "name": "newOwner",
          "type": "address"
        }
      ],
      "name": "OwnershipTransferred",
      "type": "event"
    },
    {
      "anonymous": false,
      "inputs": [
        {
          "indexed": true,
          "internalType": "address",
          "name": "team",
          "type": "address"
        },
        {
          "indexed": false,
          "internalType": "uint256",
          "name": "playerId",
          "type": "uint256"
        }
      ],
      "name": "PlayerAdded",
      "type": "event"
    },
    {
      "anonymous": false,
      "inputs": [
        {
          "indexed": true,
          "internalType": "address",
          "name": "owner",
          "type": "address"
        },
        {
          "indexed": false,
          "internalType": "string",
          "name": "name",
          "type": "string"
        }
      ],
      "name": "TeamCreated",
      "type": "event"
    },
    {
      "inputs": [
        {
          "internalType": "address",
          "name": "team",
          "type": "address"
        },
        {
          "internalType": "uint256",
          "name": "playerId",
          "type": "uint256"
        }
      ],
      "name": "addPlayerToTeam",
      "outputs": [],
      "stateMutability": "nonpayable",
      "type": "function"
    },
    {
      "inputs": [
        {
          "internalType": "string",
          "name": "name",
          "type": "string"
        }
      ],
      "name": "createTeam",
      "outputs": [],
      "stateMutability": "nonpayable",
      "type": "function"
    },
    {
      "inputs": [],
      "name": "maxPlayersPerTeam",
      "outputs": [
        {
          "internalType": "uint256",
          "name": "",
          "type": "uint256"
        }
      ],
      "stateMutability": "view",
      "type": "function"
    },
    {
      "inputs": [],
      "name": "owner",
      "outputs": [
        {
          "internalType": "address",
          "name": "",
          "type": "address"
        }
      ],
      "stateMutability": "view",
      "type": "function"
    },
    {
      "inputs": [],
      "name": "renounceOwnership",
      "outputs": [],
      "stateMutability": "nonpayable",
      "type": "function"
    },
    {
      "inputs": [
        {
          "internalType": "address",
          "name": "",
          "type": "address"
        }
      ],
      "name": "teams",
      "outputs": [
        {
          "internalType": "string",
          "name": "name",
          "type": "string"
        },
        {
          "internalType": "address",
          "name": "owner",
          "type": "address"
        },
        {
          "internalType": "uint256",
          "name": "playerCount",
          "type": "uint256"
        }
      ],
      "stateMutability": "view",
      "type": "function"
    },
    {
      "inputs": [
        {
          "internalType": "address",
          "name": "newOwner",
          "type": "address"
        }
      ],
      "name": "transferOwnership",
      "outputs": [],
      "stateMutability": "nonpayable",
      "type": "function"
    }
  ],
  "bytecode": "0x6080604052601960025534801561001557600080fd5b5061003261002761003760201b60201c565b61003f60201b60201c565b610103565b600033905090565b60008060009054906101000a900473ffffffffffffffffffffffffffffffffffffffff169050816000806101000a81548173ffffffffffffffffffffffffffffffffffffffff021916908373ffffffffffffffffffffffffffffffffffffffff1602179055508173ffffffffffffffffffffffffffffffffffffffff168173ffffffffffffffffffffffffffffffffffffffff167f8be0079c531659141344cd1fd0a4f28419497f9722a3daafe3b4186f6b6457e060405160405180910390a35050565b61109d806101126000396000f3fe608060405234801561001057600080fd5b506004361061007d5760003560e01c80638da5cb5b1161005b5780638da5cb5b146100c6578063972fa53f146100e4578063c458324014610100578063f2fde38b146101325761007d565b806339a7a872146100825780636439c3e5146100a0578063715018a6146100bc575b600080fd5b61008a61014e565b604051610097919061077e565b60405180910390f35b6100ba60048036038101906100b59190610837565b610154565b005b6100c461028c565b005b6100ce6102a0565b6040516100db9190610886565b60405180910390f35b6100fe60048036038101906100f991906109e7565b6102c9565b005b61011a60048036038101906101159190610a30565b6104c6565b60405161012993929190610adc565b60405180910390f35b61014c60048036038101906101479190610a30565b610598565b005b60025481565b61015c61061b565b600254600160008473ffffffffffffffffffffffffffffffffffffffff1673ffffffffffffffffffffffffffffffffffffffff16815260200190815260200160002060020154106101e2576040517f08c379a00000000000000000000000000000000000000000000000000000000081526004016101d990610b66565b60405180910390fd5b600160008373ffffffffffffffffffffffffffffffffffffffff1673ffffffffffffffffffffffffffffffffffffffff168152602001908152602001600020600201600081548092919061023590610bb5565b91905055508173ffffffffffffffffffffffffffffffffffffffff167f0c1de8e9993c058a253c96414b4215583b25fa35e1b6e0facf4d5a0dc2a6f3f882604051610280919061077e565b60405180910390a25050565b61029461061b565b61029e6000610699565b565b60008060009054906101000a900473ffffffffffffffffffffffffffffffffffffffff16905090565b600073ffffffffffffffffffffffffffffffffffffffff16600160003373ffffffffffffffffffffffffffffffffffffffff1673ffffffffffffffffffffffffffffffffffffffff16815260200190815260200160002060010160009054906101000a900473ffffffffffffffffffffffffffffffffffffffff1673ffffffffffffffffffffffffffffffffffffffff161461039a576040517f08c379a000000000000000000000000000000000000000000000000000000000815260040161039190610c49565b60405180910390fd5b60405180606001604052808281526020013373ffffffffffffffffffffffffffffffffffffffff1681526020016000815250600160003373ffffffffffffffffffffffffffffffffffffffff1673ffffffffffffffffffffffffffffffffffffffff16815260200190815260200160002060008201518160000190816104209190610e75565b5060208201518160010160006101000a81548173ffffffffffffffffffffffffffffffffffffffff021916908373ffffffffffffffffffffffffffffffffffffffff160217905550604082015181600201559050503373ffffffffffffffffffffffffffffffffffffffff167f3613f8ac0cc52c4428042fe442f289fc083df030de5859192dce0bfb7bc38795826040516104bb9190610f47565b60405180910390a250565b60016020528060005260406000206000915090508060000180546104e990610c98565b80601f016020809104026020016040519081016040528092919081815260200182805461051590610c98565b80156105625780601f1061053757610100808354040283529160200191610562565b820191906000526020600020905b81548152906001019060200180831161054557829003601f168201915b5050505050908060010160009054906101000a900473ffffffffffffffffffffffffffffffffffffffff16908060020154905083565b6105a061061b565b600073ffffffffffffffffffffffffffffffffffffffff168173ffffffffffffffffffffffffffffffffffffffff160361060f576040517f08c379a000000000000000000000000000000000000000000000000000000000815260040161060690610fdb565b60405180910390fd5b61061881610699565b50565b61062361075d565b73ffffffffffffffffffffffffffffffffffffffff166106416102a0565b73ffffffffffffffffffffffffffffffffffffffff1614610697576040517f08c379a000000000000000000000000000000000000000000000000000000000815260040161068e90611047565b60405180910390fd5b565b60008060009054906101000a900473ffffffffffffffffffffffffffffffffffffffff169050816000806101000a81548173ffffffffffffffffffffffffffffffffffffffff021916908373ffffffffffffffffffffffffffffffffffffffff1602179055508173ffffffffffffffffffffffffffffffffffffffff168173ffffffffffffffffffffffffffffffffffffffff167f8be0079c531659141344cd1fd0a4f28419497f9722a3daafe3b4186f6b6457e060405160405180910390a35050565b600033905090565b6000819050919050565b61077881610765565b82525050565b6000602082019050610793600083018461076f565b92915050565b6000604051905090565b600080fd5b600080fd5b600073ffffffffffffffffffffffffffffffffffffffff82169050919050565b60006107d8826107ad565b9050919050565b6107e8816107cd565b81146107f357600080fd5b50565b600081359050610805816107df565b92915050565b61081481610765565b811461081f57600080fd5b50565b6000813590506108318161080b565b92915050565b6000806040838503121561084e5761084d6107a3565b5b600061085c858286016107f6565b925050602061086d85828601610822565b9150509250929050565b610880816107cd565b82525050565b600060208201905061089b6000830184610877565b92915050565b600080fd5b600080fd5b6000601f19601f8301169050919050565b7f4e487b7100000000000000000000000000000000000000000000000000000000600052604160045260246000fd5b6108f4826108ab565b810181811067ffffffffffffffff82111715610913576109126108bc565b5b80604052505050565b6000610926610799565b905061093282826108eb565b919050565b600067ffffffffffffffff821115610952576109516108bc565b5b61095b826108ab565b9050602081019050919050565b82818337600083830152505050565b600061098a61098584610937565b61091c565b9050828152602081018484840111156109a6576109a56108a6565b5b6109b1848285610968565b509392505050565b600082601f8301126109ce576109cd6108a1565b5b81356109de848260208601610977565b91505092915050565b6000602082840312156109fd576109fc6107a3565b5b600082013567ffffffffffffffff811115610a1b57610a1a6107a8565b5b610a27848285016109b9565b91505092915050565b600060208284031215610a4657610a456107a3565b5b6000610a54848285016107f6565b91505092915050565b600081519050919050565b600082825260208201905092915050565b60005b83811015610a97578082015181840152602081019050610a7c565b60008484015250505050565b6000610aae82610a5d565b610ab88185610a68565b9350610ac8818560208601610a79565b610ad1816108ab565b840191505092915050565b60006060820190508181036000830152610af68186610aa3565b9050610b056020830185610877565b610b12604083018461076f565b949350505050565b7f5465616d2069732066756c6c0000000000000000000000000000000000000000600082015250565b6000610b50600c83610a68565b9150610b5b82610b1a565b602082019050919050565b60006020820190508181036000830152610b7f81610b43565b9050919050565b7f4e487b7100000000000000000000000000000000000000000000000000000000600052601160045260246000fd5b6000610bc082610765565b91507fffffffffffffffffffffffffffffffffffffffffffffffffffffffffffffffff8203610bf257610bf1610b86565b5b600182019050919050565b7f5465616d20616c72656164792065786973747300000000000000000000000000600082015250565b6000610c33601383610a68565b9150610c3e82610bfd565b602082019050919050565b60006020820190508181036000830152610c6281610c26565b9050919050565b7f4e487b7100000000000000000000000000000000000000000000000000000000600052602260045260246000fd5b60006002820490506001821680610cb057607f821691505b602082108103610cc357610cc2610c69565b5b50919050565b60008190508160005260206000209050919050565b60006020601f8301049050919050565b600082821b905092915050565b600060088302610d2b7fffffffffffffffffffffffffffffffffffffffffffffffffffffffffffffffff82610cee565b610d358683610cee565b95508019841693508086168417925050509392505050565b6000819050919050565b6000610d72610d6d610d6884610765565b610d4d565b610765565b9050919050565b6000819050919050565b610d8c83610d57565b610da0610d9882610d79565b848454610cfb565b825550505050565b600090565b610db5610da8565b610dc0818484610d83565b505050565b5b81811015610de457610dd9600082610dad565b600181019050610dc6565b5050565b601f821115610e2957610dfa81610cc9565b610e0384610cde565b81016020851015610e12578190505b610e26610e1e85610cde565b830182610dc5565b50505b505050565b600082821c905092915050565b6000610e4c60001984600802610e2e565b1980831691505092915050565b6000610e658383610e3b565b9150826002028217905092915050565b610e7e82610a5d565b67ffffffffffffffff811115610e9757610e966108bc565b5b610ea18254610c98565b610eac828285610de8565b600060209050601f831160018114610edf5760008415610ecd578287015190505b610ed78582610e59565b865550610f3f565b601f198416610eed86610cc9565b60005b82811015610f1557848901518255600182019150602085019450602081019050610ef0565b86831015610f325784890151610f2e601f891682610e3b565b8355505b6001600288020188555050505b505050505050565b60006020820190508181036000830152610f618184610aa3565b905092915050565b7f4f776e61626c653a206e6577206f776e657220697320746865207a65726f206160008201527f6464726573730000000000000000000000000000000000000000000000000000602082015250565b6000610fc5602683610a68565b9150610fd082610f69565b604082019050919050565b60006020820190508181036000830152610ff481610fb8565b9050919050565b7f4f776e61626c653a2063616c6c6572206973206e6f7420746865206f776e6572600082015250565b6000611031602083610a68565b915061103c82610ffb565b602082019050919050565b6000602082019050818103600083015261106081611024565b905091905056fea2646970667358221220fd42271d927675982589302e3276e14862fc7de0f5b62092696ca1d11c02e74d64736f6c63430008130033",
  "linkReferences": {},
  "deployedLinkReferences": {}
}