{
  "_format": "hh-sol-artifact-1",
  "contractName": "FootballTeam",
  "sourceName": "contracts/FootballTeam.sol",
  "abi": [
    {
      "inputs": [],
      "stateMutability": "nonpayable",
      "type": "constructor"
    },
    {
      "anonymous": false,
      "inputs": [
        {
          "indexed": true,
          "internalType": "address",
          "name": "previousOwner",
          "type": "address"
        },
        {
          "indexed": true,
          "internalType": "address",
          "name": "newOwner",
          "type": "address"
        }
      ],
      "name": "OwnershipTransferred",
      "type": "event"
    },
    {
      "anonymous": false,
      "inputs": [
        {
          "indexed": true,
          "internalType": "address",
          "name": "team",
          "type": "address"
        },
        {
          "indexed": false,
          "internalType": "uint256",
          "name": "playerId",
          "type": "uint256"
        }
      ],
      "name": "PlayerAdded",
      "type": "event"
    },
    {
      "anonymous": false,
      "inputs": [
        {
          "indexed": true,
          "internalType": "address",
          "name": "owner",
          "type": "address"
        },
        {
          "indexed": false,
          "internalType": "string",
          "name": "name",
          "type": "string"
        }
      ],
      "name": "TeamCreated",
      "type": "event"
    },
    {
      "inputs": [
        {
          "internalType": "address",
          "name": "team",
          "type": "address"
        },
        {
          "internalType": "uint256",
          "name": "playerId",
          "type": "uint256"
        }
      ],
      "name": "addPlayerToTeam",
      "outputs": [],
      "stateMutability": "nonpayable",
      "type": "function"
    },
    {
      "inputs": [
        {
          "internalType": "string",
          "name": "name",
          "type": "string"
        }
      ],
      "name": "createTeam",
      "outputs": [],
      "stateMutability": "nonpayable",
      "type": "function"
    },
    {
      "inputs": [],
      "name": "getAllTeamAddresses",
      "outputs": [
        {
          "internalType": "address[]",
          "name": "",
          "type": "address[]"
        }
      ],
      "stateMutability": "view",
      "type": "function"
    },
    {
      "inputs": [
        {
          "internalType": "string",
          "name": "name",
          "type": "string"
        }
      ],
      "name": "getTeamByName",
      "outputs": [
        {
          "internalType": "address",
          "name": "",
          "type": "address"
        }
      ],
      "stateMutability": "view",
      "type": "function"
    },
    {
      "inputs": [
        {
          "internalType": "address",
          "name": "team",
          "type": "address"
        }
      ],
      "name": "getTeamDetails",
      "outputs": [
        {
          "internalType": "string",
          "name": "",
          "type": "string"
        },
        {
          "internalType": "address",
          "name": "",
          "type": "address"
        },
        {
          "internalType": "uint256",
          "name": "",
          "type": "uint256"
        }
      ],
      "stateMutability": "view",
      "type": "function"
    },
    {
      "inputs": [
        {
          "internalType": "string",
          "name": "name",
          "type": "string"
        }
      ],
      "name": "getTeamDetailsByName",
      "outputs": [
        {
          "internalType": "string",
          "name": "",
          "type": "string"
        },
        {
          "internalType": "address",
          "name": "",
          "type": "address"
        },
        {
          "internalType": "uint256",
          "name": "",
          "type": "uint256"
        }
      ],
      "stateMutability": "view",
      "type": "function"
    },
    {
      "inputs": [],
      "name": "maxPlayersPerTeam",
      "outputs": [
        {
          "internalType": "uint256",
          "name": "",
          "type": "uint256"
        }
      ],
      "stateMutability": "view",
      "type": "function"
    },
    {
      "inputs": [],
      "name": "owner",
      "outputs": [
        {
          "internalType": "address",
          "name": "",
          "type": "address"
        }
      ],
      "stateMutability": "view",
      "type": "function"
    },
    {
      "inputs": [],
      "name": "renounceOwnership",
      "outputs": [],
      "stateMutability": "nonpayable",
      "type": "function"
    },
    {
      "inputs": [
        {
          "internalType": "uint256",
          "name": "",
          "type": "uint256"
        }
      ],
      "name": "teamAddresses",
      "outputs": [
        {
          "internalType": "address",
          "name": "",
          "type": "address"
        }
      ],
      "stateMutability": "view",
      "type": "function"
    },
    {
      "inputs": [
        {
          "internalType": "string",
          "name": "",
          "type": "string"
        }
      ],
      "name": "teamByName",
      "outputs": [
        {
          "internalType": "address",
          "name": "",
          "type": "address"
        }
      ],
      "stateMutability": "view",
      "type": "function"
    },
    {
      "inputs": [
        {
          "internalType": "address",
          "name": "",
          "type": "address"
        }
      ],
      "name": "teams",
      "outputs": [
        {
          "internalType": "string",
          "name": "name",
          "type": "string"
        },
        {
          "internalType": "address",
          "name": "owner",
          "type": "address"
        },
        {
          "internalType": "uint256",
          "name": "playerCount",
          "type": "uint256"
        }
      ],
      "stateMutability": "view",
      "type": "function"
    },
    {
      "inputs": [
        {
          "internalType": "address",
          "name": "newOwner",
          "type": "address"
        }
      ],
      "name": "transferOwnership",
      "outputs": [],
      "stateMutability": "nonpayable",
      "type": "function"
    }
  ],
  "bytecode": "0x6080604052601960045534801561001557600080fd5b5061003261002761003760201b60201c565b61003f60201b60201c565b610103565b600033905090565b60008060009054906101000a900473ffffffffffffffffffffffffffffffffffffffff169050816000806101000a81548173ffffffffffffffffffffffffffffffffffffffff021916908373ffffffffffffffffffffffffffffffffffffffff1602179055508173ffffffffffffffffffffffffffffffffffffffff168173ffffffffffffffffffffffffffffffffffffffff167f8be0079c531659141344cd1fd0a4f28419497f9722a3daafe3b4186f6b6457e060405160405180910390a35050565b611ace806101126000396000f3fe608060405234801561001057600080fd5b50600436106100cf5760003560e01c8063715018a61161008c578063c458324011610066578063c458324014610202578063d0aefa5914610234578063d80a25b914610264578063f2fde38b14610296576100cf565b8063715018a6146101be5780638da5cb5b146101c8578063972fa53f146101e6576100cf565b80631c358278146100d45780632419217e1461010457806339a7a872146101345780634313321614610152578063478a2c31146101705780636439c3e5146101a2575b600080fd5b6100ee60048036038101906100e991906110b8565b6102b2565b6040516100fb9190611142565b60405180910390f35b61011e60048036038101906101199190611193565b6102fa565b60405161012b9190611142565b60405180910390f35b61013c610339565b60405161014991906111cf565b60405180910390f35b61015a61033f565b60405161016791906112a8565b60405180910390f35b61018a600480360381019061018591906110b8565b6103cd565b60405161019993929190611349565b60405180910390f35b6101bc60048036038101906101b791906113b3565b61049b565b005b6101c661069c565b005b6101d06106b0565b6040516101dd9190611142565b60405180910390f35b61020060048036038101906101fb91906110b8565b6106d9565b005b61021c600480360381019061021791906113f3565b610a43565b60405161022b93929190611349565b60405180910390f35b61024e600480360381019061024991906110b8565b610b15565b60405161025b9190611142565b60405180910390f35b61027e600480360381019061027991906113f3565b610b5e565b60405161028d93929190611349565b60405180910390f35b6102b060048036038101906102ab91906113f3565b610d91565b005b60006002826040516102c4919061145c565b908152602001604051809103902060009054906101000a900473ffffffffffffffffffffffffffffffffffffffff169050919050565b6003818154811061030a57600080fd5b906000526020600020016000915054906101000a900473ffffffffffffffffffffffffffffffffffffffff1681565b60045481565b606060038054806020026020016040519081016040528092919081815260200182805480156103c357602002820191906000526020600020905b8160009054906101000a900473ffffffffffffffffffffffffffffffffffffffff1673ffffffffffffffffffffffffffffffffffffffff1681526020019060010190808311610379575b5050505050905090565b606060008060006002856040516103e4919061145c565b908152602001604051809103902060009054906101000a900473ffffffffffffffffffffffffffffffffffffffff169050600073ffffffffffffffffffffffffffffffffffffffff168173ffffffffffffffffffffffffffffffffffffffff1603610484576040517f08c379a000000000000000000000000000000000000000000000000000000000815260040161047b906114bf565b60405180910390fd5b61048d81610b5e565b935093509350509193909250565b600073ffffffffffffffffffffffffffffffffffffffff16600160008473ffffffffffffffffffffffffffffffffffffffff1673ffffffffffffffffffffffffffffffffffffffff16815260200190815260200160002060010160009054906101000a900473ffffffffffffffffffffffffffffffffffffffff1673ffffffffffffffffffffffffffffffffffffffff160361056c576040517f08c379a0000000000000000000000000000000000000000000000000000000008152600401610563906114bf565b60405180910390fd5b600454600160008473ffffffffffffffffffffffffffffffffffffffff1673ffffffffffffffffffffffffffffffffffffffff16815260200190815260200160002060020154106105f2576040517f08c379a00000000000000000000000000000000000000000000000000000000081526004016105e99061152b565b60405180910390fd5b600160008373ffffffffffffffffffffffffffffffffffffffff1673ffffffffffffffffffffffffffffffffffffffff16815260200190815260200160002060020160008154809291906106459061157a565b91905055508173ffffffffffffffffffffffffffffffffffffffff167f0c1de8e9993c058a253c96414b4215583b25fa35e1b6e0facf4d5a0dc2a6f3f88260405161069091906111cf565b60405180910390a25050565b6106a4610e14565b6106ae6000610e92565b565b60008060009054906101000a900473ffffffffffffffffffffffffffffffffffffffff16905090565b600073ffffffffffffffffffffffffffffffffffffffff16600160003373ffffffffffffffffffffffffffffffffffffffff1673ffffffffffffffffffffffffffffffffffffffff16815260200190815260200160002060010160009054906101000a900473ffffffffffffffffffffffffffffffffffffffff1673ffffffffffffffffffffffffffffffffffffffff16146107aa576040517f08c379a00000000000000000000000000000000000000000000000000000000081526004016107a19061160e565b60405180910390fd5b600073ffffffffffffffffffffffffffffffffffffffff166002826040516107d2919061145c565b908152602001604051809103902060009054906101000a900473ffffffffffffffffffffffffffffffffffffffff1673ffffffffffffffffffffffffffffffffffffffff1614610857576040517f08c379a000000000000000000000000000000000000000000000000000000000815260040161084e9061167a565b60405180910390fd5b60405180606001604052808281526020013373ffffffffffffffffffffffffffffffffffffffff1681526020016000815250600160003373ffffffffffffffffffffffffffffffffffffffff1673ffffffffffffffffffffffffffffffffffffffff16815260200190815260200160002060008201518160000190816108dd91906118a6565b5060208201518160010160006101000a81548173ffffffffffffffffffffffffffffffffffffffff021916908373ffffffffffffffffffffffffffffffffffffffff1602179055506040820151816002015590505033600282604051610943919061145c565b908152602001604051809103902060006101000a81548173ffffffffffffffffffffffffffffffffffffffff021916908373ffffffffffffffffffffffffffffffffffffffff1602179055506003339080600181540180825580915050600190039060005260206000200160009091909190916101000a81548173ffffffffffffffffffffffffffffffffffffffff021916908373ffffffffffffffffffffffffffffffffffffffff1602179055503373ffffffffffffffffffffffffffffffffffffffff167f3613f8ac0cc52c4428042fe442f289fc083df030de5859192dce0bfb7bc3879582604051610a389190611978565b60405180910390a250565b6001602052806000526040600020600091509050806000018054610a66906116c9565b80601f0160208091040260200160405190810160405280929190818152602001828054610a92906116c9565b8015610adf5780601f10610ab457610100808354040283529160200191610adf565b820191906000526020600020905b815481529060010190602001808311610ac257829003601f168201915b5050505050908060010160009054906101000a900473ffffffffffffffffffffffffffffffffffffffff16908060020154905083565b6002818051602081018201805184825260208301602085012081835280955050505050506000915054906101000a900473ffffffffffffffffffffffffffffffffffffffff1681565b6060600080600073ffffffffffffffffffffffffffffffffffffffff16600160008673ffffffffffffffffffffffffffffffffffffffff1673ffffffffffffffffffffffffffffffffffffffff16815260200190815260200160002060010160009054906101000a900473ffffffffffffffffffffffffffffffffffffffff1673ffffffffffffffffffffffffffffffffffffffff1603610c34576040517f08c379a0000000000000000000000000000000000000000000000000000000008152600401610c2b906114bf565b60405180910390fd5b6000600160008673ffffffffffffffffffffffffffffffffffffffff1673ffffffffffffffffffffffffffffffffffffffff168152602001908152602001600020604051806060016040529081600082018054610c90906116c9565b80601f0160208091040260200160405190810160405280929190818152602001828054610cbc906116c9565b8015610d095780601f10610cde57610100808354040283529160200191610d09565b820191906000526020600020905b815481529060010190602001808311610cec57829003601f168201915b505050505081526020016001820160009054906101000a900473ffffffffffffffffffffffffffffffffffffffff1673ffffffffffffffffffffffffffffffffffffffff1673ffffffffffffffffffffffffffffffffffffffff1681526020016002820154815250509050806000015181602001518260400151935093509350509193909250565b610d99610e14565b600073ffffffffffffffffffffffffffffffffffffffff168173ffffffffffffffffffffffffffffffffffffffff1603610e08576040517f08c379a0000000000000000000000000000000000000000000000000000000008152600401610dff90611a0c565b60405180910390fd5b610e1181610e92565b50565b610e1c610f56565b73ffffffffffffffffffffffffffffffffffffffff16610e3a6106b0565b73ffffffffffffffffffffffffffffffffffffffff1614610e90576040517f08c379a0000000000000000000000000000000000000000000000000000000008152600401610e8790611a78565b60405180910390fd5b565b60008060009054906101000a900473ffffffffffffffffffffffffffffffffffffffff169050816000806101000a81548173ffffffffffffffffffffffffffffffffffffffff021916908373ffffffffffffffffffffffffffffffffffffffff1602179055508173ffffffffffffffffffffffffffffffffffffffff168173ffffffffffffffffffffffffffffffffffffffff167f8be0079c531659141344cd1fd0a4f28419497f9722a3daafe3b4186f6b6457e060405160405180910390a35050565b600033905090565b6000604051905090565b600080fd5b600080fd5b600080fd5b600080fd5b6000601f19601f8301169050919050565b7f4e487b7100000000000000000000000000000000000000000000000000000000600052604160045260246000fd5b610fc582610f7c565b810181811067ffffffffffffffff82111715610fe457610fe3610f8d565b5b80604052505050565b6000610ff7610f5e565b90506110038282610fbc565b919050565b600067ffffffffffffffff82111561102357611022610f8d565b5b61102c82610f7c565b9050602081019050919050565b82818337600083830152505050565b600061105b61105684611008565b610fed565b90508281526020810184848401111561107757611076610f77565b5b611082848285611039565b509392505050565b600082601f83011261109f5761109e610f72565b5b81356110af848260208601611048565b91505092915050565b6000602082840312156110ce576110cd610f68565b5b600082013567ffffffffffffffff8111156110ec576110eb610f6d565b5b6110f88482850161108a565b91505092915050565b600073ffffffffffffffffffffffffffffffffffffffff82169050919050565b600061112c82611101565b9050919050565b61113c81611121565b82525050565b60006020820190506111576000830184611133565b92915050565b6000819050919050565b6111708161115d565b811461117b57600080fd5b50565b60008135905061118d81611167565b92915050565b6000602082840312156111a9576111a8610f68565b5b60006111b78482850161117e565b91505092915050565b6111c98161115d565b82525050565b60006020820190506111e460008301846111c0565b92915050565b600081519050919050565b600082825260208201905092915050565b6000819050602082019050919050565b61121f81611121565b82525050565b60006112318383611216565b60208301905092915050565b6000602082019050919050565b6000611255826111ea565b61125f81856111f5565b935061126a83611206565b8060005b8381101561129b5781516112828882611225565b975061128d8361123d565b92505060018101905061126e565b5085935050505092915050565b600060208201905081810360008301526112c2818461124a565b905092915050565b600081519050919050565b600082825260208201905092915050565b60005b838110156113045780820151818401526020810190506112e9565b60008484015250505050565b600061131b826112ca565b61132581856112d5565b93506113358185602086016112e6565b61133e81610f7c565b840191505092915050565b600060608201905081810360008301526113638186611310565b90506113726020830185611133565b61137f60408301846111c0565b949350505050565b61139081611121565b811461139b57600080fd5b50565b6000813590506113ad81611387565b92915050565b600080604083850312156113ca576113c9610f68565b5b60006113d88582860161139e565b92505060206113e98582860161117e565b9150509250929050565b60006020828403121561140957611408610f68565b5b60006114178482850161139e565b91505092915050565b600081905092915050565b6000611436826112ca565b6114408185611420565b93506114508185602086016112e6565b80840191505092915050565b6000611468828461142b565b915081905092915050565b7f5465616d20646f6573206e6f7420657869737400000000000000000000000000600082015250565b60006114a96013836112d5565b91506114b482611473565b602082019050919050565b600060208201905081810360008301526114d88161149c565b9050919050565b7f5465616d2069732066756c6c0000000000000000000000000000000000000000600082015250565b6000611515600c836112d5565b9150611520826114df565b602082019050919050565b6000602082019050818103600083015261154481611508565b9050919050565b7f4e487b7100000000000000000000000000000000000000000000000000000000600052601160045260246000fd5b60006115858261115d565b91507fffffffffffffffffffffffffffffffffffffffffffffffffffffffffffffffff82036115b7576115b661154b565b5b600182019050919050565b7f5465616d20616c72656164792065786973747300000000000000000000000000600082015250565b60006115f86013836112d5565b9150611603826115c2565b602082019050919050565b60006020820190508181036000830152611627816115eb565b9050919050565b7f5465616d206e616d6520616c72656164792074616b656e000000000000000000600082015250565b60006116646017836112d5565b915061166f8261162e565b602082019050919050565b6000602082019050818103600083015261169381611657565b9050919050565b7f4e487b7100000000000000000000000000000000000000000000000000000000600052602260045260246000fd5b600060028204905060018216806116e157607f821691505b6020821081036116f4576116f361169a565b5b50919050565b60008190508160005260206000209050919050565b60006020601f8301049050919050565b600082821b905092915050565b60006008830261175c7fffffffffffffffffffffffffffffffffffffffffffffffffffffffffffffffff8261171f565b611766868361171f565b95508019841693508086168417925050509392505050565b6000819050919050565b60006117a361179e6117998461115d565b61177e565b61115d565b9050919050565b6000819050919050565b6117bd83611788565b6117d16117c9826117aa565b84845461172c565b825550505050565b600090565b6117e66117d9565b6117f18184846117b4565b505050565b5b818110156118155761180a6000826117de565b6001810190506117f7565b5050565b601f82111561185a5761182b816116fa565b6118348461170f565b81016020851015611843578190505b61185761184f8561170f565b8301826117f6565b50505b505050565b600082821c905092915050565b600061187d6000198460080261185f565b1980831691505092915050565b6000611896838361186c565b9150826002028217905092915050565b6118af826112ca565b67ffffffffffffffff8111156118c8576118c7610f8d565b5b6118d282546116c9565b6118dd828285611819565b600060209050601f83116001811461191057600084156118fe578287015190505b611908858261188a565b865550611970565b601f19841661191e866116fa565b60005b8281101561194657848901518255600182019150602085019450602081019050611921565b86831015611963578489015161195f601f89168261186c565b8355505b6001600288020188555050505b505050505050565b600060208201905081810360008301526119928184611310565b905092915050565b7f4f776e61626c653a206e6577206f776e657220697320746865207a65726f206160008201527f6464726573730000000000000000000000000000000000000000000000000000602082015250565b60006119f66026836112d5565b9150611a018261199a565b604082019050919050565b60006020820190508181036000830152611a25816119e9565b9050919050565b7f4f776e61626c653a2063616c6c6572206973206e6f7420746865206f776e6572600082015250565b6000611a626020836112d5565b9150611a6d82611a2c565b602082019050919050565b60006020820190508181036000830152611a9181611a55565b905091905056fea2646970667358221220fd85a2da7fc07f3f7f69de8b67a2cd8bc40f0b12e439be2dfed80f7b9c5d1d1864736f6c63430008130033",
  "linkReferences": {},
  "deployedLinkReferences": {}
}