{
  "_format": "hh-sol-artifact-1",
  "contractName": "FootballTeam",
  "sourceName": "contracts/FootballTeam.sol",
  "abi": [
    {
      "inputs": [],
      "stateMutability": "nonpayable",
      "type": "constructor"
    },
    {
      "anonymous": false,
      "inputs": [
        {
          "indexed": true,
          "internalType": "address",
          "name": "previousOwner",
          "type": "address"
        },
        {
          "indexed": true,
          "internalType": "address",
          "name": "newOwner",
          "type": "address"
        }
      ],
      "name": "OwnershipTransferred",
      "type": "event"
    },
    {
      "anonymous": false,
      "inputs": [
        {
          "indexed": true,
          "internalType": "address",
          "name": "team",
          "type": "address"
        },
        {
          "indexed": false,
          "internalType": "uint256",
          "name": "playerId",
          "type": "uint256"
        }
      ],
      "name": "PlayerAdded",
      "type": "event"
    },
    {
      "anonymous": false,
      "inputs": [
        {
          "indexed": true,
          "internalType": "address",
          "name": "owner",
          "type": "address"
        },
        {
          "indexed": false,
          "internalType": "string",
          "name": "name",
          "type": "string"
        }
      ],
      "name": "TeamCreated",
      "type": "event"
    },
    {
      "inputs": [
        {
          "internalType": "address",
          "name": "team",
          "type": "address"
        },
        {
          "internalType": "uint256",
          "name": "playerId",
          "type": "uint256"
        }
      ],
      "name": "addPlayerToTeam",
      "outputs": [],
      "stateMutability": "nonpayable",
      "type": "function"
    },
    {
      "inputs": [
        {
          "internalType": "string",
          "name": "name",
          "type": "string"
        }
      ],
      "name": "createTeam",
      "outputs": [],
      "stateMutability": "nonpayable",
      "type": "function"
    },
    {
      "inputs": [],
      "name": "getAllTeamAddresses",
      "outputs": [
        {
          "internalType": "address[]",
          "name": "",
          "type": "address[]"
        }
      ],
      "stateMutability": "view",
      "type": "function"
    },
    {
      "inputs": [],
      "name": "maxPlayersPerTeam",
      "outputs": [
        {
          "internalType": "uint256",
          "name": "",
          "type": "uint256"
        }
      ],
      "stateMutability": "view",
      "type": "function"
    },
    {
      "inputs": [],
      "name": "owner",
      "outputs": [
        {
          "internalType": "address",
          "name": "",
          "type": "address"
        }
      ],
      "stateMutability": "view",
      "type": "function"
    },
    {
      "inputs": [],
      "name": "renounceOwnership",
      "outputs": [],
      "stateMutability": "nonpayable",
      "type": "function"
    },
    {
      "inputs": [
        {
          "internalType": "uint256",
          "name": "",
          "type": "uint256"
        }
      ],
      "name": "teamAddresses",
      "outputs": [
        {
          "internalType": "address",
          "name": "",
          "type": "address"
        }
      ],
      "stateMutability": "view",
      "type": "function"
    },
    {
      "inputs": [
        {
          "internalType": "string",
          "name": "",
          "type": "string"
        }
      ],
      "name": "teamNames",
      "outputs": [
        {
          "internalType": "bool",
          "name": "",
          "type": "bool"
        }
      ],
      "stateMutability": "view",
      "type": "function"
    },
    {
      "inputs": [
        {
          "internalType": "address",
          "name": "",
          "type": "address"
        }
      ],
      "name": "teams",
      "outputs": [
        {
          "internalType": "string",
          "name": "name",
          "type": "string"
        },
        {
          "internalType": "address",
          "name": "owner",
          "type": "address"
        },
        {
          "internalType": "uint256",
          "name": "playerCount",
          "type": "uint256"
        }
      ],
      "stateMutability": "view",
      "type": "function"
    },
    {
      "inputs": [
        {
          "internalType": "address",
          "name": "newOwner",
          "type": "address"
        }
      ],
      "name": "transferOwnership",
      "outputs": [],
      "stateMutability": "nonpayable",
      "type": "function"
    }
  ],
  "bytecode": "0x6080604052601960035534801561001557600080fd5b5061003261002761003760201b60201c565b61003f60201b60201c565b610103565b600033905090565b60008060009054906101000a900473ffffffffffffffffffffffffffffffffffffffff169050816000806101000a81548173ffffffffffffffffffffffffffffffffffffffff021916908373ffffffffffffffffffffffffffffffffffffffff1602179055508173ffffffffffffffffffffffffffffffffffffffff168173ffffffffffffffffffffffffffffffffffffffff167f8be0079c531659141344cd1fd0a4f28419497f9722a3daafe3b4186f6b6457e060405160405180910390a35050565b611547806101126000396000f3fe608060405234801561001057600080fd5b506004361061009e5760003560e01c8063715018a611610066578063715018a61461015b5780638da5cb5b14610165578063972fa53f14610183578063c45832401461019f578063f2fde38b146101d15761009e565b80632419217e146100a357806339a7a872146100d357806343133216146100f15780636439c3e51461010f5780636e6964d71461012b575b600080fd5b6100bd60048036038101906100b89190610a57565b6101ed565b6040516100ca9190610ac5565b60405180910390f35b6100db61022c565b6040516100e89190610aef565b60405180910390f35b6100f9610232565b6040516101069190610bc8565b60405180910390f35b61012960048036038101906101249190610c16565b6102c0565b005b61014560048036038101906101409190610d9c565b6103f8565b6040516101529190610e00565b60405180910390f35b61016361042e565b005b61016d610442565b60405161017a9190610ac5565b60405180910390f35b61019d60048036038101906101989190610d9c565b61046b565b005b6101b960048036038101906101b49190610e1b565b61076e565b6040516101c893929190610ec7565b60405180910390f35b6101eb60048036038101906101e69190610e1b565b610840565b005b600281815481106101fd57600080fd5b906000526020600020016000915054906101000a900473ffffffffffffffffffffffffffffffffffffffff1681565b60035481565b606060028054806020026020016040519081016040528092919081815260200182805480156102b657602002820191906000526020600020905b8160009054906101000a900473ffffffffffffffffffffffffffffffffffffffff1673ffffffffffffffffffffffffffffffffffffffff168152602001906001019080831161026c575b5050505050905090565b6102c86108c3565b600354600160008473ffffffffffffffffffffffffffffffffffffffff1673ffffffffffffffffffffffffffffffffffffffff168152602001908152602001600020600201541061034e576040517f08c379a000000000000000000000000000000000000000000000000000000000815260040161034590610f51565b60405180910390fd5b600160008373ffffffffffffffffffffffffffffffffffffffff1673ffffffffffffffffffffffffffffffffffffffff16815260200190815260200160002060020160008154809291906103a190610fa0565b91905055508173ffffffffffffffffffffffffffffffffffffffff167f0c1de8e9993c058a253c96414b4215583b25fa35e1b6e0facf4d5a0dc2a6f3f8826040516103ec9190610aef565b60405180910390a25050565b6004818051602081018201805184825260208301602085012081835280955050505050506000915054906101000a900460ff1681565b6104366108c3565b6104406000610941565b565b60008060009054906101000a900473ffffffffffffffffffffffffffffffffffffffff16905090565b600073ffffffffffffffffffffffffffffffffffffffff16600160003373ffffffffffffffffffffffffffffffffffffffff1673ffffffffffffffffffffffffffffffffffffffff16815260200190815260200160002060010160009054906101000a900473ffffffffffffffffffffffffffffffffffffffff1673ffffffffffffffffffffffffffffffffffffffff161461053c576040517f08c379a000000000000000000000000000000000000000000000000000000000815260040161053390611034565b60405180910390fd5b60048160405161054c9190611090565b908152602001604051809103902060009054906101000a900460ff16156105a8576040517f08c379a000000000000000000000000000000000000000000000000000000000815260040161059f906110f3565b60405180910390fd5b60405180606001604052808281526020013373ffffffffffffffffffffffffffffffffffffffff1681526020016000815250600160003373ffffffffffffffffffffffffffffffffffffffff1673ffffffffffffffffffffffffffffffffffffffff168152602001908152602001600020600082015181600001908161062e919061131f565b5060208201518160010160006101000a81548173ffffffffffffffffffffffffffffffffffffffff021916908373ffffffffffffffffffffffffffffffffffffffff160217905550604082015181600201559050506002339080600181540180825580915050600190039060005260206000200160009091909190916101000a81548173ffffffffffffffffffffffffffffffffffffffff021916908373ffffffffffffffffffffffffffffffffffffffff16021790555060016004826040516106f89190611090565b908152602001604051809103902060006101000a81548160ff0219169083151502179055503373ffffffffffffffffffffffffffffffffffffffff167f3613f8ac0cc52c4428042fe442f289fc083df030de5859192dce0bfb7bc387958260405161076391906113f1565b60405180910390a250565b600160205280600052604060002060009150905080600001805461079190611142565b80601f01602080910402602001604051908101604052809291908181526020018280546107bd90611142565b801561080a5780601f106107df5761010080835404028352916020019161080a565b820191906000526020600020905b8154815290600101906020018083116107ed57829003601f168201915b5050505050908060010160009054906101000a900473ffffffffffffffffffffffffffffffffffffffff16908060020154905083565b6108486108c3565b600073ffffffffffffffffffffffffffffffffffffffff168173ffffffffffffffffffffffffffffffffffffffff16036108b7576040517f08c379a00000000000000000000000000000000000000000000000000000000081526004016108ae90611485565b60405180910390fd5b6108c081610941565b50565b6108cb610a05565b73ffffffffffffffffffffffffffffffffffffffff166108e9610442565b73ffffffffffffffffffffffffffffffffffffffff161461093f576040517f08c379a0000000000000000000000000000000000000000000000000000000008152600401610936906114f1565b60405180910390fd5b565b60008060009054906101000a900473ffffffffffffffffffffffffffffffffffffffff169050816000806101000a81548173ffffffffffffffffffffffffffffffffffffffff021916908373ffffffffffffffffffffffffffffffffffffffff1602179055508173ffffffffffffffffffffffffffffffffffffffff168173ffffffffffffffffffffffffffffffffffffffff167f8be0079c531659141344cd1fd0a4f28419497f9722a3daafe3b4186f6b6457e060405160405180910390a35050565b600033905090565b6000604051905090565b600080fd5b600080fd5b6000819050919050565b610a3481610a21565b8114610a3f57600080fd5b50565b600081359050610a5181610a2b565b92915050565b600060208284031215610a6d57610a6c610a17565b5b6000610a7b84828501610a42565b91505092915050565b600073ffffffffffffffffffffffffffffffffffffffff82169050919050565b6000610aaf82610a84565b9050919050565b610abf81610aa4565b82525050565b6000602082019050610ada6000830184610ab6565b92915050565b610ae981610a21565b82525050565b6000602082019050610b046000830184610ae0565b92915050565b600081519050919050565b600082825260208201905092915050565b6000819050602082019050919050565b610b3f81610aa4565b82525050565b6000610b518383610b36565b60208301905092915050565b6000602082019050919050565b6000610b7582610b0a565b610b7f8185610b15565b9350610b8a83610b26565b8060005b83811015610bbb578151610ba28882610b45565b9750610bad83610b5d565b925050600181019050610b8e565b5085935050505092915050565b60006020820190508181036000830152610be28184610b6a565b905092915050565b610bf381610aa4565b8114610bfe57600080fd5b50565b600081359050610c1081610bea565b92915050565b60008060408385031215610c2d57610c2c610a17565b5b6000610c3b85828601610c01565b9250506020610c4c85828601610a42565b9150509250929050565b600080fd5b600080fd5b6000601f19601f8301169050919050565b7f4e487b7100000000000000000000000000000000000000000000000000000000600052604160045260246000fd5b610ca982610c60565b810181811067ffffffffffffffff82111715610cc857610cc7610c71565b5b80604052505050565b6000610cdb610a0d565b9050610ce78282610ca0565b919050565b600067ffffffffffffffff821115610d0757610d06610c71565b5b610d1082610c60565b9050602081019050919050565b82818337600083830152505050565b6000610d3f610d3a84610cec565b610cd1565b905082815260208101848484011115610d5b57610d5a610c5b565b5b610d66848285610d1d565b509392505050565b600082601f830112610d8357610d82610c56565b5b8135610d93848260208601610d2c565b91505092915050565b600060208284031215610db257610db1610a17565b5b600082013567ffffffffffffffff811115610dd057610dcf610a1c565b5b610ddc84828501610d6e565b91505092915050565b60008115159050919050565b610dfa81610de5565b82525050565b6000602082019050610e156000830184610df1565b92915050565b600060208284031215610e3157610e30610a17565b5b6000610e3f84828501610c01565b91505092915050565b600081519050919050565b600082825260208201905092915050565b60005b83811015610e82578082015181840152602081019050610e67565b60008484015250505050565b6000610e9982610e48565b610ea38185610e53565b9350610eb3818560208601610e64565b610ebc81610c60565b840191505092915050565b60006060820190508181036000830152610ee18186610e8e565b9050610ef06020830185610ab6565b610efd6040830184610ae0565b949350505050565b7f5465616d2069732066756c6c0000000000000000000000000000000000000000600082015250565b6000610f3b600c83610e53565b9150610f4682610f05565b602082019050919050565b60006020820190508181036000830152610f6a81610f2e565b9050919050565b7f4e487b7100000000000000000000000000000000000000000000000000000000600052601160045260246000fd5b6000610fab82610a21565b91507fffffffffffffffffffffffffffffffffffffffffffffffffffffffffffffffff8203610fdd57610fdc610f71565b5b600182019050919050565b7f5465616d20616c72656164792065786973747300000000000000000000000000600082015250565b600061101e601383610e53565b915061102982610fe8565b602082019050919050565b6000602082019050818103600083015261104d81611011565b9050919050565b600081905092915050565b600061106a82610e48565b6110748185611054565b9350611084818560208601610e64565b80840191505092915050565b600061109c828461105f565b915081905092915050565b7f5465616d206e616d6520616c72656164792074616b656e000000000000000000600082015250565b60006110dd601783610e53565b91506110e8826110a7565b602082019050919050565b6000602082019050818103600083015261110c816110d0565b9050919050565b7f4e487b7100000000000000000000000000000000000000000000000000000000600052602260045260246000fd5b6000600282049050600182168061115a57607f821691505b60208210810361116d5761116c611113565b5b50919050565b60008190508160005260206000209050919050565b60006020601f8301049050919050565b600082821b905092915050565b6000600883026111d57fffffffffffffffffffffffffffffffffffffffffffffffffffffffffffffffff82611198565b6111df8683611198565b95508019841693508086168417925050509392505050565b6000819050919050565b600061121c61121761121284610a21565b6111f7565b610a21565b9050919050565b6000819050919050565b61123683611201565b61124a61124282611223565b8484546111a5565b825550505050565b600090565b61125f611252565b61126a81848461122d565b505050565b5b8181101561128e57611283600082611257565b600181019050611270565b5050565b601f8211156112d3576112a481611173565b6112ad84611188565b810160208510156112bc578190505b6112d06112c885611188565b83018261126f565b50505b505050565b600082821c905092915050565b60006112f6600019846008026112d8565b1980831691505092915050565b600061130f83836112e5565b9150826002028217905092915050565b61132882610e48565b67ffffffffffffffff81111561134157611340610c71565b5b61134b8254611142565b611356828285611292565b600060209050601f8311600181146113895760008415611377578287015190505b6113818582611303565b8655506113e9565b601f19841661139786611173565b60005b828110156113bf5784890151825560018201915060208501945060208101905061139a565b868310156113dc57848901516113d8601f8916826112e5565b8355505b6001600288020188555050505b505050505050565b6000602082019050818103600083015261140b8184610e8e565b905092915050565b7f4f776e61626c653a206e6577206f776e657220697320746865207a65726f206160008201527f6464726573730000000000000000000000000000000000000000000000000000602082015250565b600061146f602683610e53565b915061147a82611413565b604082019050919050565b6000602082019050818103600083015261149e81611462565b9050919050565b7f4f776e61626c653a2063616c6c6572206973206e6f7420746865206f776e6572600082015250565b60006114db602083610e53565b91506114e6826114a5565b602082019050919050565b6000602082019050818103600083015261150a816114ce565b905091905056fea264697066735822122081e6e28fed7f64f25d4e0ece327e64e64fb77d0c47e154151a6b24d1a205363d64736f6c63430008130033",
  "linkReferences": {},
  "deployedLinkReferences": {}
}