{
  "_format": "hh-sol-artifact-1",
  "contractName": "SimplePlayerCard",
  "sourceName": "contracts/SimplePlayerCard.sol",
  "abi": [
    {
      "inputs": [],
      "stateMutability": "nonpayable",
      "type": "constructor"
    },
    {
      "anonymous": false,
      "inputs": [
        {
          "indexed": true,
          "internalType": "address",
          "name": "owner",
          "type": "address"
        },
        {
          "indexed": true,
          "internalType": "address",
          "name": "approved",
          "type": "address"
        },
        {
          "indexed": true,
          "internalType": "uint256",
          "name": "tokenId",
          "type": "uint256"
        }
      ],
      "name": "Approval",
      "type": "event"
    },
    {
      "anonymous": false,
      "inputs": [
        {
          "indexed": true,
          "internalType": "address",
          "name": "owner",
          "type": "address"
        },
        {
          "indexed": true,
          "internalType": "address",
          "name": "operator",
          "type": "address"
        },
        {
          "indexed": false,
          "internalType": "bool",
          "name": "approved",
          "type": "bool"
        }
      ],
      "name": "ApprovalForAll",
      "type": "event"
    },
    {
      "anonymous": false,
      "inputs": [
        {
          "indexed": true,
          "internalType": "address",
          "name": "previousOwner",
          "type": "address"
        },
        {
          "indexed": true,
          "internalType": "address",
          "name": "newOwner",
          "type": "address"
        }
      ],
      "name": "OwnershipTransferred",
      "type": "event"
    },
    {
      "anonymous": false,
      "inputs": [
        {
          "indexed": true,
          "internalType": "address",
          "name": "from",
          "type": "address"
        },
        {
          "indexed": true,
          "internalType": "address",
          "name": "to",
          "type": "address"
        },
        {
          "indexed": true,
          "internalType": "uint256",
          "name": "tokenId",
          "type": "uint256"
        }
      ],
      "name": "Transfer",
      "type": "event"
    },
    {
      "inputs": [
        {
          "internalType": "string",
          "name": "_name",
          "type": "string"
        },
        {
          "internalType": "string",
          "name": "_cardType",
          "type": "string"
        },
        {
          "internalType": "string",
          "name": "_value",
          "type": "string"
        },
        {
          "internalType": "string",
          "name": "_hash",
          "type": "string"
        }
      ],
      "name": "addCard",
      "outputs": [],
      "stateMutability": "nonpayable",
      "type": "function"
    },
    {
      "inputs": [
        {
          "internalType": "address",
          "name": "to",
          "type": "address"
        },
        {
          "internalType": "uint256",
          "name": "tokenId",
          "type": "uint256"
        }
      ],
      "name": "approve",
      "outputs": [],
      "stateMutability": "nonpayable",
      "type": "function"
    },
    {
      "inputs": [
        {
          "internalType": "address",
          "name": "owner",
          "type": "address"
        }
      ],
      "name": "balanceOf",
      "outputs": [
        {
          "internalType": "uint256",
          "name": "",
          "type": "uint256"
        }
      ],
      "stateMutability": "view",
      "type": "function"
    },
    {
      "inputs": [
        {
          "internalType": "uint256",
          "name": "",
          "type": "uint256"
        }
      ],
      "name": "cards",
      "outputs": [
        {
          "internalType": "string",
          "name": "name",
          "type": "string"
        },
        {
          "internalType": "string",
          "name": "cardType",
          "type": "string"
        },
        {
          "internalType": "string",
          "name": "value",
          "type": "string"
        },
        {
          "internalType": "string",
          "name": "hash",
          "type": "string"
        },
        {
          "internalType": "uint256",
          "name": "createdAt",
          "type": "uint256"
        }
      ],
      "stateMutability": "view",
      "type": "function"
    },
    {
      "inputs": [],
      "name": "getAdmin",
      "outputs": [
        {
          "internalType": "address",
          "name": "",
          "type": "address"
        }
      ],
      "stateMutability": "view",
      "type": "function"
    },
    {
      "inputs": [
        {
          "internalType": "uint256",
          "name": "tokenId",
          "type": "uint256"
        }
      ],
      "name": "getApproved",
      "outputs": [
        {
          "internalType": "address",
          "name": "",
          "type": "address"
        }
      ],
      "stateMutability": "view",
      "type": "function"
    },
    {
      "inputs": [
        {
          "internalType": "address",
          "name": "owner",
          "type": "address"
        },
        {
          "internalType": "address",
          "name": "operator",
          "type": "address"
        }
      ],
      "name": "isApprovedForAll",
      "outputs": [
        {
          "internalType": "bool",
          "name": "",
          "type": "bool"
        }
      ],
      "stateMutability": "view",
      "type": "function"
    },
    {
      "inputs": [],
      "name": "name",
      "outputs": [
        {
          "internalType": "string",
          "name": "",
          "type": "string"
        }
      ],
      "stateMutability": "view",
      "type": "function"
    },
    {
      "inputs": [],
      "name": "owner",
      "outputs": [
        {
          "internalType": "address",
          "name": "",
          "type": "address"
        }
      ],
      "stateMutability": "view",
      "type": "function"
    },
    {
      "inputs": [
        {
          "internalType": "uint256",
          "name": "tokenId",
          "type": "uint256"
        }
      ],
      "name": "ownerOf",
      "outputs": [
        {
          "internalType": "address",
          "name": "",
          "type": "address"
        }
      ],
      "stateMutability": "view",
      "type": "function"
    },
    {
      "inputs": [],
      "name": "renounceOwnership",
      "outputs": [],
      "stateMutability": "nonpayable",
      "type": "function"
    },
    {
      "inputs": [
        {
          "internalType": "address",
          "name": "from",
          "type": "address"
        },
        {
          "internalType": "address",
          "name": "to",
          "type": "address"
        },
        {
          "internalType": "uint256",
          "name": "tokenId",
          "type": "uint256"
        }
      ],
      "name": "safeTransferFrom",
      "outputs": [],
      "stateMutability": "nonpayable",
      "type": "function"
    },
    {
      "inputs": [
        {
          "internalType": "address",
          "name": "from",
          "type": "address"
        },
        {
          "internalType": "address",
          "name": "to",
          "type": "address"
        },
        {
          "internalType": "uint256",
          "name": "tokenId",
          "type": "uint256"
        },
        {
          "internalType": "bytes",
          "name": "data",
          "type": "bytes"
        }
      ],
      "name": "safeTransferFrom",
      "outputs": [],
      "stateMutability": "nonpayable",
      "type": "function"
    },
    {
      "inputs": [
        {
          "internalType": "address",
          "name": "operator",
          "type": "address"
        },
        {
          "internalType": "bool",
          "name": "approved",
          "type": "bool"
        }
      ],
      "name": "setApprovalForAll",
      "outputs": [],
      "stateMutability": "nonpayable",
      "type": "function"
    },
    {
      "inputs": [
        {
          "internalType": "bytes4",
          "name": "interfaceId",
          "type": "bytes4"
        }
      ],
      "name": "supportsInterface",
      "outputs": [
        {
          "internalType": "bool",
          "name": "",
          "type": "bool"
        }
      ],
      "stateMutability": "view",
      "type": "function"
    },
    {
      "inputs": [],
      "name": "symbol",
      "outputs": [
        {
          "internalType": "string",
          "name": "",
          "type": "string"
        }
      ],
      "stateMutability": "view",
      "type": "function"
    },
    {
      "inputs": [
        {
          "internalType": "uint256",
          "name": "tokenId",
          "type": "uint256"
        }
      ],
      "name": "tokenURI",
      "outputs": [
        {
          "internalType": "string",
          "name": "",
          "type": "string"
        }
      ],
      "stateMutability": "view",
      "type": "function"
    },
    {
      "inputs": [
        {
          "internalType": "address",
          "name": "from",
          "type": "address"
        },
        {
          "internalType": "address",
          "name": "to",
          "type": "address"
        },
        {
          "internalType": "uint256",
          "name": "tokenId",
          "type": "uint256"
        }
      ],
      "name": "transferFrom",
      "outputs": [],
      "stateMutability": "nonpayable",
      "type": "function"
    },
    {
      "inputs": [
        {
          "internalType": "address",
          "name": "newOwner",
          "type": "address"
        }
      ],
      "name": "transferOwnership",
      "outputs": [],
      "stateMutability": "nonpayable",
      "type": "function"
    }
  ],
  "bytecode": "0x60806040523480156200001157600080fd5b506040518060400160405280601081526020017f53696d706c65506c6179657243617264000000000000000000000000000000008152506040518060400160405280600381526020017f535043000000000000000000000000000000000000000000000000000000000081525081600090816200008f919062000453565b508060019081620000a1919062000453565b505050620000c4620000b86200010b60201b60201c565b6200011360201b60201c565b33600960006101000a81548173ffffffffffffffffffffffffffffffffffffffff021916908373ffffffffffffffffffffffffffffffffffffffff1602179055506200053a565b600033905090565b6000600660009054906101000a900473ffffffffffffffffffffffffffffffffffffffff16905081600660006101000a81548173ffffffffffffffffffffffffffffffffffffffff021916908373ffffffffffffffffffffffffffffffffffffffff1602179055508173ffffffffffffffffffffffffffffffffffffffff168173ffffffffffffffffffffffffffffffffffffffff167f8be0079c531659141344cd1fd0a4f28419497f9722a3daafe3b4186f6b6457e060405160405180910390a35050565b600081519050919050565b7f4e487b7100000000000000000000000000000000000000000000000000000000600052604160045260246000fd5b7f4e487b7100000000000000000000000000000000000000000000000000000000600052602260045260246000fd5b600060028204905060018216806200025b57607f821691505b60208210810362000271576200027062000213565b5b50919050565b60008190508160005260206000209050919050565b60006020601f8301049050919050565b600082821b905092915050565b600060088302620002db7fffffffffffffffffffffffffffffffffffffffffffffffffffffffffffffffff826200029c565b620002e786836200029c565b95508019841693508086168417925050509392505050565b6000819050919050565b6000819050919050565b6000620003346200032e6200032884620002ff565b62000309565b620002ff565b9050919050565b6000819050919050565b620003508362000313565b620003686200035f826200033b565b848454620002a9565b825550505050565b600090565b6200037f62000370565b6200038c81848462000345565b505050565b5b81811015620003b457620003a860008262000375565b60018101905062000392565b5050565b601f8211156200040357620003cd8162000277565b620003d8846200028c565b81016020851015620003e8578190505b62000400620003f7856200028c565b83018262000391565b50505b505050565b600082821c905092915050565b6000620004286000198460080262000408565b1980831691505092915050565b600062000443838362000415565b9150826002028217905092915050565b6200045e82620001d9565b67ffffffffffffffff8111156200047a5762000479620001e4565b5b62000486825462000242565b62000493828285620003b8565b600060209050601f831160018114620004cb5760008415620004b6578287015190505b620004c2858262000435565b86555062000532565b601f198416620004db8662000277565b60005b828110156200050557848901518255600182019150602085019450602081019050620004de565b8683101562000525578489015162000521601f89168262000415565b8355505b6001600288020188555050505b505050505050565b613169806200054a6000396000f3fe608060405234801561001057600080fd5b50600436106101215760003560e01c8063715018a6116100ad578063a22cb46511610071578063a22cb4651461030c578063b88d4fde14610328578063c87b56dd14610344578063e985e9c514610374578063f2fde38b146103a457610121565b8063715018a61461027657806376df0a80146102805780638da5cb5b1461029c5780638dc10768146102ba57806395d89b41146102ee57610121565b806323b872dd116100f457806323b872dd146101c057806342842e0e146101dc5780636352211e146101f85780636e9960c31461022857806370a082311461024657610121565b806301ffc9a71461012657806306fdde0314610156578063081812fc14610174578063095ea7b3146101a4575b600080fd5b610140600480360381019061013b9190611df9565b6103c0565b60405161014d9190611e41565b60405180910390f35b61015e6104a2565b60405161016b9190611eec565b60405180910390f35b61018e60048036038101906101899190611f44565b610534565b60405161019b9190611fb2565b60405180910390f35b6101be60048036038101906101b99190611ff9565b61057a565b005b6101da60048036038101906101d59190612039565b610691565b005b6101f660048036038101906101f19190612039565b6106f1565b005b610212600480360381019061020d9190611f44565b610711565b60405161021f9190611fb2565b60405180910390f35b610230610797565b60405161023d9190611fb2565b60405180910390f35b610260600480360381019061025b919061208c565b6107c1565b60405161026d91906120c8565b60405180910390f35b61027e610878565b005b61029a60048036038101906102959190612218565b61088c565b005b6102a46109eb565b6040516102b19190611fb2565b60405180910390f35b6102d460048036038101906102cf9190611f44565b610a15565b6040516102e59594939291906122ef565b60405180910390f35b6102f6610c6b565b6040516103039190611eec565b60405180910390f35b6103266004803603810190610321919061238a565b610cfd565b005b610342600480360381019061033d919061246b565b610d13565b005b61035e60048036038101906103599190611f44565b610d75565b60405161036b9190611eec565b60405180910390f35b61038e600480360381019061038991906124ee565b610ddd565b60405161039b9190611e41565b60405180910390f35b6103be60048036038101906103b9919061208c565b610e71565b005b60007f80ac58cd000000000000000000000000000000000000000000000000000000007bffffffffffffffffffffffffffffffffffffffffffffffffffffffff1916827bffffffffffffffffffffffffffffffffffffffffffffffffffffffff1916148061048b57507f5b5e139f000000000000000000000000000000000000000000000000000000007bffffffffffffffffffffffffffffffffffffffffffffffffffffffff1916827bffffffffffffffffffffffffffffffffffffffffffffffffffffffff1916145b8061049b575061049a82610ef4565b5b9050919050565b6060600080546104b19061255d565b80601f01602080910402602001604051908101604052809291908181526020018280546104dd9061255d565b801561052a5780601f106104ff5761010080835404028352916020019161052a565b820191906000526020600020905b81548152906001019060200180831161050d57829003601f168201915b5050505050905090565b600061053f82610f5e565b6004600083815260200190815260200160002060009054906101000a900473ffffffffffffffffffffffffffffffffffffffff169050919050565b600061058582610711565b90508073ffffffffffffffffffffffffffffffffffffffff168373ffffffffffffffffffffffffffffffffffffffff16036105f5576040517f08c379a00000000000000000000000000000000000000000000000000000000081526004016105ec90612600565b60405180910390fd5b8073ffffffffffffffffffffffffffffffffffffffff16610614610fa9565b73ffffffffffffffffffffffffffffffffffffffff16148061064357506106428161063d610fa9565b610ddd565b5b610682576040517f08c379a000000000000000000000000000000000000000000000000000000000815260040161067990612692565b60405180910390fd5b61068c8383610fb1565b505050565b6106a261069c610fa9565b8261106a565b6106e1576040517f08c379a00000000000000000000000000000000000000000000000000000000081526004016106d890612724565b60405180910390fd5b6106ec8383836110ff565b505050565b61070c83838360405180602001604052806000815250610d13565b505050565b60008061071d836113f8565b9050600073ffffffffffffffffffffffffffffffffffffffff168173ffffffffffffffffffffffffffffffffffffffff160361078e576040517f08c379a000000000000000000000000000000000000000000000000000000000815260040161078590612790565b60405180910390fd5b80915050919050565b6000600960009054906101000a900473ffffffffffffffffffffffffffffffffffffffff16905090565b60008073ffffffffffffffffffffffffffffffffffffffff168273ffffffffffffffffffffffffffffffffffffffff1603610831576040517f08c379a000000000000000000000000000000000000000000000000000000000815260040161082890612822565b60405180910390fd5b600360008373ffffffffffffffffffffffffffffffffffffffff1673ffffffffffffffffffffffffffffffffffffffff168152602001908152602001600020549050919050565b610880611435565b61088a60006114b3565b565b600960009054906101000a900473ffffffffffffffffffffffffffffffffffffffff1673ffffffffffffffffffffffffffffffffffffffff163373ffffffffffffffffffffffffffffffffffffffff161461091c576040517f08c379a0000000000000000000000000000000000000000000000000000000008152600401610913906128b4565b60405180910390fd5b600060085490506008600081548092919061093690612903565b91905055506040518060a001604052808681526020018581526020018481526020018381526020014281525060076000838152602001908152602001600020600082015181600001908161098a9190612af7565b5060208201518160010190816109a09190612af7565b5060408201518160020190816109b69190612af7565b5060608201518160030190816109cc9190612af7565b50608082015181600401559050506109e43382611579565b5050505050565b6000600660009054906101000a900473ffffffffffffffffffffffffffffffffffffffff16905090565b6007602052806000526040600020600091509050806000018054610a389061255d565b80601f0160208091040260200160405190810160405280929190818152602001828054610a649061255d565b8015610ab15780601f10610a8657610100808354040283529160200191610ab1565b820191906000526020600020905b815481529060010190602001808311610a9457829003601f168201915b505050505090806001018054610ac69061255d565b80601f0160208091040260200160405190810160405280929190818152602001828054610af29061255d565b8015610b3f5780601f10610b1457610100808354040283529160200191610b3f565b820191906000526020600020905b815481529060010190602001808311610b2257829003601f168201915b505050505090806002018054610b549061255d565b80601f0160208091040260200160405190810160405280929190818152602001828054610b809061255d565b8015610bcd5780601f10610ba257610100808354040283529160200191610bcd565b820191906000526020600020905b815481529060010190602001808311610bb057829003601f168201915b505050505090806003018054610be29061255d565b80601f0160208091040260200160405190810160405280929190818152602001828054610c0e9061255d565b8015610c5b5780601f10610c3057610100808354040283529160200191610c5b565b820191906000526020600020905b815481529060010190602001808311610c3e57829003601f168201915b5050505050908060040154905085565b606060018054610c7a9061255d565b80601f0160208091040260200160405190810160405280929190818152602001828054610ca69061255d565b8015610cf35780601f10610cc857610100808354040283529160200191610cf3565b820191906000526020600020905b815481529060010190602001808311610cd657829003601f168201915b5050505050905090565b610d0f610d08610fa9565b8383611796565b5050565b610d24610d1e610fa9565b8361106a565b610d63576040517f08c379a0000000000000000000000000000000000000000000000000000000008152600401610d5a90612724565b60405180910390fd5b610d6f84848484611902565b50505050565b6060610d8082610f5e565b6000610d8a61195e565b90506000815111610daa5760405180602001604052806000815250610dd5565b80610db484611975565b604051602001610dc5929190612c05565b6040516020818303038152906040525b915050919050565b6000600560008473ffffffffffffffffffffffffffffffffffffffff1673ffffffffffffffffffffffffffffffffffffffff16815260200190815260200160002060008373ffffffffffffffffffffffffffffffffffffffff1673ffffffffffffffffffffffffffffffffffffffff16815260200190815260200160002060009054906101000a900460ff16905092915050565b610e79611435565b600073ffffffffffffffffffffffffffffffffffffffff168173ffffffffffffffffffffffffffffffffffffffff1603610ee8576040517f08c379a0000000000000000000000000000000000000000000000000000000008152600401610edf90612c9b565b60405180910390fd5b610ef1816114b3565b50565b60007f01ffc9a7000000000000000000000000000000000000000000000000000000007bffffffffffffffffffffffffffffffffffffffffffffffffffffffff1916827bffffffffffffffffffffffffffffffffffffffffffffffffffffffff1916149050919050565b610f6781611a43565b610fa6576040517f08c379a0000000000000000000000000000000000000000000000000000000008152600401610f9d90612790565b60405180910390fd5b50565b600033905090565b816004600083815260200190815260200160002060006101000a81548173ffffffffffffffffffffffffffffffffffffffff021916908373ffffffffffffffffffffffffffffffffffffffff160217905550808273ffffffffffffffffffffffffffffffffffffffff1661102483610711565b73ffffffffffffffffffffffffffffffffffffffff167f8c5be1e5ebec7d5bd14f71427d1e84f3dd0314c0f7b2291e5b200ac8c7c3b92560405160405180910390a45050565b60008061107683610711565b90508073ffffffffffffffffffffffffffffffffffffffff168473ffffffffffffffffffffffffffffffffffffffff1614806110b857506110b78185610ddd565b5b806110f657508373ffffffffffffffffffffffffffffffffffffffff166110de84610534565b73ffffffffffffffffffffffffffffffffffffffff16145b91505092915050565b8273ffffffffffffffffffffffffffffffffffffffff1661111f82610711565b73ffffffffffffffffffffffffffffffffffffffff1614611175576040517f08c379a000000000000000000000000000000000000000000000000000000000815260040161116c90612d2d565b60405180910390fd5b600073ffffffffffffffffffffffffffffffffffffffff168273ffffffffffffffffffffffffffffffffffffffff16036111e4576040517f08c379a00000000000000000000000000000000000000000000000000000000081526004016111db90612dbf565b60405180910390fd5b6111f18383836001611a84565b8273ffffffffffffffffffffffffffffffffffffffff1661121182610711565b73ffffffffffffffffffffffffffffffffffffffff1614611267576040517f08c379a000000000000000000000000000000000000000000000000000000000815260040161125e90612d2d565b60405180910390fd5b6004600082815260200190815260200160002060006101000a81549073ffffffffffffffffffffffffffffffffffffffff02191690556001600360008573ffffffffffffffffffffffffffffffffffffffff1673ffffffffffffffffffffffffffffffffffffffff168152602001908152602001600020600082825403925050819055506001600360008473ffffffffffffffffffffffffffffffffffffffff1673ffffffffffffffffffffffffffffffffffffffff16815260200190815260200160002060008282540192505081905550816002600083815260200190815260200160002060006101000a81548173ffffffffffffffffffffffffffffffffffffffff021916908373ffffffffffffffffffffffffffffffffffffffff160217905550808273ffffffffffffffffffffffffffffffffffffffff168473ffffffffffffffffffffffffffffffffffffffff167fddf252ad1be2c89b69c2b068fc378daa952ba7f163c4a11628f55a4df523b3ef60405160405180910390a46113f38383836001611a8a565b505050565b60006002600083815260200190815260200160002060009054906101000a900473ffffffffffffffffffffffffffffffffffffffff169050919050565b61143d610fa9565b73ffffffffffffffffffffffffffffffffffffffff1661145b6109eb565b73ffffffffffffffffffffffffffffffffffffffff16146114b1576040517f08c379a00000000000000000000000000000000000000000000000000000000081526004016114a890612e2b565b60405180910390fd5b565b6000600660009054906101000a900473ffffffffffffffffffffffffffffffffffffffff16905081600660006101000a81548173ffffffffffffffffffffffffffffffffffffffff021916908373ffffffffffffffffffffffffffffffffffffffff1602179055508173ffffffffffffffffffffffffffffffffffffffff168173ffffffffffffffffffffffffffffffffffffffff167f8be0079c531659141344cd1fd0a4f28419497f9722a3daafe3b4186f6b6457e060405160405180910390a35050565b600073ffffffffffffffffffffffffffffffffffffffff168273ffffffffffffffffffffffffffffffffffffffff16036115e8576040517f08c379a00000000000000000000000000000000000000000000000000000000081526004016115df90612e97565b60405180910390fd5b6115f181611a43565b15611631576040517f08c379a000000000000000000000000000000000000000000000000000000000815260040161162890612f03565b60405180910390fd5b61163f600083836001611a84565b61164881611a43565b15611688576040517f08c379a000000000000000000000000000000000000000000000000000000000815260040161167f90612f03565b60405180910390fd5b6001600360008473ffffffffffffffffffffffffffffffffffffffff1673ffffffffffffffffffffffffffffffffffffffff16815260200190815260200160002060008282540192505081905550816002600083815260200190815260200160002060006101000a81548173ffffffffffffffffffffffffffffffffffffffff021916908373ffffffffffffffffffffffffffffffffffffffff160217905550808273ffffffffffffffffffffffffffffffffffffffff16600073ffffffffffffffffffffffffffffffffffffffff167fddf252ad1be2c89b69c2b068fc378daa952ba7f163c4a11628f55a4df523b3ef60405160405180910390a4611792600083836001611a8a565b5050565b8173ffffffffffffffffffffffffffffffffffffffff168373ffffffffffffffffffffffffffffffffffffffff1603611804576040517f08c379a00000000000000000000000000000000000000000000000000000000081526004016117fb90612f6f565b60405180910390fd5b80600560008573ffffffffffffffffffffffffffffffffffffffff1673ffffffffffffffffffffffffffffffffffffffff16815260200190815260200160002060008473ffffffffffffffffffffffffffffffffffffffff1673ffffffffffffffffffffffffffffffffffffffff16815260200190815260200160002060006101000a81548160ff0219169083151502179055508173ffffffffffffffffffffffffffffffffffffffff168373ffffffffffffffffffffffffffffffffffffffff167f17307eab39ab6107e8899845ad3d59bd9653f200f220920489ca2b5937696c31836040516118f59190611e41565b60405180910390a3505050565b61190d8484846110ff565b61191984848484611a90565b611958576040517f08c379a000000000000000000000000000000000000000000000000000000000815260040161194f90613001565b60405180910390fd5b50505050565b606060405180602001604052806000815250905090565b60606000600161198484611c17565b01905060008167ffffffffffffffff8111156119a3576119a26120ed565b5b6040519080825280601f01601f1916602001820160405280156119d55781602001600182028036833780820191505090505b509050600082602001820190505b600115611a38578080600190039150507f3031323334353637383961626364656600000000000000000000000000000000600a86061a8153600a8581611a2c57611a2b613021565b5b049450600085036119e3575b819350505050919050565b60008073ffffffffffffffffffffffffffffffffffffffff16611a65836113f8565b73ffffffffffffffffffffffffffffffffffffffff1614159050919050565b50505050565b50505050565b6000611ab18473ffffffffffffffffffffffffffffffffffffffff16611d6a565b15611c0a578373ffffffffffffffffffffffffffffffffffffffff1663150b7a02611ada610fa9565b8786866040518563ffffffff1660e01b8152600401611afc94939291906130a5565b6020604051808303816000875af1925050508015611b3857506040513d601f19601f82011682018060405250810190611b359190613106565b60015b611bba573d8060008114611b68576040519150601f19603f3d011682016040523d82523d6000602084013e611b6d565b606091505b506000815103611bb2576040517f08c379a0000000000000000000000000000000000000000000000000000000008152600401611ba990613001565b60405180910390fd5b805181602001fd5b63150b7a0260e01b7bffffffffffffffffffffffffffffffffffffffffffffffffffffffff1916817bffffffffffffffffffffffffffffffffffffffffffffffffffffffff191614915050611c0f565b600190505b949350505050565b600080600090507a184f03e93ff9f4daa797ed6e38ed64bf6a1f0100000000000000008310611c75577a184f03e93ff9f4daa797ed6e38ed64bf6a1f0100000000000000008381611c6b57611c6a613021565b5b0492506040810190505b6d04ee2d6d415b85acef81000000008310611cb2576d04ee2d6d415b85acef81000000008381611ca857611ca7613021565b5b0492506020810190505b662386f26fc100008310611ce157662386f26fc100008381611cd757611cd6613021565b5b0492506010810190505b6305f5e1008310611d0a576305f5e1008381611d0057611cff613021565b5b0492506008810190505b6127108310611d2f576127108381611d2557611d24613021565b5b0492506004810190505b60648310611d525760648381611d4857611d47613021565b5b0492506002810190505b600a8310611d61576001810190505b80915050919050565b6000808273ffffffffffffffffffffffffffffffffffffffff163b119050919050565b6000604051905090565b600080fd5b600080fd5b60007fffffffff0000000000000000000000000000000000000000000000000000000082169050919050565b611dd681611da1565b8114611de157600080fd5b50565b600081359050611df381611dcd565b92915050565b600060208284031215611e0f57611e0e611d97565b5b6000611e1d84828501611de4565b91505092915050565b60008115159050919050565b611e3b81611e26565b82525050565b6000602082019050611e566000830184611e32565b92915050565b600081519050919050565b600082825260208201905092915050565b60005b83811015611e96578082015181840152602081019050611e7b565b60008484015250505050565b6000601f19601f8301169050919050565b6000611ebe82611e5c565b611ec88185611e67565b9350611ed8818560208601611e78565b611ee181611ea2565b840191505092915050565b60006020820190508181036000830152611f068184611eb3565b905092915050565b6000819050919050565b611f2181611f0e565b8114611f2c57600080fd5b50565b600081359050611f3e81611f18565b92915050565b600060208284031215611f5a57611f59611d97565b5b6000611f6884828501611f2f565b91505092915050565b600073ffffffffffffffffffffffffffffffffffffffff82169050919050565b6000611f9c82611f71565b9050919050565b611fac81611f91565b82525050565b6000602082019050611fc76000830184611fa3565b92915050565b611fd681611f91565b8114611fe157600080fd5b50565b600081359050611ff381611fcd565b92915050565b600080604083850312156120105761200f611d97565b5b600061201e85828601611fe4565b925050602061202f85828601611f2f565b9150509250929050565b60008060006060848603121561205257612051611d97565b5b600061206086828701611fe4565b935050602061207186828701611fe4565b925050604061208286828701611f2f565b9150509250925092565b6000602082840312156120a2576120a1611d97565b5b60006120b084828501611fe4565b91505092915050565b6120c281611f0e565b82525050565b60006020820190506120dd60008301846120b9565b92915050565b600080fd5b600080fd5b7f4e487b7100000000000000000000000000000000000000000000000000000000600052604160045260246000fd5b61212582611ea2565b810181811067ffffffffffffffff82111715612144576121436120ed565b5b80604052505050565b6000612157611d8d565b9050612163828261211c565b919050565b600067ffffffffffffffff821115612183576121826120ed565b5b61218c82611ea2565b9050602081019050919050565b82818337600083830152505050565b60006121bb6121b684612168565b61214d565b9050828152602081018484840111156121d7576121d66120e8565b5b6121e2848285612199565b509392505050565b600082601f8301126121ff576121fe6120e3565b5b813561220f8482602086016121a8565b91505092915050565b6000806000806080858703121561223257612231611d97565b5b600085013567ffffffffffffffff8111156122505761224f611d9c565b5b61225c878288016121ea565b945050602085013567ffffffffffffffff81111561227d5761227c611d9c565b5b612289878288016121ea565b935050604085013567ffffffffffffffff8111156122aa576122a9611d9c565b5b6122b6878288016121ea565b925050606085013567ffffffffffffffff8111156122d7576122d6611d9c565b5b6122e3878288016121ea565b91505092959194509250565b600060a08201905081810360008301526123098188611eb3565b9050818103602083015261231d8187611eb3565b905081810360408301526123318186611eb3565b905081810360608301526123458185611eb3565b905061235460808301846120b9565b9695505050505050565b61236781611e26565b811461237257600080fd5b50565b6000813590506123848161235e565b92915050565b600080604083850312156123a1576123a0611d97565b5b60006123af85828601611fe4565b92505060206123c085828601612375565b9150509250929050565b600067ffffffffffffffff8211156123e5576123e46120ed565b5b6123ee82611ea2565b9050602081019050919050565b600061240e612409846123ca565b61214d565b90508281526020810184848401111561242a576124296120e8565b5b612435848285612199565b509392505050565b600082601f830112612452576124516120e3565b5b81356124628482602086016123fb565b91505092915050565b6000806000806080858703121561248557612484611d97565b5b600061249387828801611fe4565b94505060206124a487828801611fe4565b93505060406124b587828801611f2f565b925050606085013567ffffffffffffffff8111156124d6576124d5611d9c565b5b6124e28782880161243d565b91505092959194509250565b6000806040838503121561250557612504611d97565b5b600061251385828601611fe4565b925050602061252485828601611fe4565b9150509250929050565b7f4e487b7100000000000000000000000000000000000000000000000000000000600052602260045260246000fd5b6000600282049050600182168061257557607f821691505b6020821081036125885761258761252e565b5b50919050565b7f4552433732313a20617070726f76616c20746f2063757272656e74206f776e6560008201527f7200000000000000000000000000000000000000000000000000000000000000602082015250565b60006125ea602183611e67565b91506125f58261258e565b604082019050919050565b60006020820190508181036000830152612619816125dd565b9050919050565b7f4552433732313a20617070726f76652063616c6c6572206973206e6f7420746f60008201527f6b656e206f776e6572206f7220617070726f76656420666f7220616c6c000000602082015250565b600061267c603d83611e67565b915061268782612620565b604082019050919050565b600060208201905081810360008301526126ab8161266f565b9050919050565b7f4552433732313a2063616c6c6572206973206e6f7420746f6b656e206f776e6560008201527f72206f7220617070726f76656400000000000000000000000000000000000000602082015250565b600061270e602d83611e67565b9150612719826126b2565b604082019050919050565b6000602082019050818103600083015261273d81612701565b9050919050565b7f4552433732313a20696e76616c696420746f6b656e2049440000000000000000600082015250565b600061277a601883611e67565b915061278582612744565b602082019050919050565b600060208201905081810360008301526127a98161276d565b9050919050565b7f4552433732313a2061646472657373207a65726f206973206e6f74206120766160008201527f6c6964206f776e65720000000000000000000000000000000000000000000000602082015250565b600061280c602983611e67565b9150612817826127b0565b604082019050919050565b6000602082019050818103600083015261283b816127ff565b9050919050565b7f5365756c206c2761646d696e697374726174657572207065757420616a6f757460008201527f6572206465732063617274657300000000000000000000000000000000000000602082015250565b600061289e602d83611e67565b91506128a982612842565b604082019050919050565b600060208201905081810360008301526128cd81612891565b9050919050565b7f4e487b7100000000000000000000000000000000000000000000000000000000600052601160045260246000fd5b600061290e82611f0e565b91507fffffffffffffffffffffffffffffffffffffffffffffffffffffffffffffffff82036129405761293f6128d4565b5b600182019050919050565b60008190508160005260206000209050919050565b60006020601f8301049050919050565b600082821b905092915050565b6000600883026129ad7fffffffffffffffffffffffffffffffffffffffffffffffffffffffffffffffff82612970565b6129b78683612970565b95508019841693508086168417925050509392505050565b6000819050919050565b60006129f46129ef6129ea84611f0e565b6129cf565b611f0e565b9050919050565b6000819050919050565b612a0e836129d9565b612a22612a1a826129fb565b84845461297d565b825550505050565b600090565b612a37612a2a565b612a42818484612a05565b505050565b5b81811015612a6657612a5b600082612a2f565b600181019050612a48565b5050565b601f821115612aab57612a7c8161294b565b612a8584612960565b81016020851015612a94578190505b612aa8612aa085612960565b830182612a47565b50505b505050565b600082821c905092915050565b6000612ace60001984600802612ab0565b1980831691505092915050565b6000612ae78383612abd565b9150826002028217905092915050565b612b0082611e5c565b67ffffffffffffffff811115612b1957612b186120ed565b5b612b23825461255d565b612b2e828285612a6a565b600060209050601f831160018114612b615760008415612b4f578287015190505b612b598582612adb565b865550612bc1565b601f198416612b6f8661294b565b60005b82811015612b9757848901518255600182019150602085019450602081019050612b72565b86831015612bb45784890151612bb0601f891682612abd565b8355505b6001600288020188555050505b505050505050565b600081905092915050565b6000612bdf82611e5c565b612be98185612bc9565b9350612bf9818560208601611e78565b80840191505092915050565b6000612c118285612bd4565b9150612c1d8284612bd4565b91508190509392505050565b7f4f776e61626c653a206e6577206f776e657220697320746865207a65726f206160008201527f6464726573730000000000000000000000000000000000000000000000000000602082015250565b6000612c85602683611e67565b9150612c9082612c29565b604082019050919050565b60006020820190508181036000830152612cb481612c78565b9050919050565b7f4552433732313a207472616e736665722066726f6d20696e636f72726563742060008201527f6f776e6572000000000000000000000000000000000000000000000000000000602082015250565b6000612d17602583611e67565b9150612d2282612cbb565b604082019050919050565b60006020820190508181036000830152612d4681612d0a565b9050919050565b7f4552433732313a207472616e7366657220746f20746865207a65726f2061646460008201527f7265737300000000000000000000000000000000000000000000000000000000602082015250565b6000612da9602483611e67565b9150612db482612d4d565b604082019050919050565b60006020820190508181036000830152612dd881612d9c565b9050919050565b7f4f776e61626c653a2063616c6c6572206973206e6f7420746865206f776e6572600082015250565b6000612e15602083611e67565b9150612e2082612ddf565b602082019050919050565b60006020820190508181036000830152612e4481612e08565b9050919050565b7f4552433732313a206d696e7420746f20746865207a65726f2061646472657373600082015250565b6000612e81602083611e67565b9150612e8c82612e4b565b602082019050919050565b60006020820190508181036000830152612eb081612e74565b9050919050565b7f4552433732313a20746f6b656e20616c7265616479206d696e74656400000000600082015250565b6000612eed601c83611e67565b9150612ef882612eb7565b602082019050919050565b60006020820190508181036000830152612f1c81612ee0565b9050919050565b7f4552433732313a20617070726f766520746f2063616c6c657200000000000000600082015250565b6000612f59601983611e67565b9150612f6482612f23565b602082019050919050565b60006020820190508181036000830152612f8881612f4c565b9050919050565b7f4552433732313a207472616e7366657220746f206e6f6e20455243373231526560008201527f63656976657220696d706c656d656e7465720000000000000000000000000000602082015250565b6000612feb603283611e67565b9150612ff682612f8f565b604082019050919050565b6000602082019050818103600083015261301a81612fde565b9050919050565b7f4e487b7100000000000000000000000000000000000000000000000000000000600052601260045260246000fd5b600081519050919050565b600082825260208201905092915050565b600061307782613050565b613081818561305b565b9350613091818560208601611e78565b61309a81611ea2565b840191505092915050565b60006080820190506130ba6000830187611fa3565b6130c76020830186611fa3565b6130d460408301856120b9565b81810360608301526130e6818461306c565b905095945050505050565b60008151905061310081611dcd565b92915050565b60006020828403121561311c5761311b611d97565b5b600061312a848285016130f1565b9150509291505056fea264697066735822122091252efcba4aac2889dd78cdafe70c4c1e1f0ce9804f7dcbd6f9e7199d30983864736f6c63430008130033",
  "linkReferences": {},
  "deployedLinkReferences": {}
}