{
  "_format": "hh-sol-artifact-1",
  "contractName": "SimplePlayerCard",
  "sourceName": "contracts/SimplePlayerCard.sol",
  "abi": [
    {
      "inputs": [],
      "stateMutability": "nonpayable",
      "type": "constructor"
    },
    {
      "anonymous": false,
      "inputs": [
        {
          "indexed": true,
          "internalType": "address",
          "name": "owner",
          "type": "address"
        },
        {
          "indexed": true,
          "internalType": "address",
          "name": "approved",
          "type": "address"
        },
        {
          "indexed": true,
          "internalType": "uint256",
          "name": "tokenId",
          "type": "uint256"
        }
      ],
      "name": "Approval",
      "type": "event"
    },
    {
      "anonymous": false,
      "inputs": [
        {
          "indexed": true,
          "internalType": "address",
          "name": "owner",
          "type": "address"
        },
        {
          "indexed": true,
          "internalType": "address",
          "name": "operator",
          "type": "address"
        },
        {
          "indexed": false,
          "internalType": "bool",
          "name": "approved",
          "type": "bool"
        }
      ],
      "name": "ApprovalForAll",
      "type": "event"
    },
    {
      "anonymous": false,
      "inputs": [
        {
          "indexed": true,
          "internalType": "uint256",
          "name": "cardId",
          "type": "uint256"
        },
        {
          "indexed": false,
          "internalType": "string",
          "name": "name",
          "type": "string"
        },
        {
          "indexed": false,
          "internalType": "string",
          "name": "cardType",
          "type": "string"
        },
        {
          "indexed": false,
          "internalType": "uint256",
          "name": "value",
          "type": "uint256"
        },
        {
          "indexed": false,
          "internalType": "string",
          "name": "hash",
          "type": "string"
        },
        {
          "indexed": true,
          "internalType": "address",
          "name": "owner",
          "type": "address"
        }
      ],
      "name": "CardCreated",
      "type": "event"
    },
    {
      "anonymous": false,
      "inputs": [
        {
          "indexed": true,
          "internalType": "uint256",
          "name": "cardId",
          "type": "uint256"
        },
        {
          "indexed": false,
          "internalType": "bool",
          "name": "isLocked",
          "type": "bool"
        }
      ],
      "name": "CardLocked",
      "type": "event"
    },
    {
      "anonymous": false,
      "inputs": [
        {
          "indexed": true,
          "internalType": "address",
          "name": "buyer",
          "type": "address"
        },
        {
          "indexed": false,
          "internalType": "uint256",
          "name": "cardId",
          "type": "uint256"
        },
        {
          "indexed": false,
          "internalType": "uint256",
          "name": "oldPrice",
          "type": "uint256"
        },
        {
          "indexed": false,
          "internalType": "uint256",
          "name": "newPrice",
          "type": "uint256"
        }
      ],
      "name": "CardPurchased",
      "type": "event"
    },
    {
      "anonymous": false,
      "inputs": [
        {
          "indexed": true,
          "internalType": "address",
          "name": "previousOwner",
          "type": "address"
        },
        {
          "indexed": true,
          "internalType": "address",
          "name": "newOwner",
          "type": "address"
        }
      ],
      "name": "OwnershipTransferred",
      "type": "event"
    },
    {
      "anonymous": false,
      "inputs": [
        {
          "indexed": true,
          "internalType": "address",
          "name": "from",
          "type": "address"
        },
        {
          "indexed": true,
          "internalType": "address",
          "name": "to",
          "type": "address"
        },
        {
          "indexed": true,
          "internalType": "uint256",
          "name": "tokenId",
          "type": "uint256"
        }
      ],
      "name": "Transfer",
      "type": "event"
    },
    {
      "inputs": [],
      "name": "MAX_CARDS_PER_WALLET",
      "outputs": [
        {
          "internalType": "uint256",
          "name": "",
          "type": "uint256"
        }
      ],
      "stateMutability": "view",
      "type": "function"
    },
    {
      "inputs": [],
      "name": "MAX_LOCKED_CARDS",
      "outputs": [
        {
          "internalType": "uint256",
          "name": "",
          "type": "uint256"
        }
      ],
      "stateMutability": "view",
      "type": "function"
    },
    {
      "inputs": [],
      "name": "PURCHASE_COOLDOWN",
      "outputs": [
        {
          "internalType": "uint256",
          "name": "",
          "type": "uint256"
        }
      ],
      "stateMutability": "view",
      "type": "function"
    },
    {
      "inputs": [
        {
          "internalType": "string",
          "name": "_name",
          "type": "string"
        },
        {
          "internalType": "string",
          "name": "_cardType",
          "type": "string"
        },
        {
          "internalType": "uint256",
          "name": "_value",
          "type": "uint256"
        },
        {
          "internalType": "string",
          "name": "_hash",
          "type": "string"
        }
      ],
      "name": "addCard",
      "outputs": [],
      "stateMutability": "nonpayable",
      "type": "function"
    },
    {
      "inputs": [
        {
          "internalType": "address",
          "name": "to",
          "type": "address"
        },
        {
          "internalType": "uint256",
          "name": "tokenId",
          "type": "uint256"
        }
      ],
      "name": "approve",
      "outputs": [],
      "stateMutability": "nonpayable",
      "type": "function"
    },
    {
      "inputs": [
        {
          "internalType": "address",
          "name": "owner",
          "type": "address"
        }
      ],
      "name": "balanceOf",
      "outputs": [
        {
          "internalType": "uint256",
          "name": "",
          "type": "uint256"
        }
      ],
      "stateMutability": "view",
      "type": "function"
    },
    {
      "inputs": [
        {
          "internalType": "uint256",
          "name": "cardId",
          "type": "uint256"
        }
      ],
      "name": "buyCard",
      "outputs": [],
      "stateMutability": "payable",
      "type": "function"
    },
    {
      "inputs": [],
      "name": "cardCount",
      "outputs": [
        {
          "internalType": "uint256",
          "name": "",
          "type": "uint256"
        }
      ],
      "stateMutability": "view",
      "type": "function"
    },
    {
      "inputs": [
        {
          "internalType": "uint256",
          "name": "",
          "type": "uint256"
        }
      ],
      "name": "cards",
      "outputs": [
        {
          "internalType": "string",
          "name": "name",
          "type": "string"
        },
        {
          "internalType": "string",
          "name": "cardType",
          "type": "string"
        },
        {
          "internalType": "uint256",
          "name": "value",
          "type": "uint256"
        },
        {
          "internalType": "string",
          "name": "hash",
          "type": "string"
        },
        {
          "internalType": "uint256",
          "name": "createdAt",
          "type": "uint256"
        },
        {
          "internalType": "bool",
          "name": "isLocked",
          "type": "bool"
        },
        {
          "internalType": "uint256",
          "name": "lastPurchaseTime",
          "type": "uint256"
        }
      ],
      "stateMutability": "view",
      "type": "function"
    },
    {
      "inputs": [],
      "name": "getAdmin",
      "outputs": [
        {
          "internalType": "address",
          "name": "",
          "type": "address"
        }
      ],
      "stateMutability": "view",
      "type": "function"
    },
    {
      "inputs": [
        {
          "internalType": "uint256",
          "name": "tokenId",
          "type": "uint256"
        }
      ],
      "name": "getApproved",
      "outputs": [
        {
          "internalType": "address",
          "name": "",
          "type": "address"
        }
      ],
      "stateMutability": "view",
      "type": "function"
    },
    {
      "inputs": [],
      "name": "getAvailableCards",
      "outputs": [
        {
          "internalType": "uint256[]",
          "name": "",
          "type": "uint256[]"
        }
      ],
      "stateMutability": "view",
      "type": "function"
    },
    {
      "inputs": [
        {
          "internalType": "string",
          "name": "cardType",
          "type": "string"
        }
      ],
      "name": "getPriceIncrease",
      "outputs": [
        {
          "internalType": "uint256",
          "name": "",
          "type": "uint256"
        }
      ],
      "stateMutability": "pure",
      "type": "function"
    },
    {
      "inputs": [
        {
          "internalType": "uint256",
          "name": "cardId",
          "type": "uint256"
        }
      ],
      "name": "getTimeUntilNextPurchase",
      "outputs": [
        {
          "internalType": "uint256",
          "name": "",
          "type": "uint256"
        }
      ],
      "stateMutability": "view",
      "type": "function"
    },
    {
      "inputs": [
        {
          "internalType": "address",
          "name": "user",
          "type": "address"
        }
      ],
      "name": "getUserCards",
      "outputs": [
        {
          "internalType": "uint256[]",
          "name": "",
          "type": "uint256[]"
        }
      ],
      "stateMutability": "view",
      "type": "function"
    },
    {
      "inputs": [
        {
          "internalType": "address",
          "name": "owner",
          "type": "address"
        },
        {
          "internalType": "address",
          "name": "operator",
          "type": "address"
        }
      ],
      "name": "isApprovedForAll",
      "outputs": [
        {
          "internalType": "bool",
          "name": "",
          "type": "bool"
        }
      ],
      "stateMutability": "view",
      "type": "function"
    },
    {
      "inputs": [],
      "name": "name",
      "outputs": [
        {
          "internalType": "string",
          "name": "",
          "type": "string"
        }
      ],
      "stateMutability": "view",
      "type": "function"
    },
    {
      "inputs": [],
      "name": "owner",
      "outputs": [
        {
          "internalType": "address",
          "name": "",
          "type": "address"
        }
      ],
      "stateMutability": "view",
      "type": "function"
    },
    {
      "inputs": [
        {
          "internalType": "address",
          "name": "",
          "type": "address"
        },
        {
          "internalType": "uint256",
          "name": "",
          "type": "uint256"
        }
      ],
      "name": "ownerCards",
      "outputs": [
        {
          "internalType": "uint256",
          "name": "",
          "type": "uint256"
        }
      ],
      "stateMutability": "view",
      "type": "function"
    },
    {
      "inputs": [
        {
          "internalType": "uint256",
          "name": "tokenId",
          "type": "uint256"
        }
      ],
      "name": "ownerOf",
      "outputs": [
        {
          "internalType": "address",
          "name": "",
          "type": "address"
        }
      ],
      "stateMutability": "view",
      "type": "function"
    },
    {
      "inputs": [],
      "name": "renounceOwnership",
      "outputs": [],
      "stateMutability": "nonpayable",
      "type": "function"
    },
    {
      "inputs": [
        {
          "internalType": "address",
          "name": "from",
          "type": "address"
        },
        {
          "internalType": "address",
          "name": "to",
          "type": "address"
        },
        {
          "internalType": "uint256",
          "name": "tokenId",
          "type": "uint256"
        }
      ],
      "name": "safeTransferFrom",
      "outputs": [],
      "stateMutability": "nonpayable",
      "type": "function"
    },
    {
      "inputs": [
        {
          "internalType": "address",
          "name": "from",
          "type": "address"
        },
        {
          "internalType": "address",
          "name": "to",
          "type": "address"
        },
        {
          "internalType": "uint256",
          "name": "tokenId",
          "type": "uint256"
        },
        {
          "internalType": "bytes",
          "name": "data",
          "type": "bytes"
        }
      ],
      "name": "safeTransferFrom",
      "outputs": [],
      "stateMutability": "nonpayable",
      "type": "function"
    },
    {
      "inputs": [
        {
          "internalType": "address",
          "name": "operator",
          "type": "address"
        },
        {
          "internalType": "bool",
          "name": "approved",
          "type": "bool"
        }
      ],
      "name": "setApprovalForAll",
      "outputs": [],
      "stateMutability": "nonpayable",
      "type": "function"
    },
    {
      "inputs": [
        {
          "internalType": "bytes4",
          "name": "interfaceId",
          "type": "bytes4"
        }
      ],
      "name": "supportsInterface",
      "outputs": [
        {
          "internalType": "bool",
          "name": "",
          "type": "bool"
        }
      ],
      "stateMutability": "view",
      "type": "function"
    },
    {
      "inputs": [],
      "name": "symbol",
      "outputs": [
        {
          "internalType": "string",
          "name": "",
          "type": "string"
        }
      ],
      "stateMutability": "view",
      "type": "function"
    },
    {
      "inputs": [
        {
          "internalType": "uint256",
          "name": "cardId",
          "type": "uint256"
        }
      ],
      "name": "toggleCardLock",
      "outputs": [],
      "stateMutability": "nonpayable",
      "type": "function"
    },
    {
      "inputs": [
        {
          "internalType": "uint256",
          "name": "tokenId",
          "type": "uint256"
        }
      ],
      "name": "tokenURI",
      "outputs": [
        {
          "internalType": "string",
          "name": "",
          "type": "string"
        }
      ],
      "stateMutability": "view",
      "type": "function"
    },
    {
      "inputs": [
        {
          "internalType": "address",
          "name": "from",
          "type": "address"
        },
        {
          "internalType": "address",
          "name": "to",
          "type": "address"
        },
        {
          "internalType": "uint256",
          "name": "tokenId",
          "type": "uint256"
        }
      ],
      "name": "transferFrom",
      "outputs": [],
      "stateMutability": "nonpayable",
      "type": "function"
    },
    {
      "inputs": [
        {
          "internalType": "address",
          "name": "newOwner",
          "type": "address"
        }
      ],
      "name": "transferOwnership",
      "outputs": [],
      "stateMutability": "nonpayable",
      "type": "function"
    }
  ],
  "bytecode": "0x60806040523480156200001157600080fd5b506040518060400160405280601081526020017f53696d706c65506c6179657243617264000000000000000000000000000000008152506040518060400160405280600381526020017f535043000000000000000000000000000000000000000000000000000000000081525081600090816200008f919062000453565b508060019081620000a1919062000453565b505050620000c4620000b86200010b60201b60201c565b6200011360201b60201c565b33600a60006101000a81548173ffffffffffffffffffffffffffffffffffffffff021916908373ffffffffffffffffffffffffffffffffffffffff1602179055506200053a565b600033905090565b6000600660009054906101000a900473ffffffffffffffffffffffffffffffffffffffff16905081600660006101000a81548173ffffffffffffffffffffffffffffffffffffffff021916908373ffffffffffffffffffffffffffffffffffffffff1602179055508173ffffffffffffffffffffffffffffffffffffffff168173ffffffffffffffffffffffffffffffffffffffff167f8be0079c531659141344cd1fd0a4f28419497f9722a3daafe3b4186f6b6457e060405160405180910390a35050565b600081519050919050565b7f4e487b7100000000000000000000000000000000000000000000000000000000600052604160045260246000fd5b7f4e487b7100000000000000000000000000000000000000000000000000000000600052602260045260246000fd5b600060028204905060018216806200025b57607f821691505b60208210810362000271576200027062000213565b5b50919050565b60008190508160005260206000209050919050565b60006020601f8301049050919050565b600082821b905092915050565b600060088302620002db7fffffffffffffffffffffffffffffffffffffffffffffffffffffffffffffffff826200029c565b620002e786836200029c565b95508019841693508086168417925050509392505050565b6000819050919050565b6000819050919050565b6000620003346200032e6200032884620002ff565b62000309565b620002ff565b9050919050565b6000819050919050565b620003508362000313565b620003686200035f826200033b565b848454620002a9565b825550505050565b600090565b6200037f62000370565b6200038c81848462000345565b505050565b5b81811015620003b457620003a860008262000375565b60018101905062000392565b5050565b601f8211156200040357620003cd8162000277565b620003d8846200028c565b81016020851015620003e8578190505b62000400620003f7856200028c565b83018262000391565b50505b505050565b600082821c905092915050565b6000620004286000198460080262000408565b1980831691505092915050565b600062000443838362000415565b9150826002028217905092915050565b6200045e82620001d9565b67ffffffffffffffff8111156200047a5762000479620001e4565b5b62000486825462000242565b62000493828285620003b8565b600060209050601f831160018114620004cb5760008415620004b6578287015190505b620004c2858262000435565b86555062000532565b601f198416620004db8662000277565b60005b828110156200050557848901518255600182019150602085019450602081019050620004de565b8683101562000525578489015162000521601f89168262000415565b8355505b6001600288020188555050505b505050505050565b614868806200054a6000396000f3fe6080604052600436106101cd5760003560e01c806379e4a5b7116100f7578063ac080b6511610095578063c87b56dd11610064578063c87b56dd146106a7578063e6311771146106e4578063e985e9c51461070f578063f2fde38b1461074c576101cd565b8063ac080b651461060c578063b88d4fde14610637578063c3da0cf314610660578063c70f5eaa1461068b576101cd565b80638dc10768116100d15780638dc107681461053857806395d89b411461057b578063a22cb465146105a6578063a8365ab0146105cf576101cd565b806379e4a5b7146104a557806388d9f40d146104d05780638da5cb5b1461050d576101cd565b806336ed214a1161016f5780636352211e1161013e5780636352211e146103e95780636e9960c31461042657806370a0823114610451578063715018a61461048e576101cd565b806336ed214a1461033157806342842e0e1461036e5780634fde30d9146103975780636193fada146103c0576101cd565b8063095ea7b3116101ab578063095ea7b3146102775780631b6cde10146102a057806323b872dd146102cb5780632b7ef78f146102f4576101cd565b806301ffc9a7146101d257806306fdde031461020f578063081812fc1461023a575b600080fd5b3480156101de57600080fd5b506101f960048036038101906101f49190612d3b565b610775565b6040516102069190612d83565b60405180910390f35b34801561021b57600080fd5b50610224610857565b6040516102319190612e2e565b60405180910390f35b34801561024657600080fd5b50610261600480360381019061025c9190612e86565b6108e9565b60405161026e9190612ef4565b60405180910390f35b34801561028357600080fd5b5061029e60048036038101906102999190612f3b565b61092f565b005b3480156102ac57600080fd5b506102b5610a46565b6040516102c29190612f8a565b60405180910390f35b3480156102d757600080fd5b506102f260048036038101906102ed9190612fa5565b610a50565b005b34801561030057600080fd5b5061031b6004803603810190610316919061312d565b610ab0565b6040516103289190612f8a565b60405180910390f35b34801561033d57600080fd5b5061035860048036038101906103539190612e86565b610c24565b6040516103659190612f8a565b60405180910390f35b34801561037a57600080fd5b5061039560048036038101906103909190612fa5565b610c8e565b005b3480156103a357600080fd5b506103be60048036038101906103b99190613176565b610cae565b005b3480156103cc57600080fd5b506103e760048036038101906103e29190612e86565b610ef6565b005b3480156103f557600080fd5b50610410600480360381019061040b9190612e86565b611180565b60405161041d9190612ef4565b60405180910390f35b34801561043257600080fd5b5061043b611206565b6040516104489190612ef4565b60405180910390f35b34801561045d57600080fd5b5061047860048036038101906104739190613231565b611230565b6040516104859190612f8a565b60405180910390f35b34801561049a57600080fd5b506104a36112e7565b005b3480156104b157600080fd5b506104ba6112fb565b6040516104c7919061331c565b60405180910390f35b3480156104dc57600080fd5b506104f760048036038101906104f29190613231565b611474565b604051610504919061331c565b60405180910390f35b34801561051957600080fd5b5061052261150b565b60405161052f9190612ef4565b60405180910390f35b34801561054457600080fd5b5061055f600480360381019061055a9190612e86565b611535565b604051610572979695949392919061333e565b60405180910390f35b34801561058757600080fd5b5061059061171c565b60405161059d9190612e2e565b60405180910390f35b3480156105b257600080fd5b506105cd60048036038101906105c891906133ee565b6117ae565b005b3480156105db57600080fd5b506105f660048036038101906105f19190612f3b565b6117c4565b6040516106039190612f8a565b60405180910390f35b34801561061857600080fd5b506106216117f5565b60405161062e9190612f8a565b60405180910390f35b34801561064357600080fd5b5061065e600480360381019061065991906134cf565b6117fa565b005b34801561066c57600080fd5b5061067561185c565b6040516106829190612f8a565b60405180910390f35b6106a560048036038101906106a09190612e86565b611861565b005b3480156106b357600080fd5b506106ce60048036038101906106c99190612e86565b611cb2565b6040516106db9190612e2e565b60405180910390f35b3480156106f057600080fd5b506106f9611d1a565b6040516107069190612f8a565b60405180910390f35b34801561071b57600080fd5b5061073660048036038101906107319190613552565b611d1f565b6040516107439190612d83565b60405180910390f35b34801561075857600080fd5b50610773600480360381019061076e9190613231565b611db3565b005b60007f80ac58cd000000000000000000000000000000000000000000000000000000007bffffffffffffffffffffffffffffffffffffffffffffffffffffffff1916827bffffffffffffffffffffffffffffffffffffffffffffffffffffffff1916148061084057507f5b5e139f000000000000000000000000000000000000000000000000000000007bffffffffffffffffffffffffffffffffffffffffffffffffffffffff1916827bffffffffffffffffffffffffffffffffffffffffffffffffffffffff1916145b80610850575061084f82611e36565b5b9050919050565b606060008054610866906135c1565b80601f0160208091040260200160405190810160405280929190818152602001828054610892906135c1565b80156108df5780601f106108b4576101008083540402835291602001916108df565b820191906000526020600020905b8154815290600101906020018083116108c257829003601f168201915b5050505050905090565b60006108f482611ea0565b6004600083815260200190815260200160002060009054906101000a900473ffffffffffffffffffffffffffffffffffffffff169050919050565b600061093a82611180565b90508073ffffffffffffffffffffffffffffffffffffffff168373ffffffffffffffffffffffffffffffffffffffff16036109aa576040517f08c379a00000000000000000000000000000000000000000000000000000000081526004016109a190613664565b60405180910390fd5b8073ffffffffffffffffffffffffffffffffffffffff166109c9611eeb565b73ffffffffffffffffffffffffffffffffffffffff1614806109f857506109f7816109f2611eeb565b611d1f565b5b610a37576040517f08c379a0000000000000000000000000000000000000000000000000000000008152600401610a2e906136f6565b60405180910390fd5b610a418383611ef3565b505050565b6000600954905090565b610a61610a5b611eeb565b82611fac565b610aa0576040517f08c379a0000000000000000000000000000000000000000000000000000000008152600401610a9790613788565b60405180910390fd5b610aab838383612041565b505050565b6000604051602001610ac1906137ff565b6040516020818303038152906040528051906020012082604051602001610ae89190613845565b6040516020818303038152906040528051906020012003610b0c5760059050610c1f565b604051602001610b1b906138a8565b6040516020818303038152906040528051906020012082604051602001610b429190613845565b6040516020818303038152906040528051906020012003610b665760049050610c1f565b604051602001610b7590613909565b6040516020818303038152906040528051906020012082604051602001610b9c9190613845565b6040516020818303038152906040528051906020012003610bc05760039050610c1f565b604051602001610bcf9061396a565b6040516020818303038152906040528051906020012082604051602001610bf69190613845565b6040516020818303038152906040528051906020012003610c1a5760089050610c1f565b600090505b919050565b600060b46007600084815260200190815260200160002060060154610c4991906139ae565b4210610c585760009050610c89565b4260b46007600085815260200190815260200160002060060154610c7c91906139ae565b610c8691906139e2565b90505b919050565b610ca9838383604051806020016040528060008152506117fa565b505050565b600a60009054906101000a900473ffffffffffffffffffffffffffffffffffffffff1673ffffffffffffffffffffffffffffffffffffffff163373ffffffffffffffffffffffffffffffffffffffff1614610d3e576040517f08c379a0000000000000000000000000000000000000000000000000000000008152600401610d3590613a88565b60405180910390fd5b6000600954905060096000815480929190610d5890613aa8565b91905055506040518060e001604052808681526020018581526020018481526020018381526020014281526020016000151581526020016000815250600760008381526020019081526020016000206000820151816000019081610dbc9190613c9c565b506020820151816001019081610dd29190613c9c565b50604082015181600201556060820151816003019081610df29190613c9c565b506080820151816004015560a08201518160050160006101000a81548160ff02191690831515021790555060c08201518160060155905050610e34338261233a565b600860003373ffffffffffffffffffffffffffffffffffffffff1673ffffffffffffffffffffffffffffffffffffffff1681526020019081526020016000208190806001815401808255809150506001900390600052602060002001600090919091909150553373ffffffffffffffffffffffffffffffffffffffff16817f587750356ceeba0cad0aac2a0ea8e4f71b114f7de606b5e9032544236cfcdc9787878787604051610ee79493929190613d6e565b60405180910390a35050505050565b3373ffffffffffffffffffffffffffffffffffffffff16610f1682611180565b73ffffffffffffffffffffffffffffffffffffffff1614610f6c576040517f08c379a0000000000000000000000000000000000000000000000000000000008152600401610f6390613e3a565b60405180910390fd5b6000805b600860003373ffffffffffffffffffffffffffffffffffffffff1673ffffffffffffffffffffffffffffffffffffffff168152602001908152602001600020805490508110156110605760076000600860003373ffffffffffffffffffffffffffffffffffffffff1673ffffffffffffffffffffffffffffffffffffffff168152602001908152602001600020838154811061100f5761100e613e5a565b5b9060005260206000200154815260200190815260200160002060050160009054906101000a900460ff161561104d57818061104990613aa8565b9250505b808061105890613aa8565b915050610f70565b50600581108061109057506007600083815260200190815260200160002060050160009054906101000a900460ff165b6110cf576040517f08c379a00000000000000000000000000000000000000000000000000000000081526004016110c690613efb565b60405180910390fd5b6007600083815260200190815260200160002060050160009054906101000a900460ff16156007600084815260200190815260200160002060050160006101000a81548160ff021916908315150217905550817f3ac2c7a291a9d1027ff52b34126ec23a80f267a31f4bd8e9946c9e700980aba26007600085815260200190815260200160002060050160009054906101000a900460ff166040516111749190612d83565b60405180910390a25050565b60008061118c83612557565b9050600073ffffffffffffffffffffffffffffffffffffffff168173ffffffffffffffffffffffffffffffffffffffff16036111fd576040517f08c379a00000000000000000000000000000000000000000000000000000000081526004016111f490613f67565b60405180910390fd5b80915050919050565b6000600a60009054906101000a900473ffffffffffffffffffffffffffffffffffffffff16905090565b60008073ffffffffffffffffffffffffffffffffffffffff168273ffffffffffffffffffffffffffffffffffffffff16036112a0576040517f08c379a000000000000000000000000000000000000000000000000000000000815260040161129790613ff9565b60405180910390fd5b600360008373ffffffffffffffffffffffffffffffffffffffff1673ffffffffffffffffffffffffffffffffffffffff168152602001908152602001600020549050919050565b6112ef612594565b6112f96000612612565b565b606060008060095467ffffffffffffffff81111561131c5761131b613002565b5b60405190808252806020026020018201604052801561134a5781602001602082028036833780820191505090505b50905060005b6009548110156113c4576007600082815260200190815260200160002060050160009054906101000a900460ff166113b1578082848151811061139657611395613e5a565b5b60200260200101818152505082806113ad90613aa8565b9350505b80806113bc90613aa8565b915050611350565b5060008267ffffffffffffffff8111156113e1576113e0613002565b5b60405190808252806020026020018201604052801561140f5781602001602082028036833780820191505090505b50905060005b8381101561146a578281815181106114305761142f613e5a565b5b602002602001015182828151811061144b5761144a613e5a565b5b602002602001018181525050808061146290613aa8565b915050611415565b5080935050505090565b6060600860008373ffffffffffffffffffffffffffffffffffffffff1673ffffffffffffffffffffffffffffffffffffffff1681526020019081526020016000208054806020026020016040519081016040528092919081815260200182805480156114ff57602002820191906000526020600020905b8154815260200190600101908083116114eb575b50505050509050919050565b6000600660009054906101000a900473ffffffffffffffffffffffffffffffffffffffff16905090565b6007602052806000526040600020600091509050806000018054611558906135c1565b80601f0160208091040260200160405190810160405280929190818152602001828054611584906135c1565b80156115d15780601f106115a6576101008083540402835291602001916115d1565b820191906000526020600020905b8154815290600101906020018083116115b457829003601f168201915b5050505050908060010180546115e6906135c1565b80601f0160208091040260200160405190810160405280929190818152602001828054611612906135c1565b801561165f5780601f106116345761010080835404028352916020019161165f565b820191906000526020600020905b81548152906001019060200180831161164257829003601f168201915b50505050509080600201549080600301805461167a906135c1565b80601f01602080910402602001604051908101604052809291908181526020018280546116a6906135c1565b80156116f35780601f106116c8576101008083540402835291602001916116f3565b820191906000526020600020905b8154815290600101906020018083116116d657829003601f168201915b5050505050908060040154908060050160009054906101000a900460ff16908060060154905087565b60606001805461172b906135c1565b80601f0160208091040260200160405190810160405280929190818152602001828054611757906135c1565b80156117a45780601f10611779576101008083540402835291602001916117a4565b820191906000526020600020905b81548152906001019060200180831161178757829003601f168201915b5050505050905090565b6117c06117b9611eeb565b83836126d8565b5050565b600860205281600052604060002081815481106117e057600080fd5b90600052602060002001600091509150505481565b600581565b61180b611805611eeb565b83611fac565b61184a576040517f08c379a000000000000000000000000000000000000000000000000000000000815260040161184190613788565b60405180910390fd5b61185684848484612844565b50505050565b60b481565b33600a600860008373ffffffffffffffffffffffffffffffffffffffff1673ffffffffffffffffffffffffffffffffffffffff16815260200190815260200160002080549050106118e7576040517f08c379a00000000000000000000000000000000000000000000000000000000081526004016118de9061408b565b60405180910390fd5b60006118f283611180565b90503373ffffffffffffffffffffffffffffffffffffffff168173ffffffffffffffffffffffffffffffffffffffff1603611962576040517f08c379a00000000000000000000000000000000000000000000000000000000081526004016119599061411d565b60405180910390fd5b6007600084815260200190815260200160002060050160009054906101000a900460ff16156119c6576040517f08c379a00000000000000000000000000000000000000000000000000000000081526004016119bd906141af565b60405180910390fd5b6007600084815260200190815260200160002060020154341015611a1f576040517f08c379a0000000000000000000000000000000000000000000000000000000008152600401611a169061421b565b60405180910390fd5b60b46007600085815260200190815260200160002060060154611a4291906139ae565b421015611a84576040517f08c379a0000000000000000000000000000000000000000000000000000000008152600401611a7b906142ad565b60405180910390fd5b6000600760008581526020019081526020016000206002015490506000611b48600760008781526020019081526020016000206001018054611ac5906135c1565b80601f0160208091040260200160405190810160405280929190818152602001828054611af1906135c1565b8015611b3e5780601f10611b1357610100808354040283529160200191611b3e565b820191906000526020600020905b815481529060010190602001808311611b2157829003601f168201915b5050505050610ab0565b90508273ffffffffffffffffffffffffffffffffffffffff166108fc839081150290604051600060405180830381858888f19350505050158015611b90573d6000803e3d6000fd5b50611b9c833387612041565b600860003373ffffffffffffffffffffffffffffffffffffffff1673ffffffffffffffffffffffffffffffffffffffff1681526020019081526020016000208590806001815401808255809150506001900390600052602060002001600090919091909150558082611c0e91906139ae565b60076000878152602001908152602001600020600201819055504260076000878152602001908152602001600020600601819055503373ffffffffffffffffffffffffffffffffffffffff167f043c7138120d6082be37dbbf053360a3f7ef694833241b0458183bd5f61c31598684600760008a815260200190815260200160002060020154604051611ca3939291906142cd565b60405180910390a25050505050565b6060611cbd82611ea0565b6000611cc76128a0565b90506000815111611ce75760405180602001604052806000815250611d12565b80611cf1846128b7565b604051602001611d02929190614304565b6040516020818303038152906040525b915050919050565b600a81565b6000600560008473ffffffffffffffffffffffffffffffffffffffff1673ffffffffffffffffffffffffffffffffffffffff16815260200190815260200160002060008373ffffffffffffffffffffffffffffffffffffffff1673ffffffffffffffffffffffffffffffffffffffff16815260200190815260200160002060009054906101000a900460ff16905092915050565b611dbb612594565b600073ffffffffffffffffffffffffffffffffffffffff168173ffffffffffffffffffffffffffffffffffffffff1603611e2a576040517f08c379a0000000000000000000000000000000000000000000000000000000008152600401611e219061439a565b60405180910390fd5b611e3381612612565b50565b60007f01ffc9a7000000000000000000000000000000000000000000000000000000007bffffffffffffffffffffffffffffffffffffffffffffffffffffffff1916827bffffffffffffffffffffffffffffffffffffffffffffffffffffffff1916149050919050565b611ea981612985565b611ee8576040517f08c379a0000000000000000000000000000000000000000000000000000000008152600401611edf90613f67565b60405180910390fd5b50565b600033905090565b816004600083815260200190815260200160002060006101000a81548173ffffffffffffffffffffffffffffffffffffffff021916908373ffffffffffffffffffffffffffffffffffffffff160217905550808273ffffffffffffffffffffffffffffffffffffffff16611f6683611180565b73ffffffffffffffffffffffffffffffffffffffff167f8c5be1e5ebec7d5bd14f71427d1e84f3dd0314c0f7b2291e5b200ac8c7c3b92560405160405180910390a45050565b600080611fb883611180565b90508073ffffffffffffffffffffffffffffffffffffffff168473ffffffffffffffffffffffffffffffffffffffff161480611ffa5750611ff98185611d1f565b5b8061203857508373ffffffffffffffffffffffffffffffffffffffff16612020846108e9565b73ffffffffffffffffffffffffffffffffffffffff16145b91505092915050565b8273ffffffffffffffffffffffffffffffffffffffff1661206182611180565b73ffffffffffffffffffffffffffffffffffffffff16146120b7576040517f08c379a00000000000000000000000000000000000000000000000000000000081526004016120ae9061442c565b60405180910390fd5b600073ffffffffffffffffffffffffffffffffffffffff168273ffffffffffffffffffffffffffffffffffffffff1603612126576040517f08c379a000000000000000000000000000000000000000000000000000000000815260040161211d906144be565b60405180910390fd5b61213383838360016129c6565b8273ffffffffffffffffffffffffffffffffffffffff1661215382611180565b73ffffffffffffffffffffffffffffffffffffffff16146121a9576040517f08c379a00000000000000000000000000000000000000000000000000000000081526004016121a09061442c565b60405180910390fd5b6004600082815260200190815260200160002060006101000a81549073ffffffffffffffffffffffffffffffffffffffff02191690556001600360008573ffffffffffffffffffffffffffffffffffffffff1673ffffffffffffffffffffffffffffffffffffffff168152602001908152602001600020600082825403925050819055506001600360008473ffffffffffffffffffffffffffffffffffffffff1673ffffffffffffffffffffffffffffffffffffffff16815260200190815260200160002060008282540192505081905550816002600083815260200190815260200160002060006101000a81548173ffffffffffffffffffffffffffffffffffffffff021916908373ffffffffffffffffffffffffffffffffffffffff160217905550808273ffffffffffffffffffffffffffffffffffffffff168473ffffffffffffffffffffffffffffffffffffffff167fddf252ad1be2c89b69c2b068fc378daa952ba7f163c4a11628f55a4df523b3ef60405160405180910390a461233583838360016129cc565b505050565b600073ffffffffffffffffffffffffffffffffffffffff168273ffffffffffffffffffffffffffffffffffffffff16036123a9576040517f08c379a00000000000000000000000000000000000000000000000000000000081526004016123a09061452a565b60405180910390fd5b6123b281612985565b156123f2576040517f08c379a00000000000000000000000000000000000000000000000000000000081526004016123e990614596565b60405180910390fd5b6124006000838360016129c6565b61240981612985565b15612449576040517f08c379a000000000000000000000000000000000000000000000000000000000815260040161244090614596565b60405180910390fd5b6001600360008473ffffffffffffffffffffffffffffffffffffffff1673ffffffffffffffffffffffffffffffffffffffff16815260200190815260200160002060008282540192505081905550816002600083815260200190815260200160002060006101000a81548173ffffffffffffffffffffffffffffffffffffffff021916908373ffffffffffffffffffffffffffffffffffffffff160217905550808273ffffffffffffffffffffffffffffffffffffffff16600073ffffffffffffffffffffffffffffffffffffffff167fddf252ad1be2c89b69c2b068fc378daa952ba7f163c4a11628f55a4df523b3ef60405160405180910390a46125536000838360016129cc565b5050565b60006002600083815260200190815260200160002060009054906101000a900473ffffffffffffffffffffffffffffffffffffffff169050919050565b61259c611eeb565b73ffffffffffffffffffffffffffffffffffffffff166125ba61150b565b73ffffffffffffffffffffffffffffffffffffffff1614612610576040517f08c379a000000000000000000000000000000000000000000000000000000000815260040161260790614602565b60405180910390fd5b565b6000600660009054906101000a900473ffffffffffffffffffffffffffffffffffffffff16905081600660006101000a81548173ffffffffffffffffffffffffffffffffffffffff021916908373ffffffffffffffffffffffffffffffffffffffff1602179055508173ffffffffffffffffffffffffffffffffffffffff168173ffffffffffffffffffffffffffffffffffffffff167f8be0079c531659141344cd1fd0a4f28419497f9722a3daafe3b4186f6b6457e060405160405180910390a35050565b8173ffffffffffffffffffffffffffffffffffffffff168373ffffffffffffffffffffffffffffffffffffffff1603612746576040517f08c379a000000000000000000000000000000000000000000000000000000000815260040161273d9061466e565b60405180910390fd5b80600560008573ffffffffffffffffffffffffffffffffffffffff1673ffffffffffffffffffffffffffffffffffffffff16815260200190815260200160002060008473ffffffffffffffffffffffffffffffffffffffff1673ffffffffffffffffffffffffffffffffffffffff16815260200190815260200160002060006101000a81548160ff0219169083151502179055508173ffffffffffffffffffffffffffffffffffffffff168373ffffffffffffffffffffffffffffffffffffffff167f17307eab39ab6107e8899845ad3d59bd9653f200f220920489ca2b5937696c31836040516128379190612d83565b60405180910390a3505050565b61284f848484612041565b61285b848484846129d2565b61289a576040517f08c379a000000000000000000000000000000000000000000000000000000000815260040161289190614700565b60405180910390fd5b50505050565b606060405180602001604052806000815250905090565b6060600060016128c684612b59565b01905060008167ffffffffffffffff8111156128e5576128e4613002565b5b6040519080825280601f01601f1916602001820160405280156129175781602001600182028036833780820191505090505b509050600082602001820190505b60011561297a578080600190039150507f3031323334353637383961626364656600000000000000000000000000000000600a86061a8153600a858161296e5761296d614720565b5b04945060008503612925575b819350505050919050565b60008073ffffffffffffffffffffffffffffffffffffffff166129a783612557565b73ffffffffffffffffffffffffffffffffffffffff1614159050919050565b50505050565b50505050565b60006129f38473ffffffffffffffffffffffffffffffffffffffff16612cac565b15612b4c578373ffffffffffffffffffffffffffffffffffffffff1663150b7a02612a1c611eeb565b8786866040518563ffffffff1660e01b8152600401612a3e94939291906147a4565b6020604051808303816000875af1925050508015612a7a57506040513d601f19601f82011682018060405250810190612a779190614805565b60015b612afc573d8060008114612aaa576040519150601f19603f3d011682016040523d82523d6000602084013e612aaf565b606091505b506000815103612af4576040517f08c379a0000000000000000000000000000000000000000000000000000000008152600401612aeb90614700565b60405180910390fd5b805181602001fd5b63150b7a0260e01b7bffffffffffffffffffffffffffffffffffffffffffffffffffffffff1916817bffffffffffffffffffffffffffffffffffffffffffffffffffffffff191614915050612b51565b600190505b949350505050565b600080600090507a184f03e93ff9f4daa797ed6e38ed64bf6a1f0100000000000000008310612bb7577a184f03e93ff9f4daa797ed6e38ed64bf6a1f0100000000000000008381612bad57612bac614720565b5b0492506040810190505b6d04ee2d6d415b85acef81000000008310612bf4576d04ee2d6d415b85acef81000000008381612bea57612be9614720565b5b0492506020810190505b662386f26fc100008310612c2357662386f26fc100008381612c1957612c18614720565b5b0492506010810190505b6305f5e1008310612c4c576305f5e1008381612c4257612c41614720565b5b0492506008810190505b6127108310612c71576127108381612c6757612c66614720565b5b0492506004810190505b60648310612c945760648381612c8a57612c89614720565b5b0492506002810190505b600a8310612ca3576001810190505b80915050919050565b6000808273ffffffffffffffffffffffffffffffffffffffff163b119050919050565b6000604051905090565b600080fd5b600080fd5b60007fffffffff0000000000000000000000000000000000000000000000000000000082169050919050565b612d1881612ce3565b8114612d2357600080fd5b50565b600081359050612d3581612d0f565b92915050565b600060208284031215612d5157612d50612cd9565b5b6000612d5f84828501612d26565b91505092915050565b60008115159050919050565b612d7d81612d68565b82525050565b6000602082019050612d986000830184612d74565b92915050565b600081519050919050565b600082825260208201905092915050565b60005b83811015612dd8578082015181840152602081019050612dbd565b60008484015250505050565b6000601f19601f8301169050919050565b6000612e0082612d9e565b612e0a8185612da9565b9350612e1a818560208601612dba565b612e2381612de4565b840191505092915050565b60006020820190508181036000830152612e488184612df5565b905092915050565b6000819050919050565b612e6381612e50565b8114612e6e57600080fd5b50565b600081359050612e8081612e5a565b92915050565b600060208284031215612e9c57612e9b612cd9565b5b6000612eaa84828501612e71565b91505092915050565b600073ffffffffffffffffffffffffffffffffffffffff82169050919050565b6000612ede82612eb3565b9050919050565b612eee81612ed3565b82525050565b6000602082019050612f096000830184612ee5565b92915050565b612f1881612ed3565b8114612f2357600080fd5b50565b600081359050612f3581612f0f565b92915050565b60008060408385031215612f5257612f51612cd9565b5b6000612f6085828601612f26565b9250506020612f7185828601612e71565b9150509250929050565b612f8481612e50565b82525050565b6000602082019050612f9f6000830184612f7b565b92915050565b600080600060608486031215612fbe57612fbd612cd9565b5b6000612fcc86828701612f26565b9350506020612fdd86828701612f26565b9250506040612fee86828701612e71565b9150509250925092565b600080fd5b600080fd5b7f4e487b7100000000000000000000000000000000000000000000000000000000600052604160045260246000fd5b61303a82612de4565b810181811067ffffffffffffffff8211171561305957613058613002565b5b80604052505050565b600061306c612ccf565b90506130788282613031565b919050565b600067ffffffffffffffff82111561309857613097613002565b5b6130a182612de4565b9050602081019050919050565b82818337600083830152505050565b60006130d06130cb8461307d565b613062565b9050828152602081018484840111156130ec576130eb612ffd565b5b6130f78482856130ae565b509392505050565b600082601f83011261311457613113612ff8565b5b81356131248482602086016130bd565b91505092915050565b60006020828403121561314357613142612cd9565b5b600082013567ffffffffffffffff81111561316157613160612cde565b5b61316d848285016130ff565b91505092915050565b600080600080608085870312156131905761318f612cd9565b5b600085013567ffffffffffffffff8111156131ae576131ad612cde565b5b6131ba878288016130ff565b945050602085013567ffffffffffffffff8111156131db576131da612cde565b5b6131e7878288016130ff565b93505060406131f887828801612e71565b925050606085013567ffffffffffffffff81111561321957613218612cde565b5b613225878288016130ff565b91505092959194509250565b60006020828403121561324757613246612cd9565b5b600061325584828501612f26565b91505092915050565b600081519050919050565b600082825260208201905092915050565b6000819050602082019050919050565b61329381612e50565b82525050565b60006132a5838361328a565b60208301905092915050565b6000602082019050919050565b60006132c98261325e565b6132d38185613269565b93506132de8361327a565b8060005b8381101561330f5781516132f68882613299565b9750613301836132b1565b9250506001810190506132e2565b5085935050505092915050565b6000602082019050818103600083015261333681846132be565b905092915050565b600060e0820190508181036000830152613358818a612df5565b9050818103602083015261336c8189612df5565b905061337b6040830188612f7b565b818103606083015261338d8187612df5565b905061339c6080830186612f7b565b6133a960a0830185612d74565b6133b660c0830184612f7b565b98975050505050505050565b6133cb81612d68565b81146133d657600080fd5b50565b6000813590506133e8816133c2565b92915050565b6000806040838503121561340557613404612cd9565b5b600061341385828601612f26565b9250506020613424858286016133d9565b9150509250929050565b600067ffffffffffffffff82111561344957613448613002565b5b61345282612de4565b9050602081019050919050565b600061347261346d8461342e565b613062565b90508281526020810184848401111561348e5761348d612ffd565b5b6134998482856130ae565b509392505050565b600082601f8301126134b6576134b5612ff8565b5b81356134c684826020860161345f565b91505092915050565b600080600080608085870312156134e9576134e8612cd9565b5b60006134f787828801612f26565b945050602061350887828801612f26565b935050604061351987828801612e71565b925050606085013567ffffffffffffffff81111561353a57613539612cde565b5b613546878288016134a1565b91505092959194509250565b6000806040838503121561356957613568612cd9565b5b600061357785828601612f26565b925050602061358885828601612f26565b9150509250929050565b7f4e487b7100000000000000000000000000000000000000000000000000000000600052602260045260246000fd5b600060028204905060018216806135d957607f821691505b6020821081036135ec576135eb613592565b5b50919050565b7f4552433732313a20617070726f76616c20746f2063757272656e74206f776e6560008201527f7200000000000000000000000000000000000000000000000000000000000000602082015250565b600061364e602183612da9565b9150613659826135f2565b604082019050919050565b6000602082019050818103600083015261367d81613641565b9050919050565b7f4552433732313a20617070726f76652063616c6c6572206973206e6f7420746f60008201527f6b656e206f776e6572206f7220617070726f76656420666f7220616c6c000000602082015250565b60006136e0603d83612da9565b91506136eb82613684565b604082019050919050565b6000602082019050818103600083015261370f816136d3565b9050919050565b7f4552433732313a2063616c6c6572206973206e6f7420746f6b656e206f776e6560008201527f72206f7220617070726f76656400000000000000000000000000000000000000602082015250565b6000613772602d83612da9565b915061377d82613716565b604082019050919050565b600060208201905081810360008301526137a181613765565b9050919050565b600081905092915050565b7f617474617175616e740000000000000000000000000000000000000000000000600082015250565b60006137e96009836137a8565b91506137f4826137b3565b600982019050919050565b600061380a826137dc565b9150819050919050565b600061381f82612d9e565b61382981856137a8565b9350613839818560208601612dba565b80840191505092915050565b60006138518284613814565b915081905092915050565b7f6d696c6965750000000000000000000000000000000000000000000000000000600082015250565b60006138926006836137a8565b915061389d8261385c565b600682019050919050565b60006138b382613885565b9150819050919050565b7f646566656e736575720000000000000000000000000000000000000000000000600082015250565b60006138f36009836137a8565b91506138fe826138bd565b600982019050919050565b6000613914826138e6565b9150819050919050565b7f6761726469656e00000000000000000000000000000000000000000000000000600082015250565b60006139546007836137a8565b915061395f8261391e565b600782019050919050565b600061397582613947565b9150819050919050565b7f4e487b7100000000000000000000000000000000000000000000000000000000600052601160045260246000fd5b60006139b982612e50565b91506139c483612e50565b92508282019050808211156139dc576139db61397f565b5b92915050565b60006139ed82612e50565b91506139f883612e50565b9250828203905081811115613a1057613a0f61397f565b5b92915050565b7f5365756c206c2761646d696e697374726174657572207065757420616a6f757460008201527f6572206465732063617274657300000000000000000000000000000000000000602082015250565b6000613a72602d83612da9565b9150613a7d82613a16565b604082019050919050565b60006020820190508181036000830152613aa181613a65565b9050919050565b6000613ab382612e50565b91507fffffffffffffffffffffffffffffffffffffffffffffffffffffffffffffffff8203613ae557613ae461397f565b5b600182019050919050565b60008190508160005260206000209050919050565b60006020601f8301049050919050565b600082821b905092915050565b600060088302613b527fffffffffffffffffffffffffffffffffffffffffffffffffffffffffffffffff82613b15565b613b5c8683613b15565b95508019841693508086168417925050509392505050565b6000819050919050565b6000613b99613b94613b8f84612e50565b613b74565b612e50565b9050919050565b6000819050919050565b613bb383613b7e565b613bc7613bbf82613ba0565b848454613b22565b825550505050565b600090565b613bdc613bcf565b613be7818484613baa565b505050565b5b81811015613c0b57613c00600082613bd4565b600181019050613bed565b5050565b601f821115613c5057613c2181613af0565b613c2a84613b05565b81016020851015613c39578190505b613c4d613c4585613b05565b830182613bec565b50505b505050565b600082821c905092915050565b6000613c7360001984600802613c55565b1980831691505092915050565b6000613c8c8383613c62565b9150826002028217905092915050565b613ca582612d9e565b67ffffffffffffffff811115613cbe57613cbd613002565b5b613cc882546135c1565b613cd3828285613c0f565b600060209050601f831160018114613d065760008415613cf4578287015190505b613cfe8582613c80565b865550613d66565b601f198416613d1486613af0565b60005b82811015613d3c57848901518255600182019150602085019450602081019050613d17565b86831015613d595784890151613d55601f891682613c62565b8355505b6001600288020188555050505b505050505050565b60006080820190508181036000830152613d888187612df5565b90508181036020830152613d9c8186612df5565b9050613dab6040830185612f7b565b8181036060830152613dbd8184612df5565b905095945050505050565b7f566f7573206e6520706f7576657a20766572726f75696c6c657220717565207660008201527f6f732070726f7072657320636172746573202100000000000000000000000000602082015250565b6000613e24603383612da9565b9150613e2f82613dc8565b604082019050919050565b60006020820190508181036000830152613e5381613e17565b9050919050565b7f4e487b7100000000000000000000000000000000000000000000000000000000600052603260045260246000fd5b7f566f7573206e6520706f7576657a20766572726f75696c6c657220717565203560008201527f20636172746573206175206d6178696d756d2021000000000000000000000000602082015250565b6000613ee5603483612da9565b9150613ef082613e89565b604082019050919050565b60006020820190508181036000830152613f1481613ed8565b9050919050565b7f4552433732313a20696e76616c696420746f6b656e2049440000000000000000600082015250565b6000613f51601883612da9565b9150613f5c82613f1b565b602082019050919050565b60006020820190508181036000830152613f8081613f44565b9050919050565b7f4552433732313a2061646472657373207a65726f206973206e6f74206120766160008201527f6c6964206f776e65720000000000000000000000000000000000000000000000602082015250565b6000613fe3602983612da9565b9150613fee82613f87565b604082019050919050565b6000602082019050818103600083015261401281613fd6565b9050919050565b7f566f7573206e6520706f7576657a2070617320706f73736564657220706c757360008201527f2064652031302063617274657320210000000000000000000000000000000000602082015250565b6000614075602f83612da9565b915061408082614019565b604082019050919050565b600060208201905081810360008301526140a481614068565b9050919050565b7f566f7573206e6520706f7576657a20706173206163686574657220766f74726560008201527f2070726f70726520636172746520210000000000000000000000000000000000602082015250565b6000614107602f83612da9565b9150614112826140ab565b604082019050919050565b60006020820190508181036000830152614136816140fa565b9050919050565b7f43657474652063617274652065737420626c6f717565652070617220736f6e2060008201527f70726f7072696574616972652021000000000000000000000000000000000000602082015250565b6000614199602e83612da9565b91506141a48261413d565b604082019050919050565b600060208201905081810360008301526141c88161418c565b9050919050565b7f466f6e647320696e737566666973616e74732021000000000000000000000000600082015250565b6000614205601483612da9565b9150614210826141cf565b602082019050919050565b60006020820190508181036000830152614234816141f8565b9050919050565b7f4365747465206361727465206e6520706575742070617320657472652061636860008201527f6574656520706f7572206c65206d6f6d656e7420210000000000000000000000602082015250565b6000614297603583612da9565b91506142a28261423b565b604082019050919050565b600060208201905081810360008301526142c68161428a565b9050919050565b60006060820190506142e26000830186612f7b565b6142ef6020830185612f7b565b6142fc6040830184612f7b565b949350505050565b60006143108285613814565b915061431c8284613814565b91508190509392505050565b7f4f776e61626c653a206e6577206f776e657220697320746865207a65726f206160008201527f6464726573730000000000000000000000000000000000000000000000000000602082015250565b6000614384602683612da9565b915061438f82614328565b604082019050919050565b600060208201905081810360008301526143b381614377565b9050919050565b7f4552433732313a207472616e736665722066726f6d20696e636f72726563742060008201527f6f776e6572000000000000000000000000000000000000000000000000000000602082015250565b6000614416602583612da9565b9150614421826143ba565b604082019050919050565b6000602082019050818103600083015261444581614409565b9050919050565b7f4552433732313a207472616e7366657220746f20746865207a65726f2061646460008201527f7265737300000000000000000000000000000000000000000000000000000000602082015250565b60006144a8602483612da9565b91506144b38261444c565b604082019050919050565b600060208201905081810360008301526144d78161449b565b9050919050565b7f4552433732313a206d696e7420746f20746865207a65726f2061646472657373600082015250565b6000614514602083612da9565b915061451f826144de565b602082019050919050565b6000602082019050818103600083015261454381614507565b9050919050565b7f4552433732313a20746f6b656e20616c7265616479206d696e74656400000000600082015250565b6000614580601c83612da9565b915061458b8261454a565b602082019050919050565b600060208201905081810360008301526145af81614573565b9050919050565b7f4f776e61626c653a2063616c6c6572206973206e6f7420746865206f776e6572600082015250565b60006145ec602083612da9565b91506145f7826145b6565b602082019050919050565b6000602082019050818103600083015261461b816145df565b9050919050565b7f4552433732313a20617070726f766520746f2063616c6c657200000000000000600082015250565b6000614658601983612da9565b915061466382614622565b602082019050919050565b600060208201905081810360008301526146878161464b565b9050919050565b7f4552433732313a207472616e7366657220746f206e6f6e20455243373231526560008201527f63656976657220696d706c656d656e7465720000000000000000000000000000602082015250565b60006146ea603283612da9565b91506146f58261468e565b604082019050919050565b60006020820190508181036000830152614719816146dd565b9050919050565b7f4e487b7100000000000000000000000000000000000000000000000000000000600052601260045260246000fd5b600081519050919050565b600082825260208201905092915050565b60006147768261474f565b614780818561475a565b9350614790818560208601612dba565b61479981612de4565b840191505092915050565b60006080820190506147b96000830187612ee5565b6147c66020830186612ee5565b6147d36040830185612f7b565b81810360608301526147e5818461476b565b905095945050505050565b6000815190506147ff81612d0f565b92915050565b60006020828403121561481b5761481a612cd9565b5b6000614829848285016147f0565b9150509291505056fea26469706673582212200c929fe0a6f76f90b24c5716d0462928e0ce1e262616a5d5458b7b749e79f45964736f6c63430008130033",
  "linkReferences": {},
  "deployedLinkReferences": {}
}